{
  "_format": "hh-sol-artifact-1",
  "contractName": "Latch",
  "sourceName": "contracts/tokenMarket/Latch.sol",
  "abi": [
    {
      "inputs": [],
      "stateMutability": "nonpayable",
      "type": "constructor"
    },
    {
      "inputs": [],
      "name": "AccessControlBadConfirmation",
      "type": "error"
    },
    {
      "inputs": [
        {
          "internalType": "address",
          "name": "account",
          "type": "address"
        },
        {
          "internalType": "bytes32",
          "name": "neededRole",
          "type": "bytes32"
        }
      ],
      "name": "AccessControlUnauthorizedAccount",
      "type": "error"
    },
    {
      "inputs": [
        {
          "internalType": "address",
          "name": "spender",
          "type": "address"
        },
        {
          "internalType": "uint256",
          "name": "allowance",
          "type": "uint256"
        },
        {
          "internalType": "uint256",
          "name": "needed",
          "type": "uint256"
        }
      ],
      "name": "ERC20InsufficientAllowance",
      "type": "error"
    },
    {
      "inputs": [
        {
          "internalType": "address",
          "name": "sender",
          "type": "address"
        },
        {
          "internalType": "uint256",
          "name": "balance",
          "type": "uint256"
        },
        {
          "internalType": "uint256",
          "name": "needed",
          "type": "uint256"
        }
      ],
      "name": "ERC20InsufficientBalance",
      "type": "error"
    },
    {
      "inputs": [
        {
          "internalType": "address",
          "name": "approver",
          "type": "address"
        }
      ],
      "name": "ERC20InvalidApprover",
      "type": "error"
    },
    {
      "inputs": [
        {
          "internalType": "address",
          "name": "receiver",
          "type": "address"
        }
      ],
      "name": "ERC20InvalidReceiver",
      "type": "error"
    },
    {
      "inputs": [
        {
          "internalType": "address",
          "name": "sender",
          "type": "address"
        }
      ],
      "name": "ERC20InvalidSender",
      "type": "error"
    },
    {
      "inputs": [
        {
          "internalType": "address",
          "name": "spender",
          "type": "address"
        }
      ],
      "name": "ERC20InvalidSpender",
      "type": "error"
    },
    {
      "anonymous": false,
      "inputs": [
        {
          "indexed": true,
          "internalType": "address",
          "name": "owner",
          "type": "address"
        },
        {
          "indexed": true,
          "internalType": "address",
          "name": "spender",
          "type": "address"
        },
        {
          "indexed": false,
          "internalType": "uint256",
          "name": "value",
          "type": "uint256"
        }
      ],
      "name": "Approval",
      "type": "event"
    },
    {
      "anonymous": false,
      "inputs": [
        {
          "indexed": true,
          "internalType": "bytes32",
          "name": "role",
          "type": "bytes32"
        },
        {
          "indexed": true,
          "internalType": "bytes32",
          "name": "previousAdminRole",
          "type": "bytes32"
        },
        {
          "indexed": true,
          "internalType": "bytes32",
          "name": "newAdminRole",
          "type": "bytes32"
        }
      ],
      "name": "RoleAdminChanged",
      "type": "event"
    },
    {
      "anonymous": false,
      "inputs": [
        {
          "indexed": true,
          "internalType": "bytes32",
          "name": "role",
          "type": "bytes32"
        },
        {
          "indexed": true,
          "internalType": "address",
          "name": "account",
          "type": "address"
        },
        {
          "indexed": true,
          "internalType": "address",
          "name": "sender",
          "type": "address"
        }
      ],
      "name": "RoleGranted",
      "type": "event"
    },
    {
      "anonymous": false,
      "inputs": [
        {
          "indexed": true,
          "internalType": "bytes32",
          "name": "role",
          "type": "bytes32"
        },
        {
          "indexed": true,
          "internalType": "address",
          "name": "account",
          "type": "address"
        },
        {
          "indexed": true,
          "internalType": "address",
          "name": "sender",
          "type": "address"
        }
      ],
      "name": "RoleRevoked",
      "type": "event"
    },
    {
      "anonymous": false,
      "inputs": [
        {
          "indexed": true,
          "internalType": "address",
          "name": "from",
          "type": "address"
        },
        {
          "indexed": true,
          "internalType": "address",
          "name": "to",
          "type": "address"
        },
        {
          "indexed": false,
          "internalType": "uint256",
          "name": "value",
          "type": "uint256"
        }
      ],
      "name": "Transfer",
      "type": "event"
    },
    {
      "inputs": [],
      "name": "DEFAULT_ADMIN_ROLE",
      "outputs": [
        {
          "internalType": "bytes32",
          "name": "",
          "type": "bytes32"
        }
      ],
      "stateMutability": "view",
      "type": "function"
    },
    {
      "inputs": [
        {
          "internalType": "address",
          "name": "owner",
          "type": "address"
        },
        {
          "internalType": "address",
          "name": "spender",
          "type": "address"
        }
      ],
      "name": "allowance",
      "outputs": [
        {
          "internalType": "uint256",
          "name": "",
          "type": "uint256"
        }
      ],
      "stateMutability": "view",
      "type": "function"
    },
    {
      "inputs": [
        {
          "internalType": "address",
          "name": "spender",
          "type": "address"
        },
        {
          "internalType": "uint256",
          "name": "value",
          "type": "uint256"
        }
      ],
      "name": "approve",
      "outputs": [
        {
          "internalType": "bool",
          "name": "",
          "type": "bool"
        }
      ],
      "stateMutability": "nonpayable",
      "type": "function"
    },
    {
      "inputs": [
        {
          "internalType": "address",
          "name": "account",
          "type": "address"
        }
      ],
      "name": "balanceOf",
      "outputs": [
        {
          "internalType": "uint256",
          "name": "",
          "type": "uint256"
        }
      ],
      "stateMutability": "view",
      "type": "function"
    },
    {
      "inputs": [
        {
          "internalType": "uint256",
          "name": "value",
          "type": "uint256"
        }
      ],
      "name": "burn",
      "outputs": [],
      "stateMutability": "nonpayable",
      "type": "function"
    },
    {
      "inputs": [
        {
          "internalType": "address",
          "name": "account",
          "type": "address"
        },
        {
          "internalType": "uint256",
          "name": "value",
          "type": "uint256"
        }
      ],
      "name": "burnFrom",
      "outputs": [],
      "stateMutability": "nonpayable",
      "type": "function"
    },
    {
      "inputs": [],
      "name": "decimals",
      "outputs": [
        {
          "internalType": "uint8",
          "name": "",
          "type": "uint8"
        }
      ],
      "stateMutability": "view",
      "type": "function"
    },
    {
      "inputs": [
        {
          "internalType": "bytes32",
          "name": "role",
          "type": "bytes32"
        }
      ],
      "name": "getRoleAdmin",
      "outputs": [
        {
          "internalType": "bytes32",
          "name": "",
          "type": "bytes32"
        }
      ],
      "stateMutability": "view",
      "type": "function"
    },
    {
      "inputs": [
        {
          "internalType": "bytes32",
          "name": "role",
          "type": "bytes32"
        },
        {
          "internalType": "address",
          "name": "account",
          "type": "address"
        }
      ],
      "name": "grantRole",
      "outputs": [],
      "stateMutability": "nonpayable",
      "type": "function"
    },
    {
      "inputs": [
        {
          "internalType": "bytes32",
          "name": "role",
          "type": "bytes32"
        },
        {
          "internalType": "address",
          "name": "account",
          "type": "address"
        }
      ],
      "name": "hasRole",
      "outputs": [
        {
          "internalType": "bool",
          "name": "",
          "type": "bool"
        }
      ],
      "stateMutability": "view",
      "type": "function"
    },
    {
      "inputs": [
        {
          "internalType": "address",
          "name": "_receiver",
          "type": "address"
        },
        {
          "internalType": "uint256",
          "name": "_amount",
          "type": "uint256"
        }
      ],
      "name": "mint",
      "outputs": [],
      "stateMutability": "nonpayable",
      "type": "function"
    },
    {
      "inputs": [],
      "name": "name",
      "outputs": [
        {
          "internalType": "string",
          "name": "",
          "type": "string"
        }
      ],
      "stateMutability": "view",
      "type": "function"
    },
    {
      "inputs": [
        {
          "internalType": "bytes32",
          "name": "role",
          "type": "bytes32"
        },
        {
          "internalType": "address",
          "name": "callerConfirmation",
          "type": "address"
        }
      ],
      "name": "renounceRole",
      "outputs": [],
      "stateMutability": "nonpayable",
      "type": "function"
    },
    {
      "inputs": [
        {
          "internalType": "bytes32",
          "name": "role",
          "type": "bytes32"
        },
        {
          "internalType": "address",
          "name": "account",
          "type": "address"
        }
      ],
      "name": "revokeRole",
      "outputs": [],
      "stateMutability": "nonpayable",
      "type": "function"
    },
    {
      "inputs": [
        {
          "internalType": "bytes4",
          "name": "interfaceId",
          "type": "bytes4"
        }
      ],
      "name": "supportsInterface",
      "outputs": [
        {
          "internalType": "bool",
          "name": "",
          "type": "bool"
        }
      ],
      "stateMutability": "view",
      "type": "function"
    },
    {
      "inputs": [],
      "name": "symbol",
      "outputs": [
        {
          "internalType": "string",
          "name": "",
          "type": "string"
        }
      ],
      "stateMutability": "view",
      "type": "function"
    },
    {
      "inputs": [],
      "name": "totalSupply",
      "outputs": [
        {
          "internalType": "uint256",
          "name": "",
          "type": "uint256"
        }
      ],
      "stateMutability": "view",
      "type": "function"
    },
    {
      "inputs": [
        {
          "internalType": "address",
          "name": "to",
          "type": "address"
        },
        {
          "internalType": "uint256",
          "name": "value",
          "type": "uint256"
        }
      ],
      "name": "transfer",
      "outputs": [
        {
          "internalType": "bool",
          "name": "",
          "type": "bool"
        }
      ],
      "stateMutability": "nonpayable",
      "type": "function"
    },
    {
      "inputs": [
        {
          "internalType": "address",
          "name": "from",
          "type": "address"
        },
        {
          "internalType": "address",
          "name": "to",
          "type": "address"
        },
        {
          "internalType": "uint256",
          "name": "value",
          "type": "uint256"
        }
      ],
      "name": "transferFrom",
      "outputs": [
        {
          "internalType": "bool",
          "name": "",
          "type": "bool"
        }
      ],
      "stateMutability": "nonpayable",
      "type": "function"
    }
  ],
  "bytecode": "0x6080604052346100225761001161010a565b604051611266610448823961126690f35b600080fd5b634e487b7160e01b600052604160045260246000fd5b90601f01601f191681019081106001600160401b0382111761005e57604052565b610027565b9061007761007060405190565b928361003d565b565b6001600160401b03811161005e57602090601f01601f19160190565b906100a76100a283610079565b610063565b918252565b6100b66005610095565b6409882a886960db1b602082015290565b6100cf6100ac565b90565b6100dc6003610095565b6213105560ea1b602082015290565b6100cf6100d2565b6100cf6100cf6100cf9290565b6100cf60006100f3565b6101236101156100c7565b61011d6100eb565b90610138565b61013561012e610100565b3390610397565b50565b61007791829182918291829190610315565b634e487b7160e01b600052602260045260246000fd5b9060016002830492168015610180575b602083101461017b57565b61014a565b91607f1691610170565b9160001960089290920291821b911b5b9181191691161790565b91906101b56100cf6101bd936100f3565b90835461018a565b9055565b610077916000916101a4565b8181106101d8575050565b806101e660006001936101c1565b016101cd565b9190601f81116101fb57505050565b61020d61007793600052602060002090565b906020601f84018190048301931061022f575b6020601f9091010401906101cd565b9091508190610220565b90610242815190565b906001600160401b03821161005e576102658261025f8554610160565b856101ec565b602090601f83116001146102a0576101bd929160009183610295575b5050600019600883021c1916906002021790565b015190503880610281565b601f198316916102b585600052602060002090565b9260005b8181106102f3575091600293918560019694106102da575b50505002019055565b01516000196008601f8516021c191690553880806102d1565b919360206001819287870151815501950192016102b9565b9061007791610239565b9061032461007792600361030b565b600461030b565b905b600052602052604060002090565b6100cf9061034f906001600160a01b031682565b6001600160a01b031690565b6100cf9061033b565b6100cf9061035b565b9061032d90610364565b9060ff9061019a565b906103906100cf6101bd92151590565b8254610377565b6103a86103a48383610423565b1590565b1561041c576103ce60016103c98460006103c386600561032b565b0161036d565b610380565b6103e86103e26103dc339390565b93610364565b91610364565b917f2f8788117e7eff1d82e926ec794901d17c78024a50270940304540a733656f0d61041360405190565b600090a4600190565b5050600090565b6100cf9160006103c361044093610438600090565b50600561032b565b5460ff169056fe6080604052600436101561001257600080fd5b60003560e01c806301ffc9a71461014257806306fdde031461013d578063095ea7b31461013857806318160ddd1461013357806323b872dd1461012e578063248a9ca3146101295780632f2ff15d14610124578063313ce5671461011f57806336568abe1461011a57806340c10f191461011557806342966c681461011057806370a082311461010b57806379cc67901461010657806391d148541461010157806395d89b41146100fc578063a217fddf146100f7578063a9059cbb146100f2578063d547741f146100ed5763dd62ed3e0361017257610582565b61054d565b610531565b610516565b6104dc565b6104c0565b6104a7565b61048c565b610460565b610447565b61042e565b6103ff565b6103e1565b6103a3565b610373565b61031e565b610302565b610263565b61019d565b7fffffffff0000000000000000000000000000000000000000000000000000000081165b0361017257565b600080fd5b9050359061018482610147565b565b906020828203126101725761019a91610177565b90565b34610172576101ca6101b86101b3366004610186565b61059e565b60405191829182901515815260200190565b0390f35b600091031261017257565b60005b8381106101ec5750506000910152565b81810151838201526020016101dc565b61021d61022660209361024e93610211815190565b80835293849260200190565b958691016101d9565b601f017fffffffffffffffffffffffffffffffffffffffffffffffffffffffffffffffe01690565b0190565b602080825261019a929101906101fc565b34610172576102733660046101ce565b6101ca61027e6107bf565b60405191829182610252565b73ffffffffffffffffffffffffffffffffffffffff1690565b73ffffffffffffffffffffffffffffffffffffffff811661016b565b90503590610184826102a3565b8061016b565b90503590610184826102cc565b91906040838203126101725761019a9060206102fb82866102bf565b94016102d2565b34610172576101ca6101b86103183660046102df565b906107c9565b346101725761032e3660046101ce565b6101ca6103396107ea565b6040515b9182918290815260200190565b90916060828403126101725761019a61036384846102bf565b9360406102fb82602087016102bf565b34610172576101ca6101b861038936600461034a565b916107f4565b906020828203126101725761019a916102d2565b34610172576101ca6103396103b936600461038f565b61081b565b91906040838203126101725761019a9060206103da82866102d2565b94016102bf565b34610172576103fa6103f43660046103be565b9061085d565b604051005b346101725761040f3660046101ce565b6101ca61041a61087a565b6040519182918260ff909116815260200190565b34610172576103fa6104413660046103be565b90610884565b34610172576103fa61045a3660046102df565b90610924565b34610172576103fa61047336600461038f565b61092e565b906020828203126101725761019a916102bf565b34610172576101ca6103396104a2366004610478565b61097c565b34610172576103fa6104ba3660046102df565b90610998565b34610172576101ca6101b86104d63660046103be565b906109ba565b34610172576104ec3660046101ce565b6101ca61027e6109da565b61019a61019a61019a9290565b61019a60006104f7565b61019a610504565b34610172576105263660046101ce565b6101ca61033961050e565b34610172576101ca6101b86105473660046102df565b906109e4565b34610172576103fa6105603660046103be565b90610a0a565b91906040838203126101725761019a9060206103da82866102bf565b34610172576101ca610339610598366004610566565b90610a14565b7f7965db0b000000000000000000000000000000000000000000000000000000007fffffffff000000000000000000000000000000000000000000000000000000008216149081156105ee575090565b61019a91507fffffffff00000000000000000000000000000000000000000000000000000000167f01ffc9a7000000000000000000000000000000000000000000000000000000001490565b7f4e487b7100000000000000000000000000000000000000000000000000000000600052602260045260246000fd5b9060016002830492168015610689575b602083101461068457565b61063a565b91607f1691610679565b805460009392916106b06106a683610669565b8085529360200190565b916001811690811561070257506001146106c957505050565b6106dc9192939450600052602060002090565b916000925b8184106106ee5750500190565b8054848401526020909301926001016106e1565b92949550505060ff1916825215156020020190565b9061019a91610693565b7f4e487b7100000000000000000000000000000000000000000000000000000000600052604160045260246000fd5b90601f017fffffffffffffffffffffffffffffffffffffffffffffffffffffffffffffffe016810190811067ffffffffffffffff82111761079057604052565b610721565b906101846107af926107a660405190565b93848092610717565b0383610750565b61019a90610795565b61019a60036107b6565b6107d4919033610a34565b600190565b61019a9081565b61019a90546107d9565b61019a60026107e0565b6107d492919061080683335b83610a79565b610b21565b905b600052602052604060002090565b600161083461019a9261082c600090565b50600561080b565b016107e0565b906101849161085061084b8261081b565b610c33565b9061085a91610c68565b50565b906101849161083a565b61087461019a61019a9290565b60ff1690565b61019a6012610867565b9061088e3361028a565b73ffffffffffffffffffffffffffffffffffffffff8216036108b35761085a91610cee565b7f6697b23200000000000000000000000000000000000000000000000000000000600090815260045b036000fd5b61019a7f262c70cb68844873654dc54487b634cb00850c1e13c785cd0d96a2b89b8294726104f7565b906101849161091a61084b6108e1565b9061018491610d4b565b906101849161090a565b6101849033610dda565b610dda565b61028a61019a61019a9273ffffffffffffffffffffffffffffffffffffffff1690565b61019a9061093d565b61019a90610960565b9061080d90610969565b61099361019a9161098b600090565b506000610972565b6107e0565b61018491906109388233610800565b61019a90610874565b61019a90546109a7565b61019a9160006109cf6109d59361082c600090565b01610972565b6109b0565b61019a60046107b6565b6107d4919033610b21565b9061018491610a0061084b8261081b565b9061085a91610cee565b90610184916109ef565b61019a91610a2f61099392610a27600090565b506001610972565b610972565b9160019161018493610eaa565b73ffffffffffffffffffffffffffffffffffffffff9091168152606081019392610184929091604091610a75906020830152565b0152565b91610a848284610a14565b7fffffffffffffffffffffffffffffffffffffffffffffffffffffffffffffffff8103610ab2575b50505050565b818110610ad85791610ac9610acf94926000940390565b91610eaa565b38808080610aac565b7ffb8f41b200000000000000000000000000000000000000000000000000000000600090815293506108dc926004610a41565b61028a61019a61019a9290565b61019a90610b0b565b929190600093610b3085610b18565b8573ffffffffffffffffffffffffffffffffffffffff821673ffffffffffffffffffffffffffffffffffffffff841614610bed575073ffffffffffffffffffffffffffffffffffffffff811673ffffffffffffffffffffffffffffffffffffffff841614610ba45750610184939450611047565b7fec442f0500000000000000000000000000000000000000000000000000000000865273ffffffffffffffffffffffffffffffffffffffff1660048601528480602481015b0390fd5b7f96c6fd1e00000000000000000000000000000000000000000000000000000000815273ffffffffffffffffffffffffffffffffffffffff919091166004820152602490fd5b6101849033906111e8565b9060ff905b9181191691161790565b90610c5d61019a610c6492151590565b8254610c3e565b9055565b610c79610c7583836109ba565b1590565b15610ce757610c996001610c948460006109cf86600561080b565b610c4d565b610cb3610cad610ca7339390565b93610969565b91610969565b917f2f8788117e7eff1d82e926ec794901d17c78024a50270940304540a733656f0d610cde60405190565b600090a4600190565b5050600090565b610cf882826109ba565b15610ce757610d126000610c9484826109cf86600561080b565b610d20610cad610ca7339390565b917ff6391f5c32d9c69d2a47ea670b442974b53935d1edc7fd64eb21e047a839171b610cde60405190565b9190600092610d5984610b18565b73ffffffffffffffffffffffffffffffffffffffff811673ffffffffffffffffffffffffffffffffffffffff831614610d9757610184939450611047565b7fec442f0500000000000000000000000000000000000000000000000000000000855273ffffffffffffffffffffffffffffffffffffffff166004850152602484fd5b9190600092610de884610b18565b9073ffffffffffffffffffffffffffffffffffffffff821673ffffffffffffffffffffffffffffffffffffffff821614610e2757610184939450611047565b7f96c6fd1e00000000000000000000000000000000000000000000000000000000855273ffffffffffffffffffffffffffffffffffffffff82166004860152602485fd5b907fffffffffffffffffffffffffffffffffffffffffffffffffffffffffffffffff90610c43565b90610ea361019a610c64926104f7565b8254610e6b565b9091926000610eb881610b18565b73ffffffffffffffffffffffffffffffffffffffff811673ffffffffffffffffffffffffffffffffffffffff851614610fc35773ffffffffffffffffffffffffffffffffffffffff811673ffffffffffffffffffffffffffffffffffffffff861614610f80575050610f3884610f3385610a2f866001610972565b610e93565b610f4157505050565b610f7b610f71610ca77f8c5be1e5ebec7d5bd14f71427d1e84f3dd0314c0f7b2291e5b200ac8c7c3b92593610969565b9361033d60405190565b0390a3565b7f94280d6200000000000000000000000000000000000000000000000000000000825273ffffffffffffffffffffffffffffffffffffffff166004820152602490fd5b7fe602df0500000000000000000000000000000000000000000000000000000000825273ffffffffffffffffffffffffffffffffffffffff166004820152602490fd5b7f4e487b7100000000000000000000000000000000000000000000000000000000600052601160045260246000fd5b9190820180921161104257565b611006565b81600061105381610b18565b73ffffffffffffffffffffffffffffffffffffffff811673ffffffffffffffffffffffffffffffffffffffff85160361112c577fddf252ad1be2c89b69c2b068fc378daa952ba7f163c4a11628f55a4df523b3ef93610f7b93610f71936110d4610ca79461028a6110cd8c6110c860026107e0565b611035565b6002610e93565b73ffffffffffffffffffffffffffffffffffffffff83160361110c5750506111076110cd8861110360026107e0565b0390565b610969565b6111079161111991610972565b6111268961024e836107e0565b90610e93565b90915061113c6109938484610972565b85811061118a577fddf252ad1be2c89b69c2b068fc378daa952ba7f163c4a11628f55a4df523b3ef9385610f7b946110d4610f719561028a6111808c610ca7980390565b610f338786610972565b82610be9878293877fe450d38c00000000000000000000000000000000000000000000000000000000855260048501610a41565b73ffffffffffffffffffffffffffffffffffffffff90911681526040810192916101849160200152565b906111f6610c7582846109ba565b6111fe575050565b7fe2517d3f000000000000000000000000000000000000000000000000000000006000908152916108dc9160046111be56fea264697066735822122063a5be4f8aebd8c1820da1bf60474903975cf60f35955463f1eb6d55e8e9df4c64736f6c634300081c0033",
  "linkReferences": {},
  "deployedLinkReferences": {}
}