{
  "_format": "hh-sol-artifact-1",
  "contractName": "RaidVault",
  "sourceName": "contracts/vaults/RaidVault.sol",
  "abi": [
    {
      "inputs": [
        {
          "internalType": "contract IERC20",
          "name": "_battingToken",
          "type": "address"
        },
        {
          "internalType": "address",
          "name": "_manager",
          "type": "address"
        }
      ],
      "stateMutability": "nonpayable",
      "type": "constructor"
    },
    {
      "inputs": [],
      "name": "AccessControlBadConfirmation",
      "type": "error"
    },
    {
      "inputs": [
        {
          "internalType": "address",
          "name": "account",
          "type": "address"
        },
        {
          "internalType": "bytes32",
          "name": "neededRole",
          "type": "bytes32"
        }
      ],
      "name": "AccessControlUnauthorizedAccount",
      "type": "error"
    },
    {
      "inputs": [],
      "name": "InvalidType",
      "type": "error"
    },
    {
      "anonymous": false,
      "inputs": [
        {
          "indexed": true,
          "internalType": "address",
          "name": "receiver",
          "type": "address"
        },
        {
          "indexed": false,
          "internalType": "address",
          "name": "prize",
          "type": "address"
        },
        {
          "indexed": false,
          "internalType": "uint256",
          "name": "amount",
          "type": "uint256"
        }
      ],
      "name": "MoveLeftOverToken",
      "type": "event"
    },
    {
      "anonymous": false,
      "inputs": [
        {
          "indexed": true,
          "internalType": "address",
          "name": "receiver",
          "type": "address"
        },
        {
          "indexed": false,
          "internalType": "address",
          "name": "prize",
          "type": "address"
        },
        {
          "indexed": false,
          "internalType": "uint256",
          "name": "amount",
          "type": "uint256"
        }
      ],
      "name": "MoveToken",
      "type": "event"
    },
    {
      "anonymous": false,
      "inputs": [
        {
          "indexed": true,
          "internalType": "bytes32",
          "name": "role",
          "type": "bytes32"
        },
        {
          "indexed": true,
          "internalType": "bytes32",
          "name": "previousAdminRole",
          "type": "bytes32"
        },
        {
          "indexed": true,
          "internalType": "bytes32",
          "name": "newAdminRole",
          "type": "bytes32"
        }
      ],
      "name": "RoleAdminChanged",
      "type": "event"
    },
    {
      "anonymous": false,
      "inputs": [
        {
          "indexed": true,
          "internalType": "bytes32",
          "name": "role",
          "type": "bytes32"
        },
        {
          "indexed": true,
          "internalType": "address",
          "name": "account",
          "type": "address"
        },
        {
          "indexed": true,
          "internalType": "address",
          "name": "sender",
          "type": "address"
        }
      ],
      "name": "RoleGranted",
      "type": "event"
    },
    {
      "anonymous": false,
      "inputs": [
        {
          "indexed": true,
          "internalType": "bytes32",
          "name": "role",
          "type": "bytes32"
        },
        {
          "indexed": true,
          "internalType": "address",
          "name": "account",
          "type": "address"
        },
        {
          "indexed": true,
          "internalType": "address",
          "name": "sender",
          "type": "address"
        }
      ],
      "name": "RoleRevoked",
      "type": "event"
    },
    {
      "inputs": [],
      "name": "DEFAULT_ADMIN_ROLE",
      "outputs": [
        {
          "internalType": "bytes32",
          "name": "",
          "type": "bytes32"
        }
      ],
      "stateMutability": "view",
      "type": "function"
    },
    {
      "inputs": [],
      "name": "battingToken",
      "outputs": [
        {
          "internalType": "contract IERC20",
          "name": "",
          "type": "address"
        }
      ],
      "stateMutability": "view",
      "type": "function"
    },
    {
      "inputs": [
        {
          "internalType": "bytes32",
          "name": "role",
          "type": "bytes32"
        }
      ],
      "name": "getRoleAdmin",
      "outputs": [
        {
          "internalType": "bytes32",
          "name": "",
          "type": "bytes32"
        }
      ],
      "stateMutability": "view",
      "type": "function"
    },
    {
      "inputs": [
        {
          "internalType": "bytes32",
          "name": "role",
          "type": "bytes32"
        },
        {
          "internalType": "address",
          "name": "account",
          "type": "address"
        }
      ],
      "name": "grantRole",
      "outputs": [],
      "stateMutability": "nonpayable",
      "type": "function"
    },
    {
      "inputs": [
        {
          "internalType": "bytes32",
          "name": "role",
          "type": "bytes32"
        },
        {
          "internalType": "address",
          "name": "account",
          "type": "address"
        }
      ],
      "name": "hasRole",
      "outputs": [
        {
          "internalType": "bool",
          "name": "",
          "type": "bool"
        }
      ],
      "stateMutability": "view",
      "type": "function"
    },
    {
      "inputs": [
        {
          "internalType": "address",
          "name": "_receiver",
          "type": "address"
        },
        {
          "components": [
            {
              "internalType": "enum IRaidPrize.PrizeType",
              "name": "prizeType",
              "type": "uint8"
            },
            {
              "internalType": "address",
              "name": "prize",
              "type": "address"
            },
            {
              "internalType": "uint256",
              "name": "id",
              "type": "uint256"
            },
            {
              "internalType": "uint256",
              "name": "quantity",
              "type": "uint256"
            }
          ],
          "internalType": "struct IRaidPrize.PrizeInfo",
          "name": "_prizeInfo",
          "type": "tuple"
        },
        {
          "internalType": "uint256",
          "name": "_maxParticipants",
          "type": "uint256"
        },
        {
          "internalType": "uint256",
          "name": "_totalParticipants",
          "type": "uint256"
        }
      ],
      "name": "moveLeftOverToken",
      "outputs": [],
      "stateMutability": "nonpayable",
      "type": "function"
    },
    {
      "inputs": [
        {
          "internalType": "address",
          "name": "_receiver",
          "type": "address"
        },
        {
          "components": [
            {
              "internalType": "enum IRaidPrize.PrizeType",
              "name": "prizeType",
              "type": "uint8"
            },
            {
              "internalType": "address",
              "name": "prize",
              "type": "address"
            },
            {
              "internalType": "uint256",
              "name": "id",
              "type": "uint256"
            },
            {
              "internalType": "uint256",
              "name": "quantity",
              "type": "uint256"
            }
          ],
          "internalType": "struct IRaidPrize.PrizeInfo",
          "name": "_prizeInfo",
          "type": "tuple"
        },
        {
          "internalType": "uint64",
          "name": "_participants",
          "type": "uint64"
        }
      ],
      "name": "moveToken",
      "outputs": [],
      "stateMutability": "nonpayable",
      "type": "function"
    },
    {
      "inputs": [
        {
          "internalType": "address",
          "name": "",
          "type": "address"
        },
        {
          "internalType": "address",
          "name": "",
          "type": "address"
        },
        {
          "internalType": "uint256[]",
          "name": "",
          "type": "uint256[]"
        },
        {
          "internalType": "uint256[]",
          "name": "",
          "type": "uint256[]"
        },
        {
          "internalType": "bytes",
          "name": "",
          "type": "bytes"
        }
      ],
      "name": "onERC1155BatchReceived",
      "outputs": [
        {
          "internalType": "bytes4",
          "name": "",
          "type": "bytes4"
        }
      ],
      "stateMutability": "nonpayable",
      "type": "function"
    },
    {
      "inputs": [
        {
          "internalType": "address",
          "name": "",
          "type": "address"
        },
        {
          "internalType": "address",
          "name": "",
          "type": "address"
        },
        {
          "internalType": "uint256",
          "name": "",
          "type": "uint256"
        },
        {
          "internalType": "uint256",
          "name": "",
          "type": "uint256"
        },
        {
          "internalType": "bytes",
          "name": "",
          "type": "bytes"
        }
      ],
      "name": "onERC1155Received",
      "outputs": [
        {
          "internalType": "bytes4",
          "name": "",
          "type": "bytes4"
        }
      ],
      "stateMutability": "nonpayable",
      "type": "function"
    },
    {
      "inputs": [
        {
          "internalType": "bytes32",
          "name": "role",
          "type": "bytes32"
        },
        {
          "internalType": "address",
          "name": "callerConfirmation",
          "type": "address"
        }
      ],
      "name": "renounceRole",
      "outputs": [],
      "stateMutability": "nonpayable",
      "type": "function"
    },
    {
      "inputs": [
        {
          "internalType": "bytes32",
          "name": "role",
          "type": "bytes32"
        },
        {
          "internalType": "address",
          "name": "account",
          "type": "address"
        }
      ],
      "name": "revokeRole",
      "outputs": [],
      "stateMutability": "nonpayable",
      "type": "function"
    },
    {
      "inputs": [
        {
          "internalType": "contract IERC20",
          "name": "_battingToken",
          "type": "address"
        }
      ],
      "name": "setBattingToken",
      "outputs": [],
      "stateMutability": "nonpayable",
      "type": "function"
    },
    {
      "inputs": [
        {
          "internalType": "bytes4",
          "name": "interfaceId",
          "type": "bytes4"
        }
      ],
      "name": "supportsInterface",
      "outputs": [
        {
          "internalType": "bool",
          "name": "",
          "type": "bool"
        }
      ],
      "stateMutability": "view",
      "type": "function"
    }
  ],
  "bytecode": "0x60806040523461002b5761001a6100146100ef565b906101a7565b60405161140a6102c2823961140a90f35b600080fd5b634e487b7160e01b600052604160045260246000fd5b90601f01601f191681019081106001600160401b0382111761006757604052565b610030565b9061008061007960405190565b9283610046565b565b6001600160a01b031690565b90565b6001600160a01b0381165b0361002b57565b9050519061008082610091565b6001600160a01b03811661009c565b90505190610080826100b0565b919060408382031261002b5761008e9060206100e882866100a3565b94016100bf565b61010d6116cc803803806101028161006c565b9283398101906100cc565b9091565b906001600160a01b03905b9181191691161790565b61008e90610082906001600160a01b031682565b61008e90610126565b61008e9061013a565b9061015c61008e61016392610143565b8254610111565b9055565b61008e61008e61008e9290565b61008e6000610167565b61008e7faf290d8680820aad922855f39b306097b20e28774d6c1ad35a20325630c3a02c610167565b906101b66101d692600161014c565b6101c86101c1610174565b3390610213565b506101d161017e565b610213565b50565b905b600052602052604060002090565b906101db90610143565b9060ff9061011c565b9061020c61008e61016392151590565b82546101f3565b610224610220838361029e565b1590565b1561029757610249600161024484600061023e86826101d9565b016101e9565b6101fc565b61026361025d610257339390565b93610143565b91610143565b917f2f8788117e7eff1d82e926ec794901d17c78024a50270940304540a733656f0d61028e60405190565b600090a4600190565b5050600090565b61008e91600061023e6102ba936102b3600090565b50826101d9565b5460ff169056fe6080604052600436101561001257600080fd5b60003560e01c806301ffc9a7146100e2578063248a9ca3146100dd5780632f2ff15d146100d857806336568abe146100d35780634afb356e146100ce57806373bf1c34146100c95780638c135c4b146100c457806391d14854146100bf578063a217fddf146100ba578063bc197c81146100b5578063d547741f146100b0578063ed52b575146100ab5763f23a6e610361011257610794565b61073b565b61070e565b6106bc565b61050a565b6104cf565b6104b3565b61045e565b6102f1565b610247565b610229565b610199565b610141565b7fffffffff0000000000000000000000000000000000000000000000000000000081165b0361011257565b600080fd5b90503590610124826100e7565b565b906020828203126101125761013a91610117565b90565b9052565b346101125761016e61015c610157366004610126565b6107b3565b60405191829182901515815260200190565b0390f35b8061010b565b9050359061012482610172565b906020828203126101125761013a91610178565b346101125761016e6101b46101af366004610185565b6107dd565b6040519182918290815260200190565b73ffffffffffffffffffffffffffffffffffffffff1690565b73ffffffffffffffffffffffffffffffffffffffff811661010b565b90503590610124826101dd565b91906040838203126101125761013a9060206102228286610178565b94016101f9565b346101125761024261023c366004610206565b9061081f565b604051005b346101125761024261025a366004610206565b90610829565b600091031261011257565b61013a916008021c73ffffffffffffffffffffffffffffffffffffffff1690565b9061013a915461026b565b61013a6000600161028c565b6101c461013a61013a9273ffffffffffffffffffffffffffffffffffffffff1690565b61013a906102a3565b61013a906102c6565b61013d906102cf565b60208101929161012491906102d8565b3461011257610301366004610260565b61016e61030c610297565b604051918291826102e1565b7f4e487b7100000000000000000000000000000000000000000000000000000000600052604160045260246000fd5b90601f017fffffffffffffffffffffffffffffffffffffffffffffffffffffffffffffffe016810190811067ffffffffffffffff82111761038757604052565b610318565b9061012461039960405190565b9283610347565b6002111561011257565b90503590610124826103a0565b91906080838203126101125761040a9060606103d3608061038c565b946103de83826103aa565b86526103ed83602083016101f9565b60208701526103ff8360408301610178565b604087015201610178565b6060830152565b67ffffffffffffffff811661010b565b9050359061012482610411565b909160c0828403126101125761013a61044784846101f9565b9360a061045782602087016103b7565b9401610421565b346101125761024261047136600461042e565b91610d6b565b60e0818303126101125761048b82826101f9565b9261013a61049c84602085016103b7565b9360c06104ac8260a08701610178565b9401610178565b34610112576102426104c6366004610477565b9291909161102a565b346101125761016e61015c6104e5366004610206565b90611040565b61013a61013a61013a9290565b61013a60006104eb565b61013a6104f8565b346101125761051a366004610260565b61016e6101b4610502565b67ffffffffffffffff81116103875760208091020190565b9092919261055261054d82610525565b61038c565b938185526020808601920283019281841161011257915b8383106105765750505050565b602080916105848486610178565b815201920191610569565b9080601f830112156101125781602061013a9335910161053d565b67ffffffffffffffff811161038757602090601f017fffffffffffffffffffffffffffffffffffffffffffffffffffffffffffffffe0160190565b90826000939282370152565b9092919261060161054d826105aa565b9381855281830111610112576101249160208501906105e5565b9080601f830112156101125781602061013a933591016105f1565b91909160a0818403126101125761064d83826101f9565b9261065b81602084016101f9565b92604083013567ffffffffffffffff8111610112578261067c91850161058f565b92606081013567ffffffffffffffff8111610112578361069d91830161058f565b92608082013567ffffffffffffffff81116101125761013a920161061b565b346101125761016e6106db6106d2366004610636565b939290926110a7565b604051918291827fffffffff00000000000000000000000000000000000000000000000000000000909116815260200190565b3461011257610242610721366004610206565b906110dd565b906020828203126101125761013a916101f9565b346101125761024261074e366004610727565b61116c565b91909160a0818403126101125761076a83826101f9565b9261077881602084016101f9565b926107868260408501610178565b9261069d8360608301610178565b346101125761016e6106db6107aa366004610753565b93929092611175565b61013a90611190565b905b600052602052604060002090565b61013a9081565b61013a90546107cc565b60016107f661013a926107ee600090565b5060006107bc565b016107d3565b906101249161081261080d826107dd565b6111ea565b9061081c91611215565b50565b90610124916107fc565b90610833336101c4565b73ffffffffffffffffffffffffffffffffffffffff8216036108585761081c91611294565b7f6697b23200000000000000000000000000000000000000000000000000000000600090815260045b036000fd5b61013a7f85faced7bde13e1a7dad704b895f006e704f207617d68166b31ba2d79624862d6104eb565b9061012492916108c061080d610886565b610aa2565b7f4e487b7100000000000000000000000000000000000000000000000000000000600052602160045260246000fd5b600211156108fe57565b6108c5565b90610124826108f4565b61013a9051610903565b61013d906104eb565b73ffffffffffffffffffffffffffffffffffffffff909116815261013a9360a08201939192610980926109769161096f905b73ffffffffffffffffffffffffffffffffffffffff166020870152565b6040850152565b6060830190610917565b60808183039101526000815260200190565b6040513d6000823e3d90fd5b73ffffffffffffffffffffffffffffffffffffffff90911681526040810192916101249160200190610917565b61013a61013a61013a9267ffffffffffffffff1690565b7f4e487b7100000000000000000000000000000000000000000000000000000000600052601260045260246000fd5b7f4e487b7100000000000000000000000000000000000000000000000000000000600052601160045260246000fd5b8115610a4a570490565b6109e2565b80151561010b565b9050519061012482610a4f565b906020828203126101125761013a91610a57565b73ffffffffffffffffffffffffffffffffffffffff90911681526040810192916101249160200152565b9190610aad8161090d565b91600092610ac3610abd85610903565b91610903565b03610bfe57610ae8602091610ae2610adc606086015190565b916109cb565b90610a40565b9101916020610b16610b11610b11865173ffffffffffffffffffffffffffffffffffffffff1690565b6102cf565b91610b2060405190565b92839182907fa9059cbb00000000000000000000000000000000000000000000000000000000825281610b57888b60048401610a78565b03925af18015610bf9577f455773c05d9122f5b7f3f0d9b4849e4e66ed717b9b767fd77036a08ab601c5e393610bb192610bab92610bcc575b505173ffffffffffffffffffffffffffffffffffffffff1690565b936102cf565b92610bc7610bbe60405190565b92839283610a78565b0390a2565b610bed9060203d602011610bf2575b610be58183610347565b810190610a64565b610b90565b503d610bdb565b610992565b5090610c0b81830161090d565b610c18610abd6001610903565b03610d43576020820191610c46610b11610b11855173ffffffffffffffffffffffffffffffffffffffff1690565b90610c5b6040610c55306102cf565b92015190565b823b156101125760019286858094610ca8610c7560405190565b978896879586947ff242432a00000000000000000000000000000000000000000000000000000000865260048601610920565b03925af18015610bf9577f455773c05d9122f5b7f3f0d9b4849e4e66ed717b9b767fd77036a08ab601c5e393600193610d0093610bab93610d16575b50505173ffffffffffffffffffffffffffffffffffffffff1690565b92610bc7610d0d60405190565b9283928361099e565b81610d3592903d10610d3c575b610d2d8183610347565b810190610260565b3880610ce4565b503d610d23565b7fb9688461000000000000000000000000000000000000000000000000000000008152600490fd5b9061012492916108af565b90610124939291610d8861080d610886565b610de8565b91908203918211610d9a57565b610a11565b73ffffffffffffffffffffffffffffffffffffffff909116815261013a9360a082019391926109809261040a9161096f90610952565b81810292918115918404141715610d9a57565b92610df28261090d565b92600093610e02610abd86610903565b03610ef757610e3a90610e34602093610e2e610e296060880194610e24865190565b610a40565b935190565b92610dd5565b90610d8d565b9101916020610e63610b11610b11865173ffffffffffffffffffffffffffffffffffffffff1690565b91610e6d60405190565b92839182907fa9059cbb00000000000000000000000000000000000000000000000000000000825281610ea4888b60048401610a78565b03925af18015610bf9577fd71be4250a10d090de1a091df14ba1a665f81355b03678f6f099bb052e75494793610bb192610bab92610bcc57505173ffffffffffffffffffffffffffffffffffffffff1690565b50610f0383830161090d565b610f10610abd6001610903565b0361100257610f2990610f24606084015190565b610d8d565b9060208101610f52610b11610b11835173ffffffffffffffffffffffffffffffffffffffff1690565b91610f616040610c55306102cf565b833b1561011257849387878094610fad610f7a60405190565b988996879586947ff242432a00000000000000000000000000000000000000000000000000000000865260048601610d9f565b03925af1908115610bf9577fd71be4250a10d090de1a091df14ba1a665f81355b03678f6f099bb052e75494794610bb193610bab93610d165750505173ffffffffffffffffffffffffffffffffffffffff1690565b7fb9688461000000000000000000000000000000000000000000000000000000008352600483fd5b90610124939291610d76565b906107be906102cf565b61013a91600061105c61106293611055600090565b50826107bc565b01611036565b5460ff1690565b61108261107c61013a9263ffffffff1690565b60e01b90565b7fffffffff000000000000000000000000000000000000000000000000000000001690565b50505050506110b4600090565b5061013a63bc197c81611069565b90610124916110d361080d826107dd565b9061081c91611294565b90610124916110c2565b61013a7faf290d8680820aad922855f39b306097b20e28774d6c1ad35a20325630c3a02c6104eb565b6101249061111f61080d6110e7565b611161565b9073ffffffffffffffffffffffffffffffffffffffff905b9181191691161790565b9061115661013a61115d926102cf565b8254611124565b9055565b610124906001611146565b61012490611110565b5050505050611182600090565b5061013a63f23a6e61611069565b7f4e2312e0000000000000000000000000000000000000000000000000000000007fffffffff000000000000000000000000000000000000000000000000000000008216149081156111e0575090565b61013a91506112f0565b61012490339061138c565b9060ff9061113c565b9061120e61013a61115d92151590565b82546111f5565b6112266112228383611040565b1590565b1561128d57611245600161124084600061105c86826107bc565b6111fe565b611259611253610bab339390565b916102cf565b917f2f8788117e7eff1d82e926ec794901d17c78024a50270940304540a733656f0d61128460405190565b600090a4600190565b5050600090565b61129e8282611040565b1561128d576112b76000611240848261105c86826107bc565b6112c5611253610bab339390565b917ff6391f5c32d9c69d2a47ea670b442974b53935d1edc7fd64eb21e047a839171b61128460405190565b7f7965db0b000000000000000000000000000000000000000000000000000000007fffffffff00000000000000000000000000000000000000000000000000000000821614908115611340575090565b61013a91507fffffffff00000000000000000000000000000000000000000000000000000000167f01ffc9a7000000000000000000000000000000000000000000000000000000001490565b9061139a6112228284611040565b6113a2575050565b7fe2517d3f00000000000000000000000000000000000000000000000000000000600090815291610881916004610a7856fea264697066735822122009315aedf7998a044356a69111b53cb69ea6fa182ba873d942693b59351ee4e764736f6c634300081c0033",
  "linkReferences": {},
  "deployedLinkReferences": {}
}