{
  "_format": "hh-sol-artifact-1",
  "contractName": "Items",
  "sourceName": "contracts/items/items.sol",
  "abi": [
    {
      "inputs": [
        {
          "internalType": "contract IGasback",
          "name": "_gasback",
          "type": "address"
        },
        {
          "internalType": "contract IERC20",
          "name": "_token",
          "type": "address"
        },
        {
          "internalType": "address",
          "name": "_item_minter",
          "type": "address"
        },
        {
          "internalType": "address",
          "name": "_teamVault",
          "type": "address"
        }
      ],
      "stateMutability": "nonpayable",
      "type": "constructor"
    },
    {
      "inputs": [],
      "name": "AccessControlBadConfirmation",
      "type": "error"
    },
    {
      "inputs": [
        {
          "internalType": "address",
          "name": "account",
          "type": "address"
        },
        {
          "internalType": "bytes32",
          "name": "neededRole",
          "type": "bytes32"
        }
      ],
      "name": "AccessControlUnauthorizedAccount",
      "type": "error"
    },
    {
      "inputs": [
        {
          "internalType": "address",
          "name": "sender",
          "type": "address"
        },
        {
          "internalType": "uint256",
          "name": "balance",
          "type": "uint256"
        },
        {
          "internalType": "uint256",
          "name": "needed",
          "type": "uint256"
        },
        {
          "internalType": "uint256",
          "name": "tokenId",
          "type": "uint256"
        }
      ],
      "name": "ERC1155InsufficientBalance",
      "type": "error"
    },
    {
      "inputs": [
        {
          "internalType": "address",
          "name": "approver",
          "type": "address"
        }
      ],
      "name": "ERC1155InvalidApprover",
      "type": "error"
    },
    {
      "inputs": [
        {
          "internalType": "uint256",
          "name": "idsLength",
          "type": "uint256"
        },
        {
          "internalType": "uint256",
          "name": "valuesLength",
          "type": "uint256"
        }
      ],
      "name": "ERC1155InvalidArrayLength",
      "type": "error"
    },
    {
      "inputs": [
        {
          "internalType": "address",
          "name": "operator",
          "type": "address"
        }
      ],
      "name": "ERC1155InvalidOperator",
      "type": "error"
    },
    {
      "inputs": [
        {
          "internalType": "address",
          "name": "receiver",
          "type": "address"
        }
      ],
      "name": "ERC1155InvalidReceiver",
      "type": "error"
    },
    {
      "inputs": [
        {
          "internalType": "address",
          "name": "sender",
          "type": "address"
        }
      ],
      "name": "ERC1155InvalidSender",
      "type": "error"
    },
    {
      "inputs": [
        {
          "internalType": "address",
          "name": "operator",
          "type": "address"
        },
        {
          "internalType": "address",
          "name": "owner",
          "type": "address"
        }
      ],
      "name": "ERC1155MissingApprovalForAll",
      "type": "error"
    },
    {
      "inputs": [],
      "name": "UnregisteredItem",
      "type": "error"
    },
    {
      "anonymous": false,
      "inputs": [
        {
          "indexed": true,
          "internalType": "address",
          "name": "account",
          "type": "address"
        },
        {
          "indexed": true,
          "internalType": "address",
          "name": "operator",
          "type": "address"
        },
        {
          "indexed": false,
          "internalType": "bool",
          "name": "approved",
          "type": "bool"
        }
      ],
      "name": "ApprovalForAll",
      "type": "event"
    },
    {
      "anonymous": false,
      "inputs": [
        {
          "indexed": true,
          "internalType": "address",
          "name": "user",
          "type": "address"
        },
        {
          "indexed": false,
          "internalType": "uint256",
          "name": "quantity",
          "type": "uint256"
        }
      ],
      "name": "ItemMinted",
      "type": "event"
    },
    {
      "anonymous": false,
      "inputs": [
        {
          "indexed": true,
          "internalType": "address",
          "name": "user",
          "type": "address"
        },
        {
          "indexed": false,
          "internalType": "uint256",
          "name": "quantity",
          "type": "uint256"
        }
      ],
      "name": "MintRequested",
      "type": "event"
    },
    {
      "anonymous": false,
      "inputs": [
        {
          "indexed": true,
          "internalType": "bytes32",
          "name": "role",
          "type": "bytes32"
        },
        {
          "indexed": true,
          "internalType": "bytes32",
          "name": "previousAdminRole",
          "type": "bytes32"
        },
        {
          "indexed": true,
          "internalType": "bytes32",
          "name": "newAdminRole",
          "type": "bytes32"
        }
      ],
      "name": "RoleAdminChanged",
      "type": "event"
    },
    {
      "anonymous": false,
      "inputs": [
        {
          "indexed": true,
          "internalType": "bytes32",
          "name": "role",
          "type": "bytes32"
        },
        {
          "indexed": true,
          "internalType": "address",
          "name": "account",
          "type": "address"
        },
        {
          "indexed": true,
          "internalType": "address",
          "name": "sender",
          "type": "address"
        }
      ],
      "name": "RoleGranted",
      "type": "event"
    },
    {
      "anonymous": false,
      "inputs": [
        {
          "indexed": true,
          "internalType": "bytes32",
          "name": "role",
          "type": "bytes32"
        },
        {
          "indexed": true,
          "internalType": "address",
          "name": "account",
          "type": "address"
        },
        {
          "indexed": true,
          "internalType": "address",
          "name": "sender",
          "type": "address"
        }
      ],
      "name": "RoleRevoked",
      "type": "event"
    },
    {
      "anonymous": false,
      "inputs": [
        {
          "indexed": true,
          "internalType": "address",
          "name": "operator",
          "type": "address"
        },
        {
          "indexed": true,
          "internalType": "address",
          "name": "from",
          "type": "address"
        },
        {
          "indexed": true,
          "internalType": "address",
          "name": "to",
          "type": "address"
        },
        {
          "indexed": false,
          "internalType": "uint256[]",
          "name": "ids",
          "type": "uint256[]"
        },
        {
          "indexed": false,
          "internalType": "uint256[]",
          "name": "values",
          "type": "uint256[]"
        }
      ],
      "name": "TransferBatch",
      "type": "event"
    },
    {
      "anonymous": false,
      "inputs": [
        {
          "indexed": true,
          "internalType": "address",
          "name": "operator",
          "type": "address"
        },
        {
          "indexed": true,
          "internalType": "address",
          "name": "from",
          "type": "address"
        },
        {
          "indexed": true,
          "internalType": "address",
          "name": "to",
          "type": "address"
        },
        {
          "indexed": false,
          "internalType": "uint256",
          "name": "id",
          "type": "uint256"
        },
        {
          "indexed": false,
          "internalType": "uint256",
          "name": "value",
          "type": "uint256"
        }
      ],
      "name": "TransferSingle",
      "type": "event"
    },
    {
      "anonymous": false,
      "inputs": [
        {
          "indexed": false,
          "internalType": "string",
          "name": "value",
          "type": "string"
        },
        {
          "indexed": true,
          "internalType": "uint256",
          "name": "id",
          "type": "uint256"
        }
      ],
      "name": "URI",
      "type": "event"
    },
    {
      "inputs": [],
      "name": "DEFAULT_ADMIN_ROLE",
      "outputs": [
        {
          "internalType": "bytes32",
          "name": "",
          "type": "bytes32"
        }
      ],
      "stateMutability": "view",
      "type": "function"
    },
    {
      "inputs": [
        {
          "internalType": "address",
          "name": "account",
          "type": "address"
        },
        {
          "internalType": "uint256",
          "name": "id",
          "type": "uint256"
        }
      ],
      "name": "balanceOf",
      "outputs": [
        {
          "internalType": "uint256",
          "name": "",
          "type": "uint256"
        }
      ],
      "stateMutability": "view",
      "type": "function"
    },
    {
      "inputs": [
        {
          "internalType": "address[]",
          "name": "accounts",
          "type": "address[]"
        },
        {
          "internalType": "uint256[]",
          "name": "ids",
          "type": "uint256[]"
        }
      ],
      "name": "balanceOfBatch",
      "outputs": [
        {
          "internalType": "uint256[]",
          "name": "",
          "type": "uint256[]"
        }
      ],
      "stateMutability": "view",
      "type": "function"
    },
    {
      "inputs": [],
      "name": "baseURI",
      "outputs": [
        {
          "internalType": "string",
          "name": "",
          "type": "string"
        }
      ],
      "stateMutability": "view",
      "type": "function"
    },
    {
      "inputs": [],
      "name": "gasback",
      "outputs": [
        {
          "internalType": "contract IGasback",
          "name": "",
          "type": "address"
        }
      ],
      "stateMutability": "view",
      "type": "function"
    },
    {
      "inputs": [
        {
          "internalType": "uint256[]",
          "name": "_idList",
          "type": "uint256[]"
        }
      ],
      "name": "getItemInfoList",
      "outputs": [
        {
          "components": [
            {
              "components": [
                {
                  "internalType": "int64",
                  "name": "atk",
                  "type": "int64"
                },
                {
                  "internalType": "int64",
                  "name": "def",
                  "type": "int64"
                },
                {
                  "internalType": "int64",
                  "name": "spd",
                  "type": "int64"
                },
                {
                  "internalType": "uint64",
                  "name": "dur",
                  "type": "uint64"
                }
              ],
              "internalType": "struct Items.Stats",
              "name": "stats",
              "type": "tuple"
            },
            {
              "internalType": "uint256",
              "name": "price",
              "type": "uint256"
            },
            {
              "internalType": "bool",
              "name": "registered",
              "type": "bool"
            }
          ],
          "internalType": "struct Items.Item[]",
          "name": "_itemInfoList",
          "type": "tuple[]"
        }
      ],
      "stateMutability": "view",
      "type": "function"
    },
    {
      "inputs": [
        {
          "internalType": "uint256[]",
          "name": "_idList",
          "type": "uint256[]"
        }
      ],
      "name": "getPriceList",
      "outputs": [
        {
          "internalType": "uint256[]",
          "name": "_priceList",
          "type": "uint256[]"
        }
      ],
      "stateMutability": "view",
      "type": "function"
    },
    {
      "inputs": [
        {
          "internalType": "bytes32",
          "name": "role",
          "type": "bytes32"
        }
      ],
      "name": "getRoleAdmin",
      "outputs": [
        {
          "internalType": "bytes32",
          "name": "",
          "type": "bytes32"
        }
      ],
      "stateMutability": "view",
      "type": "function"
    },
    {
      "inputs": [
        {
          "internalType": "uint256[]",
          "name": "_idList",
          "type": "uint256[]"
        }
      ],
      "name": "getStatList",
      "outputs": [
        {
          "components": [
            {
              "internalType": "int64",
              "name": "atk",
              "type": "int64"
            },
            {
              "internalType": "int64",
              "name": "def",
              "type": "int64"
            },
            {
              "internalType": "int64",
              "name": "spd",
              "type": "int64"
            },
            {
              "internalType": "uint64",
              "name": "dur",
              "type": "uint64"
            }
          ],
          "internalType": "struct Items.Stats[]",
          "name": "_statList",
          "type": "tuple[]"
        }
      ],
      "stateMutability": "view",
      "type": "function"
    },
    {
      "inputs": [
        {
          "internalType": "bytes32",
          "name": "role",
          "type": "bytes32"
        },
        {
          "internalType": "address",
          "name": "account",
          "type": "address"
        }
      ],
      "name": "grantRole",
      "outputs": [],
      "stateMutability": "nonpayable",
      "type": "function"
    },
    {
      "inputs": [
        {
          "internalType": "bytes32",
          "name": "role",
          "type": "bytes32"
        },
        {
          "internalType": "address",
          "name": "account",
          "type": "address"
        }
      ],
      "name": "hasRole",
      "outputs": [
        {
          "internalType": "bool",
          "name": "",
          "type": "bool"
        }
      ],
      "stateMutability": "view",
      "type": "function"
    },
    {
      "inputs": [
        {
          "internalType": "uint256[]",
          "name": "_idList",
          "type": "uint256[]"
        },
        {
          "internalType": "uint256[]",
          "name": "_priceList",
          "type": "uint256[]"
        },
        {
          "components": [
            {
              "internalType": "int64",
              "name": "atk",
              "type": "int64"
            },
            {
              "internalType": "int64",
              "name": "def",
              "type": "int64"
            },
            {
              "internalType": "int64",
              "name": "spd",
              "type": "int64"
            },
            {
              "internalType": "uint64",
              "name": "dur",
              "type": "uint64"
            }
          ],
          "internalType": "struct Items.Stats[]",
          "name": "_statsList",
          "type": "tuple[]"
        }
      ],
      "name": "initializeItems",
      "outputs": [],
      "stateMutability": "nonpayable",
      "type": "function"
    },
    {
      "inputs": [
        {
          "internalType": "address",
          "name": "account",
          "type": "address"
        },
        {
          "internalType": "address",
          "name": "operator",
          "type": "address"
        }
      ],
      "name": "isApprovedForAll",
      "outputs": [
        {
          "internalType": "bool",
          "name": "",
          "type": "bool"
        }
      ],
      "stateMutability": "view",
      "type": "function"
    },
    {
      "inputs": [
        {
          "internalType": "uint256",
          "name": "",
          "type": "uint256"
        }
      ],
      "name": "itemInfo",
      "outputs": [
        {
          "components": [
            {
              "internalType": "int64",
              "name": "atk",
              "type": "int64"
            },
            {
              "internalType": "int64",
              "name": "def",
              "type": "int64"
            },
            {
              "internalType": "int64",
              "name": "spd",
              "type": "int64"
            },
            {
              "internalType": "uint64",
              "name": "dur",
              "type": "uint64"
            }
          ],
          "internalType": "struct Items.Stats",
          "name": "stats",
          "type": "tuple"
        },
        {
          "internalType": "uint256",
          "name": "price",
          "type": "uint256"
        },
        {
          "internalType": "bool",
          "name": "registered",
          "type": "bool"
        }
      ],
      "stateMutability": "view",
      "type": "function"
    },
    {
      "inputs": [
        {
          "internalType": "uint256",
          "name": "_id",
          "type": "uint256"
        },
        {
          "internalType": "uint256",
          "name": "_quantity",
          "type": "uint256"
        }
      ],
      "name": "mintItems",
      "outputs": [],
      "stateMutability": "nonpayable",
      "type": "function"
    },
    {
      "inputs": [],
      "name": "owner",
      "outputs": [
        {
          "internalType": "address",
          "name": "",
          "type": "address"
        }
      ],
      "stateMutability": "view",
      "type": "function"
    },
    {
      "inputs": [],
      "name": "registerForGasback",
      "outputs": [],
      "stateMutability": "nonpayable",
      "type": "function"
    },
    {
      "inputs": [
        {
          "internalType": "bytes32",
          "name": "role",
          "type": "bytes32"
        },
        {
          "internalType": "address",
          "name": "callerConfirmation",
          "type": "address"
        }
      ],
      "name": "renounceRole",
      "outputs": [],
      "stateMutability": "nonpayable",
      "type": "function"
    },
    {
      "inputs": [
        {
          "internalType": "bytes32",
          "name": "role",
          "type": "bytes32"
        },
        {
          "internalType": "address",
          "name": "account",
          "type": "address"
        }
      ],
      "name": "revokeRole",
      "outputs": [],
      "stateMutability": "nonpayable",
      "type": "function"
    },
    {
      "inputs": [
        {
          "internalType": "address",
          "name": "from",
          "type": "address"
        },
        {
          "internalType": "address",
          "name": "to",
          "type": "address"
        },
        {
          "internalType": "uint256[]",
          "name": "ids",
          "type": "uint256[]"
        },
        {
          "internalType": "uint256[]",
          "name": "values",
          "type": "uint256[]"
        },
        {
          "internalType": "bytes",
          "name": "data",
          "type": "bytes"
        }
      ],
      "name": "safeBatchTransferFrom",
      "outputs": [],
      "stateMutability": "nonpayable",
      "type": "function"
    },
    {
      "inputs": [
        {
          "internalType": "address",
          "name": "from",
          "type": "address"
        },
        {
          "internalType": "address",
          "name": "to",
          "type": "address"
        },
        {
          "internalType": "uint256",
          "name": "id",
          "type": "uint256"
        },
        {
          "internalType": "uint256",
          "name": "value",
          "type": "uint256"
        },
        {
          "internalType": "bytes",
          "name": "data",
          "type": "bytes"
        }
      ],
      "name": "safeTransferFrom",
      "outputs": [],
      "stateMutability": "nonpayable",
      "type": "function"
    },
    {
      "inputs": [
        {
          "internalType": "address",
          "name": "operator",
          "type": "address"
        },
        {
          "internalType": "bool",
          "name": "approved",
          "type": "bool"
        }
      ],
      "name": "setApprovalForAll",
      "outputs": [],
      "stateMutability": "nonpayable",
      "type": "function"
    },
    {
      "inputs": [
        {
          "internalType": "string",
          "name": "_baseURI",
          "type": "string"
        }
      ],
      "name": "setBaseURI",
      "outputs": [],
      "stateMutability": "nonpayable",
      "type": "function"
    },
    {
      "inputs": [
        {
          "internalType": "address",
          "name": "_owner",
          "type": "address"
        }
      ],
      "name": "setOwner",
      "outputs": [],
      "stateMutability": "nonpayable",
      "type": "function"
    },
    {
      "inputs": [
        {
          "internalType": "uint256[]",
          "name": "_idList",
          "type": "uint256[]"
        },
        {
          "internalType": "uint256[]",
          "name": "_priceList",
          "type": "uint256[]"
        }
      ],
      "name": "setPrices",
      "outputs": [],
      "stateMutability": "nonpayable",
      "type": "function"
    },
    {
      "inputs": [
        {
          "internalType": "uint256[]",
          "name": "_idList",
          "type": "uint256[]"
        },
        {
          "components": [
            {
              "internalType": "int64",
              "name": "atk",
              "type": "int64"
            },
            {
              "internalType": "int64",
              "name": "def",
              "type": "int64"
            },
            {
              "internalType": "int64",
              "name": "spd",
              "type": "int64"
            },
            {
              "internalType": "uint64",
              "name": "dur",
              "type": "uint64"
            }
          ],
          "internalType": "struct Items.Stats[]",
          "name": "_statsList",
          "type": "tuple[]"
        }
      ],
      "name": "setStats",
      "outputs": [],
      "stateMutability": "nonpayable",
      "type": "function"
    },
    {
      "inputs": [
        {
          "internalType": "address",
          "name": "_teamVault",
          "type": "address"
        }
      ],
      "name": "setTeamVault",
      "outputs": [],
      "stateMutability": "nonpayable",
      "type": "function"
    },
    {
      "inputs": [
        {
          "internalType": "contract IERC20",
          "name": "_token",
          "type": "address"
        }
      ],
      "name": "setToken",
      "outputs": [],
      "stateMutability": "nonpayable",
      "type": "function"
    },
    {
      "inputs": [
        {
          "internalType": "bytes4",
          "name": "interfaceId",
          "type": "bytes4"
        }
      ],
      "name": "supportsInterface",
      "outputs": [
        {
          "internalType": "bool",
          "name": "",
          "type": "bool"
        }
      ],
      "stateMutability": "view",
      "type": "function"
    },
    {
      "inputs": [],
      "name": "teamVault",
      "outputs": [
        {
          "internalType": "address",
          "name": "",
          "type": "address"
        }
      ],
      "stateMutability": "view",
      "type": "function"
    },
    {
      "inputs": [],
      "name": "token",
      "outputs": [
        {
          "internalType": "contract IERC20",
          "name": "",
          "type": "address"
        }
      ],
      "stateMutability": "view",
      "type": "function"
    },
    {
      "inputs": [
        {
          "internalType": "uint256",
          "name": "_tokenId",
          "type": "uint256"
        }
      ],
      "name": "uri",
      "outputs": [
        {
          "internalType": "string",
          "name": "",
          "type": "string"
        }
      ],
      "stateMutability": "view",
      "type": "function"
    }
  ],
  "bytecode": "0x60a06040523461003e5761001d61001461011b565b92919091610243565b60405161337161056e8239608051818181610ef70152611ff7015261337190f35b600080fd5b634e487b7160e01b600052604160045260246000fd5b90601f01601f191681019081106001600160401b0382111761007a57604052565b610043565b9061009361008c60405190565b9283610059565b565b6001600160a01b031690565b90565b6001600160a01b0381165b0361003e57565b90505190610093826100a4565b6001600160a01b0381166100af565b90505190610093826100c3565b60808183031261003e576100f382826100b6565b926100a161010484602085016100b6565b93606061011482604087016100d2565b94016100d2565b6101396138df8038038061012e8161007f565b9283398101906100df565b90919293565b6001600160401b03811161007a57602090601f01601f19160190565b9061016d6101688361013f565b61007f565b918252565b6100a1600061015b565b6100a1610172565b906001600160a01b03905b9181191691161790565b6100a190610095906001600160a01b031682565b6100a190610199565b6100a1906101ad565b906101cf6100a16101d6926101b6565b8254610184565b9055565b6100a16100a16100a19290565b6100a160006101da565b6100a17faf290d8680820aad922855f39b306097b20e28774d6c1ad35a20325630c3a02c6101da565b6100a17f262c70cb68844873654dc54487b634cb00850c1e13c785cd0d96a2b89b8294726101da565b9261027461027b926102a79561025f61025a61017c565b6102aa565b60805261026d3360066101bf565b60076101bf565b60056101bf565b61028d6102866101e7565b33906102f1565b506102996102866101f1565b506102a261021a565b6102f1565b50565b610093906100939061053e565b905b600052602052604060002090565b906102b9906101b6565b9060ff9061018f565b906102ea6100a16101d692151590565b82546102d1565b6103026102fe8383610549565b1590565b1561037657610328600161032384600061031d8660036102b7565b016102c7565b6102da565b61034261033c610336339390565b936101b6565b916101b6565b917f2f8788117e7eff1d82e926ec794901d17c78024a50270940304540a733656f0d61036d60405190565b600090a4600190565b5050600090565b634e487b7160e01b600052602260045260246000fd5b90600160028304921680156103b3575b60208310146103ae57565b61037d565b91607f16916103a3565b9160001960089290920291821b911b61018f565b91906103e26100a16101d6936101da565b9083546103bd565b610093916000916103d1565b818110610401575050565b8061040f60006001936103ea565b016103f6565b9190601f811161042457505050565b61043661009393600052602060002090565b906020601f840181900483019310610458575b6020601f9091010401906103f6565b9091508190610449565b9061046b815190565b906001600160401b03821161007a5761048e826104888554610393565b85610415565b602090601f83116001146104c9576101d69291600091836104be575b5050600019600883021c1916906002021790565b0151905038806104aa565b601f198316916104de85600052602060002090565b9260005b81811061051c57509160029391856001969410610503575b50505002019055565b01516000196008601f8516021c191690553880806104fa565b919360206001819287870151815501950192016104e2565b9061009391610462565b610093906002610534565b6100a191600061031d6105669361055e600090565b5060036102b7565b5460ff169056fe6080604052600436101561001257600080fd5b60003560e01c8062fdd58e1461021157806301ffc9a71461020c5780630ca55479146102075780630e89341c1461020257806313af4035146101fd578063144fa6d7146101f85780631516bbc4146101f3578063248a9ca3146101ee5780632dd2399e146101e95780632eb2c2d6146101e45780632f2ff15d146101df57806336568abe146101da5780634e1273f4146101d557806355f804b3146101d057806365598f0b146101cb5780636c0360eb146101c657806381239feb146101c15780638ab5212b146101bc5780638d280da5146101b75780638da5cb5b146101b257806391d14854146101ad5780639423659d146101a8578063a217fddf146101a3578063a22cb4651461019e578063b6b58ed614610199578063bb0b25d814610194578063d05eaae01461018f578063d547741f1461018a578063e985e9c514610185578063f242432a14610180578063fc0c546a1461017b5763fd2e997e03610251576111bf565b611043565b61101b565b610fbe565b610f89565b610f6d565b610ee2565b610e75565b610df0565b610d9d565b610d66565b610d4a565b610d2f565b610d07565b610c4b565b610beb565b610b44565b6109c4565b6109ac565b61095e565b610845565b61082c565b6107ed565b6105e2565b6104c0565b6104a8565b610490565b61043b565b610400565b610362565b610318565b61029f565b73ffffffffffffffffffffffffffffffffffffffff1690565b90565b73ffffffffffffffffffffffffffffffffffffffff81165b0361025157565b600080fd5b9050359061026382610232565b565b8061024a565b9050359061026382610265565b91906040838203126102515761022f9060206102948286610256565b940161026b565b9052565b34610251576102cb6102bb6102b5366004610278565b906111f3565b6040519182918290815260200190565b0390f35b7fffffffff00000000000000000000000000000000000000000000000000000000811661024a565b90503590610263826102cf565b906020828203126102515761022f916102f7565b34610251576102cb61033361032e366004610304565b611218565b6040515b91829182901515815260200190565b91906040838203126102515761022f906020610294828661026b565b346102515761037b610375366004610346565b906112ee565b604051005b906020828203126102515761022f9161026b565b60005b8381106103a75750506000910152565b8181015183820152602001610397565b6103d86103e16020936103eb936103cc815190565b80835293849260200190565b95869101610394565b601f01601f191690565b0190565b602080825261022f929101906103b7565b34610251576102cb61041b610416366004610380565b611554565b604051918291826103ef565b906020828203126102515761022f91610256565b346102515761037b61044e366004610427565b6115f2565b73ffffffffffffffffffffffffffffffffffffffff811661024a565b9050359061026382610453565b906020828203126102515761022f9161046f565b346102515761037b6104a336600461047c565b61163e565b346102515761037b6104bb366004610427565b611661565b34610251576102cb6102bb6104d6366004610380565b611670565b909182601f830112156102515781359167ffffffffffffffff831161025157602001926020830284011161025157565b9060208282031261025157813567ffffffffffffffff81116102515761053192016104db565b9091565b805160070b82526102639190606090819060208181015160070b9085015260408181015160070b90850152015167ffffffffffffffff16910152565b906103eb81608093610535565b9061059e61059761058d845190565b8084529260200190565b9260200190565b9060005b8181106105af5750505090565b9091926105c96105c26001928651610571565b9460200190565b9291016105a2565b602080825261022f9291019061057e565b34610251576102cb6105fe6105f836600461050b565b90611782565b604051918291826105d1565b7f4e487b7100000000000000000000000000000000000000000000000000000000600052604160045260246000fd5b90601f01601f1916810190811067ffffffffffffffff82111761065b57604052565b61060a565b9061026361066d60405190565b9283610639565b67ffffffffffffffff811161065b5760208091020190565b909291926106a161069c82610674565b610660565b938185526020808601920283019281841161025157915b8383106106c55750505050565b602080916106d3848661026b565b8152019201916106b8565b9080601f830112156102515781602061022f9335910161068c565b67ffffffffffffffff811161065b57602090601f01601f19160190565b90826000939282370152565b9092919261073261069c826106f9565b938185528183011161025157610263916020850190610716565b9080601f830112156102515781602061022f93359101610722565b91909160a0818403126102515761077e8382610256565b9261078c8160208401610256565b92604083013567ffffffffffffffff811161025157826107ad9185016106de565b92606081013567ffffffffffffffff811161025157836107ce9183016106de565b92608082013567ffffffffffffffff81116102515761022f920161074c565b346102515761037b610800366004610767565b939290926117f8565b91906040838203126102515761022f906020610825828661026b565b9401610256565b346102515761037b61083f366004610809565b906118ad565b346102515761037b610858366004610809565b906118b7565b9092919261086e61069c82610674565b938185526020808601920283019281841161025157915b8383106108925750505050565b602080916108a08486610256565b815201920191610885565b9080601f830112156102515781602061022f9335910161085e565b91909160408184031261025157803567ffffffffffffffff811161025157836108f09183016108ab565b92602082013567ffffffffffffffff81116102515761022f92016106de565b9061091e61059761058d845190565b9060005b81811061092f5750505090565b9091926109456105c26001928651815260200190565b929101610922565b602080825261022f9291019061090f565b34610251576102cb61097a6109743660046108c6565b90611946565b6040519182918261094d565b9060208282031261025157813567ffffffffffffffff81116102515761022f920161074c565b346102515761037b6109bf366004610986565b611c09565b34610251576102cb61097a6109da36600461050b565b90611c12565b600091031261025157565b7f4e487b7100000000000000000000000000000000000000000000000000000000600052600060045260246000fd5b7f4e487b7100000000000000000000000000000000000000000000000000000000600052602260045260246000fd5b9060016002830492168015610a69575b6020831014610a6457565b610a1a565b91607f1691610a59565b80546000939291610a90610a8683610a49565b8085529360200190565b9160018116908115610ae25750600114610aa957505050565b610abc9192939450600052602060002090565b916000925b818410610ace5750500190565b805484840152602090930192600101610ac1565b92949550505060ff1916825215156020020190565b9061022f91610a73565b90610263610b1b92610b1260405190565b93848092610af7565b0383610639565b90600010610b335761022f90610b01565b6109eb565b61022f60006008610b22565b3461025157610b543660046109e0565b6102cb61041b610b38565b9060a0604061026393610b7a60008201516000860190610535565b610b8960208201516080860152565b01511515910152565b906103eb8160c093610b5f565b90610bae61059761058d845190565b9060005b818110610bbf5750505090565b909192610bd26105c26001928651610b92565b929101610bb2565b602080825261022f92910190610b9f565b34610251576102cb610c07610c0136600461050b565b90611d24565b60405191829182610bda565b61022f916008021c73ffffffffffffffffffffffffffffffffffffffff1690565b9061022f9154610c13565b61022f60006005610c34565b3461025157610c5b3660046109e0565b6102cb610c66610c3f565b6040519182918273ffffffffffffffffffffffffffffffffffffffff909116815260200190565b909182601f830112156102515781359167ffffffffffffffff831161025157602001926080830284011161025157565b909160408284031261025157813567ffffffffffffffff81116102515783610ce69184016104db565b929093602082013567ffffffffffffffff8111610251576105319201610c8d565b346102515761037b610d1a366004610cbd565b92919091611fb6565b61022f60006006610c34565b3461025157610d3f3660046109e0565b6102cb610c66610d23565b34610251576102cb610333610d60366004610809565b90611fc2565b3461025157610d763660046109e0565b61037b6120be565b61022f61022f61022f9290565b61022f6000610d7e565b61022f610d8b565b3461025157610dad3660046109e0565b6102cb6102bb610d95565b80151561024a565b9050359061026382610db8565b91906040838203126102515761022f906020610de98286610256565b9401610dc0565b346102515761037b610e03366004610dcd565b906120c6565b9060608282031261025157813567ffffffffffffffff81116102515781610e319184016104db565b929093602082013567ffffffffffffffff81116102515783610e549184016104db565b929093604082013567ffffffffffffffff8111610251576105319201610c8d565b346102515761037b610e88366004610e09565b949390939291926121ce565b61021661022f61022f9273ffffffffffffffffffffffffffffffffffffffff1690565b61022f90610e94565b61022f90610eb7565b61029b90610ec0565b6020810192916102639190610ec9565b3461025157610ef23660046109e0565b6102cb7f00000000000000000000000000000000000000000000000000000000000000005b60405191829182610ed2565b909160408284031261025157813567ffffffffffffffff81116102515783610f4c9184016104db565b929093602082013567ffffffffffffffff81116102515761053192016104db565b346102515761037b610f80366004610f23565b92919091612256565b346102515761037b610f9c366004610809565b9061227d565b91906040838203126102515761022f9060206108258286610256565b34610251576102cb610333610fd4366004610fa2565b90612287565b91909160a08184031261025157610ff18382610256565b92610fff8160208401610256565b9261100d826040850161026b565b926107ce836060830161026b565b346102515761037b61102e366004610fda565b939290926122a2565b61022f60006007610c34565b34610251576110533660046109e0565b6102cb610f17611037565b9061106890610d7e565b600052602052604060002090565b61022f905b60070b90565b61022f9054611076565b61022f9060401c61107b565b61022f905461108b565b61022f9060801c61107b565b61022f90546110a1565b61022f9060c01c5b67ffffffffffffffff1690565b61022f90546110b7565b61022f6080610660565b9061026361113f60006110f16110d6565b94611109611100838301611081565b60070b87840152565b611121611117838301611097565b60070b6020880152565b61113961112f8383016110ad565b60070b6040880152565b016110cc565b67ffffffffffffffff166060840152565b61022f9081565b61022f9054611150565b61116c90600461105e565b611175816110e0565b9161022f600261118760018501611157565b93015460ff1690565b60a0906111b761026394969593966111b060c08401986000850190610535565b6080830152565b019015159052565b34610251576102cb6111da6111d5366004610380565b611161565b60405191939193849384611190565b9061106890610ec0565b6112139061120e61022f93611206600090565b50600061105e565b6111e9565b611157565b61022f906122eb565b7f4e487b7100000000000000000000000000000000000000000000000000000000600052601160045260246000fd5b8181029291811591840414171561126357565b611221565b9050519061026382610db8565b906020828203126102515761022f91611268565b73ffffffffffffffffffffffffffffffffffffffff9182168152911660208201526060810192916102639160400152565b0152565b6040513d6000823e3d90fd5b906112d761069c836106f9565b918252565b61022f60006112ca565b61022f6112dc565b6112fc61022f82600461105e565b9161131261130e600285015460ff1690565b1590565b6113f95760206113a39361134361133e60075473ffffffffffffffffffffffffffffffffffffffff1690565b610ec0565b611377611371600161136a60055473ffffffffffffffffffffffffffffffffffffffff1690565b9401611157565b85611250565b91600061138360405190565b8098819582946113976323b872dd60e01b90565b84523360048501611289565b03925af19283156113f457610263936113c7575b506113c06112e6565b913361235b565b6113e89060203d6020116113ed575b6113e08183610639565b810190611275565b6113b7565b503d6113d6565b6112be565b7ffb8b78fe00000000000000000000000000000000000000000000000000000000600090815260045b036000fd5b61022f9054610a49565b8054600093929161144861144483610a49565b9390565b9160018116908115611499575060011461146157505050565b6114749192939450600052602060002090565b6000905b8382106114855750500190565b600181602092548486015201910190611478565b7fffffffffffffffffffffffffffffffffffffffffffffffffffffffffffffff001683525050811515909102019150565b6103eb6114e2926020926114dc815190565b94859290565b93849101610394565b916114fb60059361150193611431565b906114ca565b7f2e6a736f6e00000000000000000000000000000000000000000000000000000081520190565b61154892916102639161153a60405190565b9485926020840192836114eb565b90810382520383610639565b61155e6008611427565b61156f61156b6000610d7e565b9190565b11156115885761158161022f9161246d565b6008611528565b5061022f6112e6565b610263906115a56115a0610d8b565b61252a565b6115e7565b9073ffffffffffffffffffffffffffffffffffffffff905b9181191691161790565b906115dc61022f6115e392610ec0565b82546115aa565b9055565b6102639060066115cc565b61026390611591565b61022f7faf290d8680820aad922855f39b306097b20e28774d6c1ad35a20325630c3a02c610d7e565b610263906116336115a06115fb565b6102639060076115cc565b61026390611624565b610263906116566115a06115fb565b6102639060056115cc565b61026390611647565b90611068565b600161168961022f92611681600090565b50600361166a565b01611157565b906112d761069c83610674565b6116a46110d6565b906000825260208080808501600081520160005b8152016000905250565b61022f61169c565b60005b8281106116d957505050565b6020906116e46116c2565b81840152016116cd565b906102636117046116fe8461168f565b93610674565b601f1901602084016116ca565b7f4e487b7100000000000000000000000000000000000000000000000000000000600052603260045260246000fd5b9190811015611750576020020190565b611711565b3561022f81610265565b90611768825190565b811015611750576020809102010190565b61022f906110e0565b8161178c836116ee565b93849060005b855b8110156117ef576117e8816117cc60006117c6896117c06117bb611794988c600494611740565b611755565b9061105e565b01611779565b6117d6828b61175f565b526117e1818a61175f565b5060010190565b9050611792565b50935093505050565b3395949392919073ffffffffffffffffffffffffffffffffffffffff81168714158061187c575b61182e57610263959650612535565b7fe237d92200000000000000000000000000000000000000000000000000000000600090815273ffffffffffffffffffffffffffffffffffffffff8089166004529091166024526044036000fd5b5061188a61130e8883612287565b61181f565b90610263916118a06115a082611670565b906118aa91612643565b50565b906102639161188f565b906118c133610216565b73ffffffffffffffffffffffffffffffffffffffff8216036118e6576118aa916126c5565b7f6697b232000000000000000000000000000000000000000000000000000000006000908152600490fd5b9081526040810192916102639160200152565b369037565b906102636119396116fe8461168f565b601f190160208401611924565b90815161195761156b61022f845190565b036119c55761196c611967835190565b611929565b916119776000610d7e565b61198261022f835190565b8110156119bf57806119b46119a761199d6119ba9486612722565b6102b58488612722565b6119b1838861175f565b52565b60010190565b611977565b50505090565b6000916119db6119d6611422935190565b915190565b907f5b05999100000000000000000000000000000000000000000000000000000000845260048401611911565b61026390611a176115a06115fb565b611bfe565b919060086115c2910291611a4f7fffffffffffffffffffffffffffffffffffffffffffffffffffffffffffffffff841b90565b921b90565b9190611a6561022f6115e393610d7e565b908354611a1c565b61026391600091611a54565b818110611a84575050565b80611a926000600193611a6d565b01611a79565b9190601f8111611aa757505050565b611ab961026393600052602060002090565b906020601f840181900483019310611adb575b6020601f909101040190611a79565b9091508190611acc565b90611aee815190565b9067ffffffffffffffff821161065b57611b1282611b0c8554610a49565b85611a98565b602090601f8311600114611b6b576115e3929160009183611b60575b50507fffffffffffffffffffffffffffffffffffffffffffffffffffffffffffffffff600883021c1916906002021790565b015190503880611b2e565b601f19831691611b8085600052602060002090565b9260005b818110611bdc57509160029391856001969410611ba5575b50505002019055565b01517fffffffffffffffffffffffffffffffffffffffffffffffffffffffffffffffff6008601f8516021c19169055388080611b9c565b91936020600181928787015181550195019201611b84565b9061026391611ae5565b610263906008611bf4565b61026390611a08565b81611c1c83611929565b93849060005b855b8110156117ef57611c58816119b4611c4e60016116898a6117c06117bb611c24998d600494611740565b6119b1838c61175f565b9050611c22565b61022f6060610660565b611c71611c5f565b90611c7a6116c2565b825260208080840160006116b8565b61022f611c69565b60005b828110611ca057505050565b602090611cab611c89565b8184015201611c94565b90610263611cc56116fe8461168f565b601f190160208401611c91565b90610263611d126002611ce3611c5f565b94611cf4611cf0826110e0565b8752565b611d0a611d0360018301611157565b6020880152565b015460ff1690565b15156040840152565b61022f90611cd2565b81611d2e83611cb5565b93849060005b855b8110156117ef57611d5f611d36916117cc611d5a60046117c06117bb858b8d611740565b611d1b565b9050611d34565b90610263939291611d786115a06115fb565b611f14565b9190811015611750576080020190565b61024a8160070b90565b3561022f81611d8d565b9067ffffffffffffffff906115c2565b61107b61022f61022f9260070b90565b90611dd161022f6115e392611db1565b8254611da1565b906fffffffffffffffff00000000000000009060401b6115c2565b90611e0361022f6115e392611db1565b8254611dd8565b9077ffffffffffffffff000000000000000000000000000000009060801b6115c2565b90611e3d61022f6115e392611db1565b8254611e0a565b67ffffffffffffffff811661024a565b3561022f81611e44565b907fffffffffffffffff0000000000000000000000000000000000000000000000009060c01b6115c2565b6110bf61022f61022f9267ffffffffffffffff1690565b90611eb061022f6115e392611e89565b8254611e5e565b61026391611f0490606090611ed4611ece82611d97565b85611dc1565b611ee9611ee360208301611d97565b85611df3565b611efe611ef860408301611d97565b85611e2d565b01611e54565b90611ea0565b9061026391611eb7565b93929190809360005b855b811015611fad576004611f4261022f611f3c6117bb85888d611740565b8361105e565b90611f5461130e600284015460ff1690565b611f7f5750816119b4611f78926000611f71611f1f968b8b611d7d565b9101611f0a565b9050611f1d565b7ffb8b78fe0000000000000000000000000000000000000000000000000000000060009081529081905b0390fd5b50945050505050565b90610263939291611d66565b61022f916000611fd7611fdd93611681600090565b016111e9565b5460ff1690565b611fef6115a0610d8b565b61026361201b7f0000000000000000000000000000000000000000000000000000000000000000610ec0565b60065473ffffffffffffffffffffffffffffffffffffffff1661203d30610ec0565b823b1561025157612095926000928361205560405190565b80968195829461206963aa67735460e01b90565b845273ffffffffffffffffffffffffffffffffffffffff90811660048501521660248301526044820190565b03925af180156113f4576120a65750565b6102639060006120b68183610639565b8101906109e0565b610263611fe4565b610263919033612738565b9061026395949392916120e56115a06115fb565b612149565b907fffffffffffffffffffffffffffffffffffffffffffffffffffffffffffffffff906115c2565b9061212261022f6115e392610d7e565b82546120ea565b9060ff906115c2565b9061214261022f6115e392151590565b8254612129565b929594919290809560005b875b8110156121c3576121bc816119b4600160028b6121b68f6117bb878f928f938f8f846121569f9761219d61022f6121a9956117c06117bb6121ae9d6121a398600494611740565b9a611d7d565b88611f0a565b611740565b848301612112565b01612132565b9050612154565b509650505050505050565b9061026395949392916120d1565b906102639392916121ee6115a06115fb565b93929190809360005b855b811015611fad57600461221661022f611f3c6117bb85888d611740565b9061222861130e600284015460ff1690565b611f7f5750816119b461224f9260016122486117bb6121f9978c8c611740565b9101612112565b90506121f7565b906102639392916121dc565b90610263916122736115a082611670565b906118aa916126c5565b9061026391612262565b61022f9161120e611fdd9261229a600090565b5060016111e9565b3395949392919073ffffffffffffffffffffffffffffffffffffffff8116871415806122d8575b61182e57610263959650612808565b506122e661130e8883612287565b6122c9565b7f7965db0b000000000000000000000000000000000000000000000000000000007fffffffff0000000000000000000000000000000000000000000000000000000082161490811561233b575090565b61022f9150612933565b61021661022f61022f9290565b61022f90612345565b909392919360009061236c82612352565b9173ffffffffffffffffffffffffffffffffffffffff831673ffffffffffffffffffffffffffffffffffffffff8516146123d5575061026394956123cd60405192600184526020840152604083019160018352602083015260408201604052565b9290916129e0565b7f57f447ce00000000000000000000000000000000000000000000000000000000815273ffffffffffffffffffffffffffffffffffffffff83166004820152602490fd5b90610263611939612429846112ca565b936106f9565b7f4e487b7100000000000000000000000000000000000000000000000000000000600052601260045260246000fd5b8115612468570490565b61242f565b61247681612a7e565b906124876001926103eb6001610d7e565b918061249284612419565b936020018401905b6124a45750505090565b811561252557612509907fffffffffffffffffffffffffffffffffffffffffffffffffffffffffffffffff01927f3031323334353637383961626364656600000000000000000000000000000000600a82061a8453612503600a610d7e565b9061245e565b908161251861156b6000610d7e565b146125255790918161249a565b6119bf565b610263903390612c4a565b949392919060009561254687612352565b8773ffffffffffffffffffffffffffffffffffffffff821673ffffffffffffffffffffffffffffffffffffffff8516146125fd575073ffffffffffffffffffffffffffffffffffffffff811673ffffffffffffffffffffffffffffffffffffffff8316146125ba57506102639596506129e0565b7f01a8351400000000000000000000000000000000000000000000000000000000885273ffffffffffffffffffffffffffffffffffffffff166004880152602487fd5b7f57f447ce00000000000000000000000000000000000000000000000000000000815273ffffffffffffffffffffffffffffffffffffffff919091166004820152602490fd5b61265061130e8383611fc2565b156126be57612670600161266b846000611fd786600361166a565b612132565b61268a61268461267e339390565b93610ec0565b91610ec0565b917f2f8788117e7eff1d82e926ec794901d17c78024a50270940304540a733656f0d6126b560405190565b600090a4600190565b5050600090565b6126cf8282611fc2565b156126be576126e9600061266b8482611fd786600361166a565b6126f761268461267e339390565b917ff6391f5c32d9c69d2a47ea670b442974b53935d1edc7fd64eb21e047a839171b6126b560405190565b906020809161272f600090565b50029101015190565b600061274381612352565b73ffffffffffffffffffffffffffffffffffffffff811673ffffffffffffffffffffffffffffffffffffffff8516146127c55750506127c06127b661267e8361133e8761266b8861120e7f17307eab39ab6107e8899845ad3d59bd9653f200f220920489ca2b5937696c319960016111e9565b9361033760405190565b0390a3565b7fced3e10000000000000000000000000000000000000000000000000000000000825273ffffffffffffffffffffffffffffffffffffffff166004820152602490fd5b909194939294600061281981612352565b73ffffffffffffffffffffffffffffffffffffffff811673ffffffffffffffffffffffffffffffffffffffff8616146128f05773ffffffffffffffffffffffffffffffffffffffff811673ffffffffffffffffffffffffffffffffffffffff8516146128ad57505061026394956123cd60405192600184526020840152604083019160018352602083015260408201604052565b7f01a8351400000000000000000000000000000000000000000000000000000000825273ffffffffffffffffffffffffffffffffffffffff166004820152602490fd5b7f57f447ce00000000000000000000000000000000000000000000000000000000825273ffffffffffffffffffffffffffffffffffffffff166004820152602490fd5b7fd9b67a26000000000000000000000000000000000000000000000000000000007fffffffff00000000000000000000000000000000000000000000000000000000821614908115612994575b811561298a575090565b61022f9150612c92565b7fffffffff0000000000000000000000000000000000000000000000000000000081167f0e89341c00000000000000000000000000000000000000000000000000000000149150612980565b919392906129f082868386612d58565b6129fd6102166000612352565b73ffffffffffffffffffffffffffffffffffffffff821603612a21575b5050505050565b3392612a2b865190565b612a3861156b6001610d7e565b03612a6e57612a5e612a6496612a58612a516000610d7e565b8092612722565b94612722565b93613264565b3880808080612a1a565b612a7995929361308c565b612a64565b612a886000610d7e565b907a184f03e93ff9f4daa797ed6e38ed64bf6a1f010000000000000000612aae81610d7e565b821015612bfe575b506d04ee2d6d415b85acef8100000000612acf81610d7e565b821015612bdc575b50662386f26fc10000612ae981610d7e565b821015612bba575b506305f5e100612b0081610d7e565b821015612b98575b50612710612b1581610d7e565b821015612b76575b50612b286064610d7e565b811015612b54575b612b3d61156b600a610d7e565b1015612b465790565b61022f906103eb6001610d7e565b612b65612b70916125036064610d7e565b916103eb6002610d7e565b90612b30565b612b9191612503612b8692610d7e565b916103eb6004610d7e565b9038612b1d565b612bb391612503612ba892610d7e565b916103eb6008610d7e565b9038612b08565b612bd591612503612bca92610d7e565b916103eb6010610d7e565b9038612af1565b612bf791612503612bec92610d7e565b916103eb6020610d7e565b9038612ad7565b612c1991612503612c0e92610d7e565b916103eb6040610d7e565b9038612ab6565b73ffffffffffffffffffffffffffffffffffffffff90911681526040810192916102639160200152565b90612c5861130e8284611fc2565b612c60575050565b7fe2517d3f00000000000000000000000000000000000000000000000000000000600090815291611422916004612c20565b612cdd7f01ffc9a7000000000000000000000000000000000000000000000000000000005b917fffffffff000000000000000000000000000000000000000000000000000000001690565b1490565b6112ba61026394612d1f606094989795612d18608086019a600087019073ffffffffffffffffffffffffffffffffffffffff169052565b6020850152565b6040830152565b9190820180921161126357565b604080825261022f939192612d4a9184019061090f565b91602081840391015261090f565b9392909192612d65845190565b612d7361156b61022f855190565b03612fbc573393600091612d8683610d7e565b612d9161022f845190565b811015612ef357612da28184612722565b90612dad8187612722565b91612db786612352565b928873ffffffffffffffffffffffffffffffffffffffff851673ffffffffffffffffffffffffffffffffffffffff8d1603612e64575b612e2e9473ffffffffffffffffffffffffffffffffffffffff165b73ffffffffffffffffffffffffffffffffffffffff821603612e33575b50505060010190565b612d86565b612e47612e569161120e612e5c958b61105e565b91612e5183611157565b612d26565b90612112565b388088612e25565b50909192612e796112138c61120e868b61105e565b828110612eb557612e088392612ead8a8f612ea8908f968a612ea2612e2e9d9c9b61120e930390565b9461105e565b612112565b955050612ded565b8b611fa98585612ec460405190565b9485947f03dee4c500000000000000000000000000000000000000000000000000000000865260048601612ce1565b5095929491612f00825190565b612f0d61156b6001610d7e565b03612f7457612f53612f5361267e7fc3d58168c5ae7397731d063d5bbf3d657854427343f4c083240f7aacaa2d0f629594612f4d612a51612f5996610d7e565b99612722565b94610ec0565b94612f6f612f6660405190565b92839283611911565b0390a4565b5093612fa6612f53612f537f4a39dc06d4c0dbc64b70af90fd698a233a518aa5d07e595d983b8c0526c8f7fb94610ec0565b94612f6f612fb360405190565b92839283612d33565b6000611422836119db6119d6885190565b90505190610263826102cf565b906020828203126102515761022f91612fcd565b93906130519061022f969461304461305f9561302760a08a019460008b019073ffffffffffffffffffffffffffffffffffffffff169052565b73ffffffffffffffffffffffffffffffffffffffff166020890152565b868203604088015261090f565b90848203606086015261090f565b9160808184039101526103b7565b3d156130875761307c3d6112ca565b903d6000602084013e565b606090565b9193929094843b956000966130a361156b89610d7e565b116130b2575b50505050505050565b866020946131026130c561133e8a610ec0565b946130cf60405190565b988997889687957fbc197c8100000000000000000000000000000000000000000000000000000000875260048701612fee565b03925af1600091816131c2575b5061318d5750613126565b388080808080806130a9565b61312e61306d565b805161313c61156b85610d7e565b0361318557507f57f447ce00000000000000000000000000000000000000000000000000000000825273ffffffffffffffffffffffffffffffffffffffff166004820152602490fd5b805190602001fd5b6131b67fbc197c8100000000000000000000000000000000000000000000000000000000612cb7565b036128f057505061311a565b6131e591925060203d6020116131ec575b6131dd8183610639565b810190612fda565b903861310f565b503d6131d3565b919361325061022f9694613249613257949761322c60a0880199600089019073ffffffffffffffffffffffffffffffffffffffff169052565b73ffffffffffffffffffffffffffffffffffffffff166020870152565b6040850152565b6060830152565b60808184039101526103b7565b9193929094843b9560009661327b61156b89610d7e565b116132895750505050505050565b866020946132d961329c61133e8a610ec0565b946132a660405190565b988997889687957ff23a6e61000000000000000000000000000000000000000000000000000000008752600487016131f3565b03925af16000918161331a575b506132f15750613126565b6131b67ff23a6e6100000000000000000000000000000000000000000000000000000000612cb7565b61333491925060203d6020116131ec576131dd8183610639565b90386132e656fea2646970667358221220593706051cc90f82876045f007d78c59f0b55e7884429f4df88b07775210752464736f6c634300081c0033",
  "linkReferences": {},
  "deployedLinkReferences": {}
}