{
  "_format": "hh-sol-artifact-1",
  "contractName": "Raid",
  "sourceName": "contracts/game/raid.sol",
  "abi": [
    {
      "inputs": [
        {
          "internalType": "contract IERC20",
          "name": "_battingToken",
          "type": "address"
        },
        {
          "internalType": "address",
          "name": "_manager",
          "type": "address"
        },
        {
          "internalType": "address",
          "name": "_raidVault",
          "type": "address"
        },
        {
          "internalType": "address",
          "name": "_teamVault",
          "type": "address"
        }
      ],
      "stateMutability": "nonpayable",
      "type": "constructor"
    },
    {
      "inputs": [],
      "name": "AccessControlBadConfirmation",
      "type": "error"
    },
    {
      "inputs": [
        {
          "internalType": "address",
          "name": "account",
          "type": "address"
        },
        {
          "internalType": "bytes32",
          "name": "neededRole",
          "type": "bytes32"
        }
      ],
      "name": "AccessControlUnauthorizedAccount",
      "type": "error"
    },
    {
      "inputs": [],
      "name": "InvalidTimeRange",
      "type": "error"
    },
    {
      "inputs": [],
      "name": "InvalidType",
      "type": "error"
    },
    {
      "inputs": [],
      "name": "NoRemainingPrize",
      "type": "error"
    },
    {
      "inputs": [],
      "name": "PrizeAlreadyClaimed",
      "type": "error"
    },
    {
      "inputs": [],
      "name": "RaidClosed",
      "type": "error"
    },
    {
      "inputs": [],
      "name": "RaidFull",
      "type": "error"
    },
    {
      "inputs": [],
      "name": "RaidNotCompleted",
      "type": "error"
    },
    {
      "inputs": [],
      "name": "RaidNotReady",
      "type": "error"
    },
    {
      "inputs": [],
      "name": "UserNotParticipated",
      "type": "error"
    },
    {
      "anonymous": false,
      "inputs": [
        {
          "indexed": true,
          "internalType": "uint256",
          "name": "id",
          "type": "uint256"
        },
        {
          "indexed": true,
          "internalType": "address",
          "name": "winner",
          "type": "address"
        }
      ],
      "name": "ClaimPrize",
      "type": "event"
    },
    {
      "anonymous": false,
      "inputs": [
        {
          "indexed": true,
          "internalType": "uint256",
          "name": "id",
          "type": "uint256"
        },
        {
          "indexed": true,
          "internalType": "address",
          "name": "creator",
          "type": "address"
        }
      ],
      "name": "Create",
      "type": "event"
    },
    {
      "anonymous": false,
      "inputs": [
        {
          "indexed": true,
          "internalType": "uint256",
          "name": "id",
          "type": "uint256"
        },
        {
          "indexed": true,
          "internalType": "address",
          "name": "participant",
          "type": "address"
        },
        {
          "indexed": false,
          "internalType": "uint256",
          "name": "raidFee",
          "type": "uint256"
        }
      ],
      "name": "Join",
      "type": "event"
    },
    {
      "anonymous": false,
      "inputs": [
        {
          "indexed": true,
          "internalType": "uint256",
          "name": "id",
          "type": "uint256"
        },
        {
          "indexed": true,
          "internalType": "address",
          "name": "participant",
          "type": "address"
        }
      ],
      "name": "Remove",
      "type": "event"
    },
    {
      "anonymous": false,
      "inputs": [
        {
          "indexed": true,
          "internalType": "bytes32",
          "name": "role",
          "type": "bytes32"
        },
        {
          "indexed": true,
          "internalType": "bytes32",
          "name": "previousAdminRole",
          "type": "bytes32"
        },
        {
          "indexed": true,
          "internalType": "bytes32",
          "name": "newAdminRole",
          "type": "bytes32"
        }
      ],
      "name": "RoleAdminChanged",
      "type": "event"
    },
    {
      "anonymous": false,
      "inputs": [
        {
          "indexed": true,
          "internalType": "bytes32",
          "name": "role",
          "type": "bytes32"
        },
        {
          "indexed": true,
          "internalType": "address",
          "name": "account",
          "type": "address"
        },
        {
          "indexed": true,
          "internalType": "address",
          "name": "sender",
          "type": "address"
        }
      ],
      "name": "RoleGranted",
      "type": "event"
    },
    {
      "anonymous": false,
      "inputs": [
        {
          "indexed": true,
          "internalType": "bytes32",
          "name": "role",
          "type": "bytes32"
        },
        {
          "indexed": true,
          "internalType": "address",
          "name": "account",
          "type": "address"
        },
        {
          "indexed": true,
          "internalType": "address",
          "name": "sender",
          "type": "address"
        }
      ],
      "name": "RoleRevoked",
      "type": "event"
    },
    {
      "inputs": [],
      "name": "DEFAULT_ADMIN_ROLE",
      "outputs": [
        {
          "internalType": "bytes32",
          "name": "",
          "type": "bytes32"
        }
      ],
      "stateMutability": "view",
      "type": "function"
    },
    {
      "inputs": [],
      "name": "battingToken",
      "outputs": [
        {
          "internalType": "contract IERC20",
          "name": "",
          "type": "address"
        }
      ],
      "stateMutability": "view",
      "type": "function"
    },
    {
      "inputs": [
        {
          "internalType": "uint256",
          "name": "_id",
          "type": "uint256"
        }
      ],
      "name": "claimPrize",
      "outputs": [],
      "stateMutability": "nonpayable",
      "type": "function"
    },
    {
      "inputs": [
        {
          "internalType": "uint256",
          "name": "_id",
          "type": "uint256"
        }
      ],
      "name": "complete",
      "outputs": [],
      "stateMutability": "nonpayable",
      "type": "function"
    },
    {
      "inputs": [
        {
          "components": [
            {
              "internalType": "enum IRaidPrize.PrizeType",
              "name": "prizeType",
              "type": "uint8"
            },
            {
              "internalType": "address",
              "name": "prize",
              "type": "address"
            },
            {
              "internalType": "uint256",
              "name": "id",
              "type": "uint256"
            },
            {
              "internalType": "uint256",
              "name": "quantity",
              "type": "uint256"
            }
          ],
          "internalType": "struct IRaidPrize.PrizeInfo[]",
          "name": "_prizeInfoList",
          "type": "tuple[]"
        },
        {
          "internalType": "uint256",
          "name": "_raidFee",
          "type": "uint256"
        },
        {
          "internalType": "uint64",
          "name": "_openingTime",
          "type": "uint64"
        },
        {
          "internalType": "uint64",
          "name": "_closingTime",
          "type": "uint64"
        },
        {
          "internalType": "uint64",
          "name": "_maxParticipants",
          "type": "uint64"
        }
      ],
      "name": "createRaid",
      "outputs": [],
      "stateMutability": "nonpayable",
      "type": "function"
    },
    {
      "inputs": [
        {
          "internalType": "uint256",
          "name": "_offset",
          "type": "uint256"
        },
        {
          "internalType": "uint256",
          "name": "_size",
          "type": "uint256"
        }
      ],
      "name": "getRaidIdList",
      "outputs": [
        {
          "internalType": "uint256[]",
          "name": "_list",
          "type": "uint256[]"
        }
      ],
      "stateMutability": "view",
      "type": "function"
    },
    {
      "inputs": [
        {
          "internalType": "uint256",
          "name": "_id",
          "type": "uint256"
        }
      ],
      "name": "getRaidInfoInfoById",
      "outputs": [
        {
          "components": [
            {
              "internalType": "enum IRaidPrize.PrizeType",
              "name": "prizeType",
              "type": "uint8"
            },
            {
              "internalType": "address",
              "name": "prize",
              "type": "address"
            },
            {
              "internalType": "uint256",
              "name": "id",
              "type": "uint256"
            },
            {
              "internalType": "uint256",
              "name": "quantity",
              "type": "uint256"
            }
          ],
          "internalType": "struct IRaidPrize.PrizeInfo[]",
          "name": "prizeInfoList",
          "type": "tuple[]"
        },
        {
          "internalType": "address[]",
          "name": "participantList",
          "type": "address[]"
        },
        {
          "internalType": "uint256",
          "name": "raidFee",
          "type": "uint256"
        },
        {
          "internalType": "uint64",
          "name": "openingTime",
          "type": "uint64"
        },
        {
          "internalType": "uint64",
          "name": "closingTime",
          "type": "uint64"
        },
        {
          "internalType": "uint64",
          "name": "maxParticipants",
          "type": "uint64"
        },
        {
          "internalType": "bool",
          "name": "isRaidCompleted",
          "type": "bool"
        }
      ],
      "stateMutability": "view",
      "type": "function"
    },
    {
      "inputs": [
        {
          "internalType": "bytes32",
          "name": "role",
          "type": "bytes32"
        }
      ],
      "name": "getRoleAdmin",
      "outputs": [
        {
          "internalType": "bytes32",
          "name": "",
          "type": "bytes32"
        }
      ],
      "stateMutability": "view",
      "type": "function"
    },
    {
      "inputs": [
        {
          "internalType": "address",
          "name": "_user",
          "type": "address"
        },
        {
          "internalType": "uint256",
          "name": "_offset",
          "type": "uint256"
        },
        {
          "internalType": "uint256",
          "name": "_size",
          "type": "uint256"
        }
      ],
      "name": "getUserRaidIdList",
      "outputs": [
        {
          "internalType": "uint256[]",
          "name": "_list",
          "type": "uint256[]"
        }
      ],
      "stateMutability": "view",
      "type": "function"
    },
    {
      "inputs": [
        {
          "internalType": "bytes32",
          "name": "role",
          "type": "bytes32"
        },
        {
          "internalType": "address",
          "name": "account",
          "type": "address"
        }
      ],
      "name": "grantRole",
      "outputs": [],
      "stateMutability": "nonpayable",
      "type": "function"
    },
    {
      "inputs": [
        {
          "internalType": "bytes32",
          "name": "role",
          "type": "bytes32"
        },
        {
          "internalType": "address",
          "name": "account",
          "type": "address"
        }
      ],
      "name": "hasRole",
      "outputs": [
        {
          "internalType": "bool",
          "name": "",
          "type": "bool"
        }
      ],
      "stateMutability": "view",
      "type": "function"
    },
    {
      "inputs": [],
      "name": "id",
      "outputs": [
        {
          "internalType": "uint256",
          "name": "",
          "type": "uint256"
        }
      ],
      "stateMutability": "view",
      "type": "function"
    },
    {
      "inputs": [
        {
          "internalType": "uint256",
          "name": "_id",
          "type": "uint256"
        }
      ],
      "name": "joinRaid",
      "outputs": [],
      "stateMutability": "nonpayable",
      "type": "function"
    },
    {
      "inputs": [],
      "name": "raidVault",
      "outputs": [
        {
          "internalType": "address",
          "name": "",
          "type": "address"
        }
      ],
      "stateMutability": "view",
      "type": "function"
    },
    {
      "inputs": [
        {
          "internalType": "uint256",
          "name": "_id",
          "type": "uint256"
        }
      ],
      "name": "removeRaid",
      "outputs": [],
      "stateMutability": "nonpayable",
      "type": "function"
    },
    {
      "inputs": [
        {
          "internalType": "bytes32",
          "name": "role",
          "type": "bytes32"
        },
        {
          "internalType": "address",
          "name": "callerConfirmation",
          "type": "address"
        }
      ],
      "name": "renounceRole",
      "outputs": [],
      "stateMutability": "nonpayable",
      "type": "function"
    },
    {
      "inputs": [
        {
          "internalType": "bytes32",
          "name": "role",
          "type": "bytes32"
        },
        {
          "internalType": "address",
          "name": "account",
          "type": "address"
        }
      ],
      "name": "revokeRole",
      "outputs": [],
      "stateMutability": "nonpayable",
      "type": "function"
    },
    {
      "inputs": [
        {
          "internalType": "bytes4",
          "name": "interfaceId",
          "type": "bytes4"
        }
      ],
      "name": "supportsInterface",
      "outputs": [
        {
          "internalType": "bool",
          "name": "",
          "type": "bool"
        }
      ],
      "stateMutability": "view",
      "type": "function"
    },
    {
      "inputs": [],
      "name": "teamVault",
      "outputs": [
        {
          "internalType": "address",
          "name": "",
          "type": "address"
        }
      ],
      "stateMutability": "view",
      "type": "function"
    },
    {
      "inputs": [
        {
          "internalType": "uint256",
          "name": "_id",
          "type": "uint256"
        }
      ],
      "name": "withdrawLeftoverPrize",
      "outputs": [],
      "stateMutability": "nonpayable",
      "type": "function"
    }
  ],
  "bytecode": "0x60806040523461002e5761001d61001461010b565b929190916101c5565b6040516125296102f6823961252990f35b600080fd5b634e487b7160e01b600052604160045260246000fd5b90601f01601f191681019081106001600160401b0382111761006a57604052565b610033565b9061008361007c60405190565b9283610049565b565b6001600160a01b031690565b90565b6001600160a01b0381165b0361002e57565b9050519061008382610094565b6001600160a01b03811661009f565b90505190610083826100b3565b60808183031261002e576100e382826100a6565b926100916100f484602085016100c2565b93606061010482604087016100c2565b94016100c2565b61012961281f8038038061011e8161006f565b9283398101906100cf565b90919293565b906001600160a01b03905b9181191691161790565b61009190610085906001600160a01b031682565b61009190610144565b61009190610158565b9061017a61009161018192610161565b825461012f565b9055565b6100916100916100919290565b6100916000610185565b6100917faf290d8680820aad922855f39b306097b20e28774d6c1ad35a20325630c3a02c610185565b926101e36101ea92936101dc61020a96600961016a565b600761016a565b600861016a565b6101fc6101f5610192565b3390610247565b5061020561019c565b610247565b50565b905b600052602052604060002090565b9061020f90610161565b9060ff9061013a565b9061024061009161018192151590565b8254610227565b61025861025483836102d2565b1590565b156102cb5761027d6001610278846000610272868261020d565b0161021d565b610230565b61029761029161028b339390565b93610161565b91610161565b917f2f8788117e7eff1d82e926ec794901d17c78024a50270940304540a733656f0d6102c260405190565b600090a4600190565b5050600090565b6100919160006102726102ee936102e7600090565b508261020d565b5460ff169056fe6080604052600436101561001257600080fd5b60003560e01c806301ffc9a7146101525780631e2600da1461014d578063248a9ca3146101485780632f2ff15d1461014357806336568abe1461013e5780634afb356e14610139578063763e940b1461013457806380f8952d1461012f5780638ab5212b1461012a57806391d1485414610125578063971d852f14610120578063a15275901461011b578063a217fddf14610116578063aba0dc1814610111578063af640d0f1461010c578063b81241fc14610107578063c0d1132414610102578063d547741f146100fd578063d7098154146100f85763ffa229d90361018257610a17565b6109d6565b6109bd565b6109a1565b61078d565b610772565b61071c565b610537565b610500565b6104e8565b6104cc565b6104b1565b610463565b61043f565b610418565b61036e565b610350565b6102bf565b610283565b6101b1565b7fffffffff0000000000000000000000000000000000000000000000000000000081165b0361018257565b600080fd5b9050359061019482610157565b565b90602082820312610182576101aa91610187565b90565b9052565b34610182576101de6101cc6101c7366004610196565b610a33565b60405191829182901515815260200190565b0390f35b8061017b565b90503590610194826101e2565b9190604083820312610182576101aa90602061021182866101e8565b94016101e8565b0190565b9061023c61023561022b845190565b8084529260200190565b9260200190565b9060005b81811061024d5750505090565b90919261026a6102636001928651815260200190565b9460200190565b929101610240565b60208082526101aa9291019061021c565b34610182576101de61029f6102993660046101f5565b90610c13565b60405191829182610272565b90602082820312610182576101aa916101e8565b34610182576101de6102da6102d53660046102ab565b610cc9565b6040515b9182918290815260200190565b73ffffffffffffffffffffffffffffffffffffffff1690565b73ffffffffffffffffffffffffffffffffffffffff811661017b565b9050359061019482610304565b9190604083820312610182576101aa90602061034982866101e8565b9401610320565b346101825761036961036336600461032d565b90610d0b565b604051005b346101825761036961038136600461032d565b90610d15565b600091031261018257565b6101aa916008021c73ffffffffffffffffffffffffffffffffffffffff1690565b906101aa9154610392565b6101aa600060096103b3565b6102eb6101aa6101aa9273ffffffffffffffffffffffffffffffffffffffff1690565b6101aa906103ca565b6101aa906103ed565b6101ad906103f6565b60208101929161019491906103ff565b3461018257610428366004610387565b6101de6104336103be565b60405191829182610408565b34610182576103696104523660046102ab565b6110a3565b6101aa600060076103b3565b3461018257610473366004610387565b6101de61047e610457565b6040519182918273ffffffffffffffffffffffffffffffffffffffff909116815260200190565b6101aa600060086103b3565b34610182576104c1366004610387565b6101de61047e6104a5565b34610182576101de6101cc6104e236600461032d565b906110c0565b34610182576103696104fb3660046102ab565b61119d565b34610182576103696105133660046102ab565b611565565b6101aa6101aa6101aa9290565b6101aa6000610518565b6101aa610525565b3461018257610547366004610387565b6101de6102da61052f565b7f4e487b7100000000000000000000000000000000000000000000000000000000600052602160045260246000fd5b6002111561058b57565b610552565b9061019482610581565b6101aa90610590565b6101ad9061059a565b90606080610194936105c6600082015160008601906105a3565b60208181015173ffffffffffffffffffffffffffffffffffffffff16908501526105f560408201516040860152565b0151910152565b90610218816080936105ac565b9061061861023561022b845190565b9060005b8181106106295750505090565b90919261063c61026360019286516105fc565b92910161061c565b9061065361023561022b845190565b9060005b8181106106645750505090565b909192610690610263600192865173ffffffffffffffffffffffffffffffffffffffff16815260200190565b929101610657565b92979694610703906106f260c0966106e16106d9610714976106cb6101949d9860e08c01908c6000818403910152610609565b908a820360208c0152610644565b9c6040890152565b67ffffffffffffffff166060870152565b67ffffffffffffffff166080850152565b67ffffffffffffffff1660a0830152565b019015159052565b34610182576101de6107376107323660046102ab565b611621565b9361074797959793919360405190565b97889788610698565b6101aa916008021c81565b906101aa9154610750565b6101aa6000600661075b565b3461018257610782366004610387565b6101de6102da610766565b34610182576103696107a03660046102ab565b61188a565b7f4e487b7100000000000000000000000000000000000000000000000000000000600052604160045260246000fd5b90601f017fffffffffffffffffffffffffffffffffffffffffffffffffffffffffffffffe016810190811067ffffffffffffffff82111761081457604052565b6107a5565b9061019461082660405190565b92836107d4565b67ffffffffffffffff81116108145760208091020190565b6002111561018257565b9050359061019482610845565b9190608083820312610182576108af9060606108786080610819565b94610883838261084f565b86526108928360208301610320565b60208701526108a483604083016101e8565b6040870152016101e8565b6060830152565b909291926108cb6108c68261082d565b610819565b93818552608060208601920283019281841161018257915b8383106108f05750505050565b60206080916108ff848661085c565b8152019201916108e3565b9080601f83011215610182578160206101aa933591016108b6565b67ffffffffffffffff811661017b565b9050359061019482610925565b919060a08382031261018257823567ffffffffffffffff8111610182578161096b91850161090a565b9261097982602083016101e8565b926101aa61098a8460408501610935565b93608061099a8260608701610935565b9401610935565b34610182576103696109b4366004610942565b93929092611de8565b34610182576103696109d036600461032d565b90611e10565b34610182576103696109e93660046102ab565b611e9b565b9091606082840312610182576101aa610a078484610320565b93604061021182602087016101e8565b34610182576101de61029f610a2d3660046109ee565b91612034565b7f7965db0b000000000000000000000000000000000000000000000000000000007fffffffff00000000000000000000000000000000000000000000000000000000821614908115610a83575090565b6101aa91507fffffffff00000000000000000000000000000000000000000000000000000000167f01ffc9a7000000000000000000000000000000000000000000000000000000001490565b7f4e487b7100000000000000000000000000000000000000000000000000000000600052601160045260246000fd5b91908201809211610b0b57565b610acf565b91908203918211610b0b57565b90610b2a6108c68361082d565b918252565b369037565b90610194610b4a610b4484610b1d565b9361082d565b7fffffffffffffffffffffffffffffffffffffffffffffffffffffffffffffffe00160208401610b2f565b7fffffffffffffffffffffffffffffffffffffffffffffffffffffffffffffffff8114610b0b5760010190565b7f4e487b7100000000000000000000000000000000000000000000000000000000600052603260045260246000fd5b8054821015610bf457610beb600191600052602060002090565b91020190600090565b610ba2565b90610c02825190565b811015610bf4576020809102010190565b60059181610c1f845490565b610c2c6101aa8385610afe565b811115610c98575050915b610c4083610b34565b93849060005b855b811015610c8f57610c88610c4891610c82610c75610c6f610c688a610b75565b9989610bd1565b9061075b565b610c7f838c610bf9565b52565b60010190565b9050610c46565b50935093505050565b610ca29250610b10565b91610c37565b905b600052602052604060002090565b6101aa9081565b6101aa9054610cb8565b6001610ce26101aa92610cda600090565b506000610ca8565b01610cbf565b9061019491610cfe610cf982610cc9565b6120b7565b90610d08916120c2565b50565b9061019491610ce8565b90610d1f336102eb565b73ffffffffffffffffffffffffffffffffffffffff821603610d4457610d0891612143565b7f6697b23200000000000000000000000000000000000000000000000000000000600090815260045b036000fd5b6101aa7faf290d8680820aad922855f39b306097b20e28774d6c1ad35a20325630c3a02c610518565b61019490610daa610cf9610d72565b610f1c565b90610caa90610518565b6101aa9060c01c5b60ff1690565b6101aa9054610db9565b6101aa9060801c5b67ffffffffffffffff1690565b6101aa9054610dd1565b6101aa6101aa6101aa9267ffffffffffffffff1690565b6101aa906102eb565b6101aa9054610e07565b8054821015610bf457610beb600391600052602060002090565b6101aa90610dc1565b6101aa9060081c6102eb565b906060610eb3600261019494610e95610e786000830154610e73610e6c82610e34565b89906105a3565b610e3d565b73ffffffffffffffffffffffffffffffffffffffff166020870152565b610eac610ea56001830154610cb8565b6040870152565b0154610cb8565b910152565b6101ad90610df0565b610f0c61019494610f0260c094989795610ef860e086019a600087019073ffffffffffffffffffffffffffffffffffffffff169052565b6020850190610e49565b60a0830190610eb8565b0152565b6040513d6000823e3d90fd5b6101aa610f2a916002610daf565b90610f36600183015490565b916003810190610f4c610f4883610dc7565b1590565b61107857610f5982610de6565b610f64855b91610df0565b1461104d5780549093909260005b845b81101561104557610f90610f8b610f8b6007610e10565b6103f6565b90610f9b8188610e1a565b50610fa586610de6565b90833b1561018257610ff493600092838893610fc060405190565b978895869485937f8c135c4b0000000000000000000000000000000000000000000000000000000085523360048601610ec1565b03925af190811561104057610f74926110139261101a575b5060010190565b9050610f72565b6110339060005b61102b81836107d4565b810190610387565b3861100c565b503d611021565b610f10565b509350505050565b7f93a35ae0000000000000000000000000000000000000000000000000000000006000908152600490fd5b7f86714402000000000000000000000000000000000000000000000000000000006000908152600490fd5b61019490610d9b565b90610caa906103f6565b6101aa9054610e34565b6101aa9160006110dc6110e2936110d5600090565b5082610ca8565b016110ac565b6110b6565b610194906110f6610cf9610d72565b611140565b9078ff0000000000000000000000000000000000000000000000009060c01b5b9181191691161790565b906111356101aa61113c92151590565b82546110fb565b9055565b60036111506101aa836002610daf565b019061115b82610dc7565b6111725761116d600161019493611125565b612214565b7f118477ca000000000000000000000000000000000000000000000000000000006000908152600490fd5b610194906110e7565b610194906111b5610cf9610d72565b61148f565b9190600861111b9102916111ed7fffffffffffffffffffffffffffffffffffffffffffffffffffffffffffffffff841b90565b921b90565b91906112036101aa61113c93610518565b9083546111ba565b610194916000916111f2565b81810292918115918404141715610b0b57565b6101aa906003611217565b60008082556101949160029061124e836001830161120b565b0161120b565b7f4e487b7100000000000000000000000000000000000000000000000000000000600052600060045260246000fd5b906000036112945761019490611235565b611254565b8181106112a4575050565b806112b26000600393611283565b01611299565b9190918282106112c757505050565b6112eb6112df6112d96101949561122a565b9361122a565b91600052602060002090565b9182019101611299565b906801000000000000000081116108145781611312610194935490565b908281556112b8565b6000610194916112f5565b90600003611294576101949061131b565b818110611342575050565b80611350600060019361120b565b01611337565b91909182821061136557505050565b6101949291611373906112df565b9182019101611337565b90680100000000000000008111610814578161139a610194935490565b90828155611356565b60006101949161137d565b9060000361129457610194906113a3565b6000906003906113cf8382611326565b6113dc83600183016113ae565b6113e9836002830161120b565b0155565b9060000361129457610194906113bf565b906101ad90610590565b6101aa9054610e3d565b6101aa6080610819565b9061019461147f600261142d611412565b9461144061143a826110b6565b876113fe565b61146961144c82611408565b73ffffffffffffffffffffffffffffffffffffffff166020880152565b610ce261147860018301610cbf565b6040880152565b6060840152565b6101aa9061141c565b9061149e6101aa836002610daf565b916114a881612214565b60006001936114c1826114bc856001610daf565b61120b565b6114d5826114d0856002610daf565b6113ed565b01926114df845490565b6000825b611532575b5050506114f6919250610518565b6114ff336103f6565b907fe52b7042a48e37bfb277e8a210794950be40bfaedea374e2dfbe0c6edff8791d61152a60405190565b80805b0390a3565b818110156115605780610c8261155461154e61155a948a610e1a565b50611486565b336122d5565b826114e3565b6114e8565b610194906111a6565b611576611412565b60008082526020820181905260408201819052606082015290565b6101aa61156e565b60005b8281106115a857505050565b6020906115b3611591565b818401520161159c565b906101946115cd610b4484610b1d565b7fffffffffffffffffffffffffffffffffffffffffffffffffffffffffffffffe00160208401611599565b6101aa90610dd9565b6101aa90546115f8565b6101aa9060401c610dd9565b6101aa905461160b565b906116326101aa6000936002610daf565b80549092839192611642846115bd565b92825b855b81101561167e576116778161166261154e611647948b610e1a565b61166c8289610bf9565b5261100c8188610bf9565b9050611645565b5091945092506001810191611691835490565b9361169b85610b34565b955b855b8110156116ef576116e881610c826116c36116bd61169f958a610bd1565b906103b3565b6116cd838c610bf9565b9073ffffffffffffffffffffffffffffffffffffffff169052565b905061169d565b509193509150600361170360028501610cbf565b930161170e81611601565b9261171882611617565b9261172b61172584610de6565b93610dc7565b9196959493929190565b80151561017b565b9050519061019482611735565b90602082820312610182576101aa9161173d565b73ffffffffffffffffffffffffffffffffffffffff9182168152911660208201526060810192916101949160400152565b9190600861111b9102916111ed73ffffffffffffffffffffffffffffffffffffffff841b90565b91906117c76101aa61113c936103f6565b90835461178f565b908154916801000000000000000083101561081457826117f791600161019495018155610bd1565b906117b6565b907fffffffffffffffffffffffffffffffffffffffffffffffffffffffffffffffff9061111b565b906118356101aa61113c92610518565b82546117fd565b9081549168010000000000000000831015610814578261186491600161019495018155610bd1565b906111f2565b9060ff9061111b565b906118836101aa61113c92151590565b825461186a565b6118986101aa826002610daf565b60018101906118a5825490565b60038201906118c26118be6118b984610de6565b610df0565b9190565b1015611a86576118d181611601565b6118da42610f5e565b11611a5b576118e881610dc7565b908115611a41575b506111725760026119019101610cbf565b9161194a602084611915610f8b6009610e10565b61191f6008610e10565b600061192a60405190565b80968195829461193e6323b872dd60e01b90565b8452336004850161175e565b03925af18015611040576119de9361196f9261196892611a15575090565b33906117cf565b6119d9600160006119d384836119cd60036119af6119968761199133856110ac565b015490565b6119aa866119a53360046110ac565b610daf565b611825565b6119c6846119c18861021833866110ac565b61183c565b33906110ac565b01610daf565b01611873565b610518565b7fb3e822478fa19cb993157f15b49a00501cc8d45226c1e7233aef1e281dc567f961152d611a0b336103f6565b936102de60405190565b611a369060203d602011611a3a575b611a2e81836107d4565b81019061174a565b5090565b503d611a24565b611a4b9150611617565b611a5442610f5e565b10386118f0565b7f72d499d6000000000000000000000000000000000000000000000000000000006000908152600490fd5b7f94348ddd000000000000000000000000000000000000000000000000000000006000908152600490fd5b9061019494939291611ac4610cf9610d72565b611c69565b9067ffffffffffffffff9061111b565b610dd96101aa6101aa9267ffffffffffffffff1690565b90611b006101aa61113c92611ad9565b8254611ac9565b906fffffffffffffffff00000000000000009060401b61111b565b90611b326101aa61113c92611ad9565b8254611b07565b9077ffffffffffffffff000000000000000000000000000000009060801b61111b565b90611b6c6101aa61113c92611ad9565b8254611b39565b6101aa9051610590565b906118836101aa61113c9261059a565b9074ffffffffffffffffffffffffffffffffffffffff009060081b61111b565b90611bbd6101aa61113c926103f6565b8254611b8d565b61019491600290611c2590606090611c0985611be8611be284611b73565b82611b7d565b602083015173ffffffffffffffffffffffffffffffffffffffff1690611bad565b611c20611c17604083015190565b60018701611825565b015190565b9101611825565b91906112945761019491611bc4565b90815491680100000000000000008310156108145782611c6391600161019495018155610e1a565b90611c2c565b9367ffffffffffffffff831667ffffffffffffffff851610611dbd57611cf9611c90865190565b91611cf3611c9e6006610cbf565b96611cdf611cd56101aa611cb160055490565b9a611cc360019c6119aa836001610daf565b611cce81600561183c565b6002610daf565b9660028801611825565b611ced600387019788611af0565b86611b22565b84611b5c565b611d0560008094611125565b83611d106000610518565b905b611d71575b505050505050611d3d611d2a6006610cbf565b6119d9611d3682610b75565b6006611825565b611d46336103f6565b907f748fd6a01f0f0df2e8354235caf8fdf83654b5a47b2358be7e7bffb16b726ceb61152a60405190565b81811015611db857611db290611d9b611d8a6007610e10565b611d94838a610bf9565b51906122d5565b610c82848601611dab838a610bf9565b5190611c3b565b84611d12565b611d17565b7f536a71af000000000000000000000000000000000000000000000000000000006000908152600490fd5b9061019494939291611ab1565b9061019491611e06610cf982610cc9565b90610d0891612143565b9061019491611df5565b6101aa9060081c610dc1565b6101aa9054611e1a565b73ffffffffffffffffffffffffffffffffffffffff909116815260c08101939261019492909160a091611e67906020830190610e49565b019067ffffffffffffffff169052565b9061ff009060081b61111b565b90611e946101aa61113c92151590565b8254611e77565b90611eaa6101aa836002610daf565b90611ec26101aa8460016119cd6101aa3360036110ac565b906003830191611ed4610f4884610dc7565b6110785792611ee5610f48856110b6565b61200957611ef284611e26565b611fde5780549094909360005b855b811015611f8a57611f18610f8b610f8b6007610e10565b90611f238189610e1a565b50611f2d87610de6565b833b1561018257611f659360009283611f4560405190565b809781958294611f596373bf1c3460e01b90565b84523360048501611e30565b03925af190811561104057611f0192611f839261101a575060010190565b9050611eff565b50611fa0929550611faa94506001919350611e84565b6119d9813361245c565b611fb3336103f6565b907fa4b43ab5bbc81d559aa9f631e943e395ce8c8fa955383fc3efdbec527832f5af61152a60405190565b7fc2356312000000000000000000000000000000000000000000000000000000006000908152600490fd5b7fee61e9af000000000000000000000000000000000000000000000000000000006000908152600490fd5b600061021861204d92612045606090565b5060036110ac565b9181612057845490565b6120646101aa8385610afe565b8111156120a7575050915b61207883610b34565b93849060005b855b811015610c8f576120a061208091610c82610c75610c6f610c688a610b75565b905061207e565b6120b19250610b10565b9161206f565b6101949033906124ab565b6120cf610f4883836110c0565b1561213c576120ee60016120e98460006110dc8682610ca8565b611873565b6121086121026120fc339390565b936103f6565b916103f6565b917f2f8788117e7eff1d82e926ec794901d17c78024a50270940304540a733656f0d61213360405190565b600090a4600190565b5050600090565b61214d82826110c0565b1561213c5761216660006120e984826110dc8682610ca8565b6121746121026120fc339390565b917ff6391f5c32d9c69d2a47ea670b442974b53935d1edc7fd64eb21e047a839171b61213360405190565b7f4e487b7100000000000000000000000000000000000000000000000000000000600052603160045260246000fd5b8054801561220f577fffffffffffffffffffffffffffffffffffffffffffffffffffffffffffffffff019061220c6122068383610bd1565b9061120b565b55565b61219f565b6101949061222d6122286005926001610daf565b610cbf565b612248612238835490565b6122426001610518565b90610b10565b90818103612258575b50506121ce565b61186461226b610c6f61227f9486610bd1565b612279816118648588610bd1565b84610bd1565b3880612251565b73ffffffffffffffffffffffffffffffffffffffff90911681526101aa9360a082019391926122c3926108af916122bc90610e78565b6040850152565b60808183039101526000815260200190565b906122df81611b73565b916000926122f56122ef85610590565b91610590565b0361236657918161233d93612333606061232d610f8b610f8b60208099015173ffffffffffffffffffffffffffffffffffffffff1690565b93015190565b9261192a60405190565b03925af180156110405761234e5750565b610d089060203d602011611a3a57611a2e81836107d4565b612371838301611b73565b61237e6122ef6001610590565b03612434576123aa610f8b610f8b602085015173ffffffffffffffffffffffffffffffffffffffff1690565b6123c060606123ba604086015190565b94015190565b90803b156101825761240c938580946123d860405190565b968795869485937ff242432a0000000000000000000000000000000000000000000000000000000085523360048601612286565b03925af180156110405761241e575050565b8161019492903d106110395761102b81836107d4565b7fb9688461000000000000000000000000000000000000000000000000000000008352600483fd5b61222d612228610194936119a561247960006102188760036110ac565b9460046110ac565b73ffffffffffffffffffffffffffffffffffffffff90911681526040810192916101949160200152565b906124b9610f4882846110c0565b6124c1575050565b7fe2517d3f00000000000000000000000000000000000000000000000000000000600090815291610d6d91600461248156fea26469706673582212206767c60acd55eb7ae788dfe9e4886d3eaccfb3959fa42d80b7157cb949cc593c64736f6c634300081c0033",
  "linkReferences": {},
  "deployedLinkReferences": {}
}