{
  "_format": "hh-sol-artifact-1",
  "contractName": "TeamVault",
  "sourceName": "contracts/vaults/TeamVault.sol",
  "abi": [
    {
      "inputs": [
        {
          "internalType": "contract IERC721",
          "name": "_gasback",
          "type": "address"
        },
        {
          "internalType": "contract IERC20",
          "name": "_battingToken",
          "type": "address"
        },
        {
          "internalType": "address",
          "name": "_manager",
          "type": "address"
        }
      ],
      "stateMutability": "nonpayable",
      "type": "constructor"
    },
    {
      "inputs": [],
      "name": "AccessControlBadConfirmation",
      "type": "error"
    },
    {
      "inputs": [
        {
          "internalType": "address",
          "name": "account",
          "type": "address"
        },
        {
          "internalType": "bytes32",
          "name": "neededRole",
          "type": "bytes32"
        }
      ],
      "name": "AccessControlUnauthorizedAccount",
      "type": "error"
    },
    {
      "anonymous": false,
      "inputs": [
        {
          "indexed": true,
          "internalType": "bytes32",
          "name": "role",
          "type": "bytes32"
        },
        {
          "indexed": true,
          "internalType": "bytes32",
          "name": "previousAdminRole",
          "type": "bytes32"
        },
        {
          "indexed": true,
          "internalType": "bytes32",
          "name": "newAdminRole",
          "type": "bytes32"
        }
      ],
      "name": "RoleAdminChanged",
      "type": "event"
    },
    {
      "anonymous": false,
      "inputs": [
        {
          "indexed": true,
          "internalType": "bytes32",
          "name": "role",
          "type": "bytes32"
        },
        {
          "indexed": true,
          "internalType": "address",
          "name": "account",
          "type": "address"
        },
        {
          "indexed": true,
          "internalType": "address",
          "name": "sender",
          "type": "address"
        }
      ],
      "name": "RoleGranted",
      "type": "event"
    },
    {
      "anonymous": false,
      "inputs": [
        {
          "indexed": true,
          "internalType": "bytes32",
          "name": "role",
          "type": "bytes32"
        },
        {
          "indexed": true,
          "internalType": "address",
          "name": "account",
          "type": "address"
        },
        {
          "indexed": true,
          "internalType": "address",
          "name": "sender",
          "type": "address"
        }
      ],
      "name": "RoleRevoked",
      "type": "event"
    },
    {
      "anonymous": false,
      "inputs": [
        {
          "indexed": true,
          "internalType": "address",
          "name": "user",
          "type": "address"
        },
        {
          "indexed": false,
          "internalType": "uint256",
          "name": "amount",
          "type": "uint256"
        }
      ],
      "name": "Withdraw",
      "type": "event"
    },
    {
      "inputs": [],
      "name": "DEFAULT_ADMIN_ROLE",
      "outputs": [
        {
          "internalType": "bytes32",
          "name": "",
          "type": "bytes32"
        }
      ],
      "stateMutability": "view",
      "type": "function"
    },
    {
      "inputs": [],
      "name": "battingToken",
      "outputs": [
        {
          "internalType": "contract IERC20",
          "name": "",
          "type": "address"
        }
      ],
      "stateMutability": "view",
      "type": "function"
    },
    {
      "inputs": [
        {
          "internalType": "bytes32",
          "name": "role",
          "type": "bytes32"
        }
      ],
      "name": "getRoleAdmin",
      "outputs": [
        {
          "internalType": "bytes32",
          "name": "",
          "type": "bytes32"
        }
      ],
      "stateMutability": "view",
      "type": "function"
    },
    {
      "inputs": [
        {
          "internalType": "bytes32",
          "name": "role",
          "type": "bytes32"
        },
        {
          "internalType": "address",
          "name": "account",
          "type": "address"
        }
      ],
      "name": "grantRole",
      "outputs": [],
      "stateMutability": "nonpayable",
      "type": "function"
    },
    {
      "inputs": [
        {
          "internalType": "bytes32",
          "name": "role",
          "type": "bytes32"
        },
        {
          "internalType": "address",
          "name": "account",
          "type": "address"
        }
      ],
      "name": "hasRole",
      "outputs": [
        {
          "internalType": "bool",
          "name": "",
          "type": "bool"
        }
      ],
      "stateMutability": "view",
      "type": "function"
    },
    {
      "inputs": [
        {
          "internalType": "address",
          "name": "operator",
          "type": "address"
        },
        {
          "internalType": "address",
          "name": "from",
          "type": "address"
        },
        {
          "internalType": "uint256",
          "name": "tokenId",
          "type": "uint256"
        },
        {
          "internalType": "bytes",
          "name": "data",
          "type": "bytes"
        }
      ],
      "name": "onERC721Received",
      "outputs": [
        {
          "internalType": "bytes4",
          "name": "",
          "type": "bytes4"
        }
      ],
      "stateMutability": "nonpayable",
      "type": "function"
    },
    {
      "inputs": [
        {
          "internalType": "bytes32",
          "name": "role",
          "type": "bytes32"
        },
        {
          "internalType": "address",
          "name": "callerConfirmation",
          "type": "address"
        }
      ],
      "name": "renounceRole",
      "outputs": [],
      "stateMutability": "nonpayable",
      "type": "function"
    },
    {
      "inputs": [
        {
          "internalType": "bytes32",
          "name": "role",
          "type": "bytes32"
        },
        {
          "internalType": "address",
          "name": "account",
          "type": "address"
        }
      ],
      "name": "revokeRole",
      "outputs": [],
      "stateMutability": "nonpayable",
      "type": "function"
    },
    {
      "inputs": [
        {
          "internalType": "contract IERC20",
          "name": "_battingToken",
          "type": "address"
        }
      ],
      "name": "setBattingToken",
      "outputs": [],
      "stateMutability": "nonpayable",
      "type": "function"
    },
    {
      "inputs": [
        {
          "internalType": "bytes4",
          "name": "interfaceId",
          "type": "bytes4"
        }
      ],
      "name": "supportsInterface",
      "outputs": [
        {
          "internalType": "bool",
          "name": "",
          "type": "bool"
        }
      ],
      "stateMutability": "view",
      "type": "function"
    },
    {
      "inputs": [
        {
          "internalType": "address",
          "name": "_receiver",
          "type": "address"
        }
      ],
      "name": "withdraw",
      "outputs": [],
      "stateMutability": "nonpayable",
      "type": "function"
    },
    {
      "inputs": [
        {
          "internalType": "address",
          "name": "_receiver",
          "type": "address"
        },
        {
          "internalType": "uint256",
          "name": "_tokenId",
          "type": "uint256"
        }
      ],
      "name": "withdrawGasbackNFT",
      "outputs": [],
      "stateMutability": "nonpayable",
      "type": "function"
    }
  ],
  "bytecode": "0x60a0604052346100345761001a610014610105565b916101be565b604051610ca16102dd823960805181610a6a0152610ca190f35b600080fd5b634e487b7160e01b600052604160045260246000fd5b90601f01601f191681019081106001600160401b0382111761007057604052565b610039565b9061008961008260405190565b928361004f565b565b6001600160a01b031690565b90565b6001600160a01b0381165b0361003457565b905051906100898261009a565b6001600160a01b0381166100a5565b90505190610089826100b9565b9091606082840312610034576100976100ee84846100ac565b9360406100fe82602087016100ac565b94016100c8565b610123610f7e8038038061011881610075565b9283398101906100d5565b909192565b906001600160a01b03905b9181191691161790565b6100979061008b906001600160a01b031682565b6100979061013d565b61009790610151565b9061017361009761017a9261015a565b8254610128565b9055565b6100976100976100979290565b610097600061017e565b6100977faf290d8680820aad922855f39b306097b20e28774d6c1ad35a20325630c3a02c61017e565b6101f192916101d1916080526001610163565b6101e36101dc61018b565b339061022e565b506101ec610195565b61022e565b50565b905b600052602052604060002090565b906101f69061015a565b9060ff90610133565b9061022761009761017a92151590565b825461020e565b61023f61023b83836102b9565b1590565b156102b257610264600161025f84600061025986826101f4565b01610204565b610217565b61027e610278610272339390565b9361015a565b9161015a565b917f2f8788117e7eff1d82e926ec794901d17c78024a50270940304540a733656f0d6102a960405190565b600090a4600190565b5050600090565b6100979160006102596102d5936102ce600090565b50826101f4565b5460ff169056fe6080604052600436101561001257600080fd5b60003560e01c806301ffc9a7146100d2578063150b7a02146100cd578063248a9ca3146100c85780632f2ff15d146100c357806336568abe146100be5780634afb356e146100b957806351cff8d9146100b457806391d14854146100af578063a217fddf146100aa578063d547741f146100a5578063ed52b575146100a05763f5c3bc2803610102576104b5565b61047a565b610461565b610446565b61040b565b6103f3565b6103b8565b61030e565b6102f0565b6102a1565b61023b565b610131565b7fffffffff0000000000000000000000000000000000000000000000000000000081165b0361010257565b600080fd5b90503590610114826100d7565b565b906020828203126101025761012a91610107565b90565b9052565b346101025761015e61014c610147366004610116565b6104ce565b60405191829182901515815260200190565b0390f35b73ffffffffffffffffffffffffffffffffffffffff1690565b73ffffffffffffffffffffffffffffffffffffffff81166100fb565b905035906101148261017b565b806100fb565b90503590610114826101a4565b909182601f830112156101025781359167ffffffffffffffff831161010257602001926001830284011161010257565b90608082820312610102576101fc8183610197565b9261020a8260208501610197565b9261021883604083016101aa565b92606082013567ffffffffffffffff81116101025761023792016101b7565b9091565b346101025761015e61025a6102513660046101e7565b9392909261056a565b604051918291827fffffffff00000000000000000000000000000000000000000000000000000000909116815260200190565b906020828203126101025761012a916101aa565b346101025761015e6102bc6102b736600461028d565b6105bd565b6040515b9182918290815260200190565b91906040838203126101025761012a9060206102e982866101aa565b9401610197565b34610102576103096103033660046102cd565b906105ff565b604051005b34610102576103096103213660046102cd565b90610609565b600091031261010257565b61012a916008021c73ffffffffffffffffffffffffffffffffffffffff1690565b9061012a9154610332565b61012a60006001610353565b61016261012a61012a9273ffffffffffffffffffffffffffffffffffffffff1690565b61012a9061036a565b61012a9061038d565b61012d90610396565b602081019291610114919061039f565b34610102576103c8366004610327565b61015e6103d361035e565b604051918291826103a8565b906020828203126101025761012a91610197565b34610102576103096104063660046103df565b610941565b346101025761015e61014c6104213660046102cd565b90610954565b61012a61012a61012a9290565b61012a6000610427565b61012a610434565b3461010257610456366004610327565b61015e6102bc61043e565b34610102576103096104743660046102cd565b90610998565b346101025761030961048d3660046103df565b6109fe565b91906040838203126101025761012a9060206104ae8286610197565b94016101aa565b34610102576103096104c8366004610492565b90610b0d565b7f7965db0b000000000000000000000000000000000000000000000000000000007fffffffff0000000000000000000000000000000000000000000000000000000082161490811561051e575090565b61012a91507fffffffff00000000000000000000000000000000000000000000000000000000167f01ffc9a7000000000000000000000000000000000000000000000000000000001490565b5050505050610577600090565b507f150b7a020000000000000000000000000000000000000000000000000000000090565b905b600052602052604060002090565b61012a9081565b61012a90546105ac565b60016105d661012a926105ce600090565b50600061059c565b016105b3565b90610114916105f26105ed826105bd565b610b17565b906105fc91610b42565b50565b90610114916105dc565b9061061333610162565b73ffffffffffffffffffffffffffffffffffffffff821603610638576105fc91610bc7565b7f6697b23200000000000000000000000000000000000000000000000000000000600090815260045b036000fd5b61012a7faf290d8680820aad922855f39b306097b20e28774d6c1ad35a20325630c3a02c610427565b6101149061069e6105ed610666565b610797565b7f4e487b7100000000000000000000000000000000000000000000000000000000600052604160045260246000fd5b90601f017fffffffffffffffffffffffffffffffffffffffffffffffffffffffffffffffe016810190811067ffffffffffffffff82111761071257604052565b6106a3565b90505190610114826101a4565b906020828203126101025761012a91610717565b6040513d6000823e3d90fd5b8015156100fb565b9050519061011482610744565b906020828203126101025761012a9161074c565b73ffffffffffffffffffffffffffffffffffffffff90911681526040810192916101149160200152565b6108259060206107c46107bf60015473ffffffffffffffffffffffffffffffffffffffff1690565b610396565b6107cd30610396565b906107d760405190565b948592839182917f70a082310000000000000000000000000000000000000000000000000000000083526004830173ffffffffffffffffffffffffffffffffffffffff909116815260200190565b03915afa9182156109065760009261090b575b5060208261088d926108626107bf60015473ffffffffffffffffffffffffffffffffffffffff1690565b90600061086e60405190565b80968195829461088263a9059cbb60e01b90565b84526004840161076d565b03925af18015610906576108d9575b507f884edad9ce6fa2440d8a54cc123490eb96d2768479d49ff9c7366125a94243646108d46108ca33610396565b926102c060405190565b0390a2565b6108fa9060203d6020116108ff575b6108f281836106d2565b810190610759565b61089c565b503d6108e8565b610738565b61088d919250610932602091823d841161093a575b61092a81836106d2565b810190610724565b929150610838565b503d610920565b6101149061068f565b9061059e90610396565b61012a91600061097061097693610969600090565b508261059c565b0161094a565b5460ff1690565b906101149161098e6105ed826105bd565b906105fc91610bc7565b906101149161097d565b610114906109b16105ed610666565b6109f3565b9073ffffffffffffffffffffffffffffffffffffffff905b9181191691161790565b906109e861012a6109ef92610396565b82546109b6565b9055565b6101149060016109d8565b610114906109a2565b9061011491610a176105ed610666565b610a64565b73ffffffffffffffffffffffffffffffffffffffff91821681529116602082015261012a91608082019190610a52906040830152565b60608183039101526000815260200190565b90610a8e7f0000000000000000000000000000000000000000000000000000000000000000610396565b90610a9830610396565b91803b1561010257610ae49360008094610ab160405190565b968795869485937fb88d4fde00000000000000000000000000000000000000000000000000000000855260048501610a1c565b03925af1801561090657610af55750565b610114906000610b0581836106d2565b810190610327565b9061011491610a07565b610114903390610c23565b9060ff906109ce565b90610b3b61012a6109ef92151590565b8254610b22565b610b53610b4f8383610954565b1590565b15610bc057610b726001610b6d846000610970868261059c565b610b2b565b610b8c610b86610b80339390565b93610396565b91610396565b917f2f8788117e7eff1d82e926ec794901d17c78024a50270940304540a733656f0d610bb760405190565b600090a4600190565b5050600090565b610bd18282610954565b15610bc057610bea6000610b6d8482610970868261059c565b610bf8610b86610b80339390565b917ff6391f5c32d9c69d2a47ea670b442974b53935d1edc7fd64eb21e047a839171b610bb760405190565b90610c31610b4f8284610954565b610c39575050565b7fe2517d3f0000000000000000000000000000000000000000000000000000000060009081529161066191600461076d56fea2646970667358221220c31dbc374850031f822b704f25be17f778686ce30c4e32f7576cec771c8d738764736f6c634300081c0033",
  "linkReferences": {},
  "deployedLinkReferences": {}
}