{
  "_format": "hh-sol-artifact-1",
  "contractName": "TokenMarket",
  "sourceName": "contracts/tokenMarket/tokenMarket.sol",
  "abi": [
    {
      "inputs": [
        {
          "internalType": "contract ILatch",
          "name": "_saleToken",
          "type": "address"
        }
      ],
      "stateMutability": "nonpayable",
      "type": "constructor"
    },
    {
      "inputs": [],
      "name": "AccessControlBadConfirmation",
      "type": "error"
    },
    {
      "inputs": [
        {
          "internalType": "address",
          "name": "account",
          "type": "address"
        },
        {
          "internalType": "bytes32",
          "name": "neededRole",
          "type": "bytes32"
        }
      ],
      "name": "AccessControlUnauthorizedAccount",
      "type": "error"
    },
    {
      "inputs": [],
      "name": "ReentrancyGuardReentrantCall",
      "type": "error"
    },
    {
      "inputs": [],
      "name": "insufficientAmount",
      "type": "error"
    },
    {
      "inputs": [],
      "name": "tooSmallAmount",
      "type": "error"
    },
    {
      "inputs": [],
      "name": "transactionFailed",
      "type": "error"
    },
    {
      "anonymous": false,
      "inputs": [
        {
          "indexed": true,
          "internalType": "address",
          "name": "buyer",
          "type": "address"
        },
        {
          "indexed": false,
          "internalType": "uint256",
          "name": "tokenAmount",
          "type": "uint256"
        }
      ],
      "name": "Buy",
      "type": "event"
    },
    {
      "anonymous": false,
      "inputs": [
        {
          "indexed": true,
          "internalType": "bytes32",
          "name": "role",
          "type": "bytes32"
        },
        {
          "indexed": true,
          "internalType": "bytes32",
          "name": "previousAdminRole",
          "type": "bytes32"
        },
        {
          "indexed": true,
          "internalType": "bytes32",
          "name": "newAdminRole",
          "type": "bytes32"
        }
      ],
      "name": "RoleAdminChanged",
      "type": "event"
    },
    {
      "anonymous": false,
      "inputs": [
        {
          "indexed": true,
          "internalType": "bytes32",
          "name": "role",
          "type": "bytes32"
        },
        {
          "indexed": true,
          "internalType": "address",
          "name": "account",
          "type": "address"
        },
        {
          "indexed": true,
          "internalType": "address",
          "name": "sender",
          "type": "address"
        }
      ],
      "name": "RoleGranted",
      "type": "event"
    },
    {
      "anonymous": false,
      "inputs": [
        {
          "indexed": true,
          "internalType": "bytes32",
          "name": "role",
          "type": "bytes32"
        },
        {
          "indexed": true,
          "internalType": "address",
          "name": "account",
          "type": "address"
        },
        {
          "indexed": true,
          "internalType": "address",
          "name": "sender",
          "type": "address"
        }
      ],
      "name": "RoleRevoked",
      "type": "event"
    },
    {
      "anonymous": false,
      "inputs": [
        {
          "indexed": true,
          "internalType": "address",
          "name": "seller",
          "type": "address"
        },
        {
          "indexed": false,
          "internalType": "uint256",
          "name": "ethAmount",
          "type": "uint256"
        }
      ],
      "name": "Sell",
      "type": "event"
    },
    {
      "inputs": [],
      "name": "DEFAULT_ADMIN_ROLE",
      "outputs": [
        {
          "internalType": "bytes32",
          "name": "",
          "type": "bytes32"
        }
      ],
      "stateMutability": "view",
      "type": "function"
    },
    {
      "inputs": [],
      "name": "SALE_TOKEN",
      "outputs": [
        {
          "internalType": "contract ILatch",
          "name": "",
          "type": "address"
        }
      ],
      "stateMutability": "view",
      "type": "function"
    },
    {
      "inputs": [
        {
          "internalType": "uint256",
          "name": "_amount",
          "type": "uint256"
        }
      ],
      "name": "buyToken",
      "outputs": [],
      "stateMutability": "payable",
      "type": "function"
    },
    {
      "inputs": [
        {
          "internalType": "bytes32",
          "name": "role",
          "type": "bytes32"
        }
      ],
      "name": "getRoleAdmin",
      "outputs": [
        {
          "internalType": "bytes32",
          "name": "",
          "type": "bytes32"
        }
      ],
      "stateMutability": "view",
      "type": "function"
    },
    {
      "inputs": [
        {
          "internalType": "bytes32",
          "name": "role",
          "type": "bytes32"
        },
        {
          "internalType": "address",
          "name": "account",
          "type": "address"
        }
      ],
      "name": "grantRole",
      "outputs": [],
      "stateMutability": "nonpayable",
      "type": "function"
    },
    {
      "inputs": [
        {
          "internalType": "bytes32",
          "name": "role",
          "type": "bytes32"
        },
        {
          "internalType": "address",
          "name": "account",
          "type": "address"
        }
      ],
      "name": "hasRole",
      "outputs": [
        {
          "internalType": "bool",
          "name": "",
          "type": "bool"
        }
      ],
      "stateMutability": "view",
      "type": "function"
    },
    {
      "inputs": [],
      "name": "pricePerToken",
      "outputs": [
        {
          "internalType": "uint256",
          "name": "",
          "type": "uint256"
        }
      ],
      "stateMutability": "view",
      "type": "function"
    },
    {
      "inputs": [
        {
          "internalType": "bytes32",
          "name": "role",
          "type": "bytes32"
        },
        {
          "internalType": "address",
          "name": "callerConfirmation",
          "type": "address"
        }
      ],
      "name": "renounceRole",
      "outputs": [],
      "stateMutability": "nonpayable",
      "type": "function"
    },
    {
      "inputs": [
        {
          "internalType": "bytes32",
          "name": "role",
          "type": "bytes32"
        },
        {
          "internalType": "address",
          "name": "account",
          "type": "address"
        }
      ],
      "name": "revokeRole",
      "outputs": [],
      "stateMutability": "nonpayable",
      "type": "function"
    },
    {
      "inputs": [
        {
          "internalType": "uint256",
          "name": "_amount",
          "type": "uint256"
        }
      ],
      "name": "sellToken",
      "outputs": [],
      "stateMutability": "nonpayable",
      "type": "function"
    },
    {
      "inputs": [
        {
          "internalType": "uint256",
          "name": "_pricePerToken",
          "type": "uint256"
        }
      ],
      "name": "setPricePerToken",
      "outputs": [],
      "stateMutability": "nonpayable",
      "type": "function"
    },
    {
      "inputs": [
        {
          "internalType": "bytes4",
          "name": "interfaceId",
          "type": "bytes4"
        }
      ],
      "name": "supportsInterface",
      "outputs": [
        {
          "internalType": "bool",
          "name": "",
          "type": "bool"
        }
      ],
      "stateMutability": "view",
      "type": "function"
    }
  ],
  "bytecode": "0x60a060405234610041576100196100146100d9565b610162565b604051610e4a6102e182396080518181816103990152818161064c015261093f0152610e4a90f35b600080fd5b634e487b7160e01b600052604160045260246000fd5b90601f01601f191681019081106001600160401b0382111761007d57604052565b610046565b9061009661008f60405190565b928361005c565b565b6001600160a01b031690565b90565b6001600160a01b0381160361004157565b90505190610096826100a7565b90602082820312610041576100a4916100b8565b6100a461112b803803806100ec81610082565b9283398101906100c5565b90600019905b9181191691161790565b6100a46100a46100a49290565b906101246100a461012b92610107565b82546100f7565b9055565b6100a46000610107565b6100a47faf290d8680820aad922855f39b306097b20e28774d6c1ad35a20325630c3a02c610107565b61016a6101a0565b61017c66038d7ea4c680006002610114565b60805261019161018a61012f565b3390610230565b5061019d61018a610139565b50565b6100966100966100966100966100966101be565b6100a46001610107565b6100966101c96101b4565b6000610114565b905b600052602052604060002090565b6100a490610098906001600160a01b031682565b6100a4906101e0565b6100a4906101f4565b906101d2906101fd565b9060ff906100fd565b906102296100a461012b92151590565b8254610210565b9061024261023e82846102bc565b1590565b156102b5576001916102698361026484600061025e86856101d0565b01610206565b610219565b61028361027d610277339390565b936101fd565b916101fd565b917f2f8788117e7eff1d82e926ec794901d17c78024a50270940304540a733656f0d6102ae60405190565b600090a490565b5050600090565b6100a491600061025e6102d9936102d1600090565b5060016101d0565b5460ff169056fe6080604052600436101561001257600080fd5b60003560e01c806301ffc9a7146100d25780632397e4d7146100cd578063248a9ca3146100c85780632bf2762f146100c35780632d296bf1146100be5780632f2ff15d146100b957806336568abe146100b45780637b1b1de6146100af57806391d14854146100aa578063a217fddf146100a5578063b8ac77a4146100a05763d547741f03610102576103be565b610380565b610317565b6102dc565b6102c1565b61027b565b610262565b6101ea565b6101d2565b6101a6565b610189565b610131565b7fffffffff0000000000000000000000000000000000000000000000000000000081165b0361010257565b600080fd5b90503590610114826100d7565b565b906020828203126101025761012a91610107565b90565b9052565b346101025761015e61014c610147366004610116565b6103d7565b60405191829182901515815260200190565b0390f35b806100fb565b9050359061011482610162565b906020828203126101025761012a91610168565b34610102576101a161019c366004610175565b6107f4565b604051005b346101025761015e6101c16101bc366004610175565b61080d565b6040515b9182918290815260200190565b34610102576101a16101e5366004610175565b6108c1565b6101a16101f8366004610175565b610a80565b73ffffffffffffffffffffffffffffffffffffffff1690565b73ffffffffffffffffffffffffffffffffffffffff81166100fb565b9050359061011482610216565b91906040838203126101025761012a90602061025b8286610168565b9401610232565b34610102576101a161027536600461023f565b90610aa7565b34610102576101a161028e36600461023f565b90610ab1565b600091031261010257565b61012a916008021c81565b9061012a915461029f565b61012a600060026102aa565b34610102576102d1366004610294565b61015e6101c16102b5565b346101025761015e61014c6102f236600461023f565b90610b18565b61012a61012a61012a9290565b61012a60006102f8565b61012a610305565b3461010257610327366004610294565b61015e6101c161030f565b6101fd61012a61012a9273ffffffffffffffffffffffffffffffffffffffff1690565b61012a90610332565b61012a90610355565b61012d9061035e565b6020810192916101149190610367565b3461010257610390366004610294565b6040518061015e7f000000000000000000000000000000000000000000000000000000000000000082610370565b34610102576101a16103d136600461023f565b90610b5d565b7f7965db0b000000000000000000000000000000000000000000000000000000007fffffffff00000000000000000000000000000000000000000000000000000000821614908115610427575090565b61012a91507fffffffff00000000000000000000000000000000000000000000000000000000167f01ffc9a7000000000000000000000000000000000000000000000000000000001490565b6104849061047f610b71565b610607565b610114610bca565b61012a9081565b61012a905461048c565b7f4e487b7100000000000000000000000000000000000000000000000000000000600052601160045260246000fd5b818102929181159184041417156104df57565b61049d565b7f4e487b7100000000000000000000000000000000000000000000000000000000600052601260045260246000fd5b9061051d565b9190565b908115610528570490565b6104e4565b7f4e487b7100000000000000000000000000000000000000000000000000000000600052604160045260246000fd5b90601f017fffffffffffffffffffffffffffffffffffffffffffffffffffffffffffffffe016810190811067ffffffffffffffff82111761059c57604052565b61052d565b8015156100fb565b90505190610114826105a1565b906020828203126101025761012a916105a9565b73ffffffffffffffffffffffffffffffffffffffff9182168152911660208201526060810192916101149160400152565b6040513d6000823e3d90fd5b61063461061d6106176002610493565b836104cc565b61062e670de0b6b3a76400006102f8565b90610513565b90600090610641826102f8565b83146107cb576106707f000000000000000000000000000000000000000000000000000000000000000061035e565b6106b460208361067f3061035e565b60405193849283927f23b872dd00000000000000000000000000000000000000000000000000000000845233600485016105ca565b038187865af180156107995761079e575b50803b156101025761071683929183926106de60405190565b94859384928391907f42966c680000000000000000000000000000000000000000000000000000000083526004830190815260200190565b03925af180156107995761076c575b505061073081610c61565b7f5e5e995ce3133561afceaa51a9a154d5db228cd7525d34df5185582c18d3df0961076761075d3361035e565b926101c560405190565b0390a2565b8161078b92903d10610792575b610783818361055c565b810190610294565b3880610725565b503d610779565b6105fb565b6107bf9060203d6020116107c4575b6107b7818361055c565b8101906105b6565b6106c5565b503d6107ad565b507fd84739b1000000000000000000000000000000000000000000000000000000008152600490fd5b61011490610473565b905b600052602052604060002090565b600161082561012a9261081e600090565b50826107fd565b01610493565b61012a7faf290d8680820aad922855f39b306097b20e28774d6c1ad35a20325630c3a02c6102f8565b6101149061086861086361082b565b610cb5565b6108b6565b907fffffffffffffffffffffffffffffffffffffffffffffffffffffffffffffffff905b9181191691161790565b906108ab61012a6108b2926102f8565b825461086d565b9055565b61011490600261089b565b61011490610854565b610484906108d6610b71565b610912565b73ffffffffffffffffffffffffffffffffffffffff90911681526040810192916101149160200152565b919082039182116104df57565b61092261061d6106176002610493565b600061092d816102f8565b8214610a5857813410610a30576109637f000000000000000000000000000000000000000000000000000000000000000061035e565b803b15610102578161097460405190565b9182907f40c10f190000000000000000000000000000000000000000000000000000000082528183816109ab8a33600484016108db565b03925af1801561079957610a14575b506109d16105196109cb8434610905565b926102f8565b11610a05575b507fe3d4187f6ca4248660cc0ac8b8056515bac4a8132be2eca31d6d0cc170722a7e61076761075d3361035e565b610a0e90610c61565b386109d7565b610a2a90823d841161079257610783818361055c565b386109ba565b7f59c4221c000000000000000000000000000000000000000000000000000000008152600490fd5b7fd84739b1000000000000000000000000000000000000000000000000000000008152600490fd5b610114906108ca565b9061011491610a9a6108638261080d565b90610aa491610ce0565b50565b9061011491610a89565b90610abb336101fd565b73ffffffffffffffffffffffffffffffffffffffff821603610ae057610aa491610d66565b7f6697b23200000000000000000000000000000000000000000000000000000000600090815260045b036000fd5b906107ff9061035e565b61012a916000610b35610b3b93610b2d600090565b5060016107fd565b01610b0e565b5460ff1690565b9061011491610b536108638261080d565b90610aa491610d66565b9061011491610b42565b61012a60026102f8565b610b7b6000610493565b610b83610b67565b908114610b955761011490600061089b565b7f3ee5aeb5000000000000000000000000000000000000000000000000000000006000908152600490fd5b61012a60016102f8565b610114610bd5610bc0565b600061089b565b90610114610be960405190565b928361055c565b67ffffffffffffffff811161059c57602090601f017fffffffffffffffffffffffffffffffffffffffffffffffffffffffffffffffe0160190565b90610c3d610c3883610bf0565b610bdc565b918252565b3d15610c5c57610c513d610c2b565b903d6000602084013e565b606090565b600080610c8492610c7160405190565b600091335af1610c7f610c42565b501590565b610c8a57565b7fdccf81a9000000000000000000000000000000000000000000000000000000006000908152600490fd5b610114903390610dcc565b9060ff90610891565b90610cd961012a6108b292151590565b8254610cc0565b90610cf2610cee8284610b18565b1590565b15610d5f57600191610d1383610d0e846000610b3586856107fd565b610cc9565b610d2d610d27610d21339390565b9361035e565b9161035e565b917f2f8788117e7eff1d82e926ec794901d17c78024a50270940304540a733656f0d610d5860405190565b600090a490565b5050600090565b610d708282610b18565b15610d5f57610d8a6000610d0e8482610b358660016107fd565b610d98610d27610d21339390565b917ff6391f5c32d9c69d2a47ea670b442974b53935d1edc7fd64eb21e047a839171b610dc360405190565b600090a4600190565b90610dda610cee8284610b18565b610de2575050565b7fe2517d3f00000000000000000000000000000000000000000000000000000000600090815291610b099160046108db56fea26469706673582212201167e95c01440766e96324747606fcb60af5a9954cf4b609bf00227838beb29264736f6c634300081c0033",
  "linkReferences": {},
  "deployedLinkReferences": {}
}