{
  "_format": "hh-sol-artifact-1",
  "contractName": "BridgeVault",
  "sourceName": "contracts/vaults/bridgeVault.sol",
  "abi": [
    {
      "inputs": [],
      "stateMutability": "nonpayable",
      "type": "constructor"
    },
    {
      "inputs": [],
      "name": "AccessControlBadConfirmation",
      "type": "error"
    },
    {
      "inputs": [
        {
          "internalType": "address",
          "name": "account",
          "type": "address"
        },
        {
          "internalType": "bytes32",
          "name": "neededRole",
          "type": "bytes32"
        }
      ],
      "name": "AccessControlUnauthorizedAccount",
      "type": "error"
    },
    {
      "anonymous": false,
      "inputs": [
        {
          "indexed": true,
          "internalType": "bytes32",
          "name": "role",
          "type": "bytes32"
        },
        {
          "indexed": true,
          "internalType": "bytes32",
          "name": "previousAdminRole",
          "type": "bytes32"
        },
        {
          "indexed": true,
          "internalType": "bytes32",
          "name": "newAdminRole",
          "type": "bytes32"
        }
      ],
      "name": "RoleAdminChanged",
      "type": "event"
    },
    {
      "anonymous": false,
      "inputs": [
        {
          "indexed": true,
          "internalType": "bytes32",
          "name": "role",
          "type": "bytes32"
        },
        {
          "indexed": true,
          "internalType": "address",
          "name": "account",
          "type": "address"
        },
        {
          "indexed": true,
          "internalType": "address",
          "name": "sender",
          "type": "address"
        }
      ],
      "name": "RoleGranted",
      "type": "event"
    },
    {
      "anonymous": false,
      "inputs": [
        {
          "indexed": true,
          "internalType": "bytes32",
          "name": "role",
          "type": "bytes32"
        },
        {
          "indexed": true,
          "internalType": "address",
          "name": "account",
          "type": "address"
        },
        {
          "indexed": true,
          "internalType": "address",
          "name": "sender",
          "type": "address"
        }
      ],
      "name": "RoleRevoked",
      "type": "event"
    },
    {
      "inputs": [],
      "name": "DEFAULT_ADMIN_ROLE",
      "outputs": [
        {
          "internalType": "bytes32",
          "name": "",
          "type": "bytes32"
        }
      ],
      "stateMutability": "view",
      "type": "function"
    },
    {
      "inputs": [
        {
          "internalType": "bytes32",
          "name": "role",
          "type": "bytes32"
        }
      ],
      "name": "getRoleAdmin",
      "outputs": [
        {
          "internalType": "bytes32",
          "name": "",
          "type": "bytes32"
        }
      ],
      "stateMutability": "view",
      "type": "function"
    },
    {
      "inputs": [
        {
          "internalType": "bytes32",
          "name": "role",
          "type": "bytes32"
        },
        {
          "internalType": "address",
          "name": "account",
          "type": "address"
        }
      ],
      "name": "grantRole",
      "outputs": [],
      "stateMutability": "nonpayable",
      "type": "function"
    },
    {
      "inputs": [
        {
          "internalType": "bytes32",
          "name": "role",
          "type": "bytes32"
        },
        {
          "internalType": "address",
          "name": "account",
          "type": "address"
        }
      ],
      "name": "hasRole",
      "outputs": [
        {
          "internalType": "bool",
          "name": "",
          "type": "bool"
        }
      ],
      "stateMutability": "view",
      "type": "function"
    },
    {
      "inputs": [
        {
          "internalType": "address",
          "name": "_receiver",
          "type": "address"
        },
        {
          "internalType": "address",
          "name": "_item",
          "type": "address"
        },
        {
          "internalType": "uint256",
          "name": "_tokenId",
          "type": "uint256"
        }
      ],
      "name": "moveERC1155Item",
      "outputs": [],
      "stateMutability": "nonpayable",
      "type": "function"
    },
    {
      "inputs": [
        {
          "internalType": "address",
          "name": "_receiver",
          "type": "address"
        },
        {
          "internalType": "address",
          "name": "_item",
          "type": "address"
        },
        {
          "internalType": "uint256",
          "name": "_tokenId",
          "type": "uint256"
        }
      ],
      "name": "moveERC721Item",
      "outputs": [],
      "stateMutability": "nonpayable",
      "type": "function"
    },
    {
      "inputs": [
        {
          "internalType": "address",
          "name": "",
          "type": "address"
        },
        {
          "internalType": "address",
          "name": "",
          "type": "address"
        },
        {
          "internalType": "uint256[]",
          "name": "",
          "type": "uint256[]"
        },
        {
          "internalType": "uint256[]",
          "name": "",
          "type": "uint256[]"
        },
        {
          "internalType": "bytes",
          "name": "",
          "type": "bytes"
        }
      ],
      "name": "onERC1155BatchReceived",
      "outputs": [
        {
          "internalType": "bytes4",
          "name": "",
          "type": "bytes4"
        }
      ],
      "stateMutability": "nonpayable",
      "type": "function"
    },
    {
      "inputs": [
        {
          "internalType": "address",
          "name": "",
          "type": "address"
        },
        {
          "internalType": "address",
          "name": "",
          "type": "address"
        },
        {
          "internalType": "uint256",
          "name": "",
          "type": "uint256"
        },
        {
          "internalType": "uint256",
          "name": "",
          "type": "uint256"
        },
        {
          "internalType": "bytes",
          "name": "",
          "type": "bytes"
        }
      ],
      "name": "onERC1155Received",
      "outputs": [
        {
          "internalType": "bytes4",
          "name": "",
          "type": "bytes4"
        }
      ],
      "stateMutability": "nonpayable",
      "type": "function"
    },
    {
      "inputs": [
        {
          "internalType": "address",
          "name": "",
          "type": "address"
        },
        {
          "internalType": "address",
          "name": "",
          "type": "address"
        },
        {
          "internalType": "uint256",
          "name": "",
          "type": "uint256"
        },
        {
          "internalType": "bytes",
          "name": "",
          "type": "bytes"
        }
      ],
      "name": "onERC721Received",
      "outputs": [
        {
          "internalType": "bytes4",
          "name": "",
          "type": "bytes4"
        }
      ],
      "stateMutability": "nonpayable",
      "type": "function"
    },
    {
      "inputs": [
        {
          "internalType": "bytes32",
          "name": "role",
          "type": "bytes32"
        },
        {
          "internalType": "address",
          "name": "callerConfirmation",
          "type": "address"
        }
      ],
      "name": "renounceRole",
      "outputs": [],
      "stateMutability": "nonpayable",
      "type": "function"
    },
    {
      "inputs": [
        {
          "internalType": "bytes32",
          "name": "role",
          "type": "bytes32"
        },
        {
          "internalType": "address",
          "name": "account",
          "type": "address"
        }
      ],
      "name": "revokeRole",
      "outputs": [],
      "stateMutability": "nonpayable",
      "type": "function"
    },
    {
      "inputs": [
        {
          "internalType": "bytes4",
          "name": "interfaceId",
          "type": "bytes4"
        }
      ],
      "name": "supportsInterface",
      "outputs": [
        {
          "internalType": "bool",
          "name": "",
          "type": "bool"
        }
      ],
      "stateMutability": "view",
      "type": "function"
    }
  ],
  "bytecode": "0x60806040523461002257610011610041565b604051610d416101928239610d4190f35b600080fd5b6100346100346100349290565b90565b6100346000610027565b61005361004c610037565b33906100d3565b50565b9061006090610034565b600052602052604060002090565b61003490610082906001600160a01b031682565b6001600160a01b031690565b6100349061006e565b6100349061008e565b9061006090610097565b151590565b906100bf6100346100cf926100aa565b825460ff191660ff919091161790565b9055565b6100e46100e08383610170565b1590565b156101595761010960016101048460006100fe8682610056565b016100a0565b6100af565b61012561011f6101193393610034565b93610097565b91610097565b917f2f8788117e7eff1d82e926ec794901d17c78024a50270940304540a733656f0d61015060405190565b600090a4600190565b5050600090565b60ff1690565b6100349054610160565b6100349160006100fe61018c93610185600090565b5082610056565b61016656fe6080604052600436101561001257600080fd5b60003560e01c806301ffc9a7146100d2578063150b7a02146100cd578063248a9ca3146100c85780632f2ff15d146100c3578063308de502146100be57806336568abe146100b957806391d14854146100b4578063a217fddf146100af578063ac679d27146100aa578063bc197c81146100a5578063d547741f146100a05763f23a6e61036101025761064d565b6105f3565b6105d4565b6104b5565b61049a565b610454565b61043b565b610422565b6103d4565b610386565b610320565b610131565b7fffffffff0000000000000000000000000000000000000000000000000000000081165b0361010257565b600080fd5b90503590610114826100d7565b565b906020828203126101025761012a91610107565b90565b9052565b346101025761015e61014c610147366004610116565b61066c565b60405191829182901515815260200190565b0390f35b73ffffffffffffffffffffffffffffffffffffffff1690565b73ffffffffffffffffffffffffffffffffffffffff81166100fb565b905035906101148261017b565b806100fb565b90503590610114826101a4565b7f4e487b7100000000000000000000000000000000000000000000000000000000600052604160045260246000fd5b90601f017fffffffffffffffffffffffffffffffffffffffffffffffffffffffffffffffe016810190811067ffffffffffffffff82111761022657604052565b6101b7565b9061011461023860405190565b92836101e6565b67ffffffffffffffff811161022657602090601f017fffffffffffffffffffffffffffffffffffffffffffffffffffffffffffffffe0160190565b90826000939282370152565b9092919261029b6102968261023f565b61022b565b93818552818301116101025761011491602085019061027a565b9080601f830112156101025781602061012a93359101610286565b90608082820312610102576102e58183610197565b926102f38260208501610197565b9261030183604083016101aa565b92606082013567ffffffffffffffff81116101025761012a92016102b5565b346101025761015e61033f6103363660046102d0565b929190916106df565b604051918291827fffffffff00000000000000000000000000000000000000000000000000000000909116815260200190565b906020828203126101025761012a916101aa565b346101025761015e6103a161039c366004610372565b61071a565b6040519182918290815260200190565b91906040838203126101025761012a9060206103cd82866101aa565b9401610197565b34610102576103ed6103e73660046103b1565b9061075c565b604051005b90916060828403126101025761012a61040b8484610197565b93604061041b8260208701610197565b94016101aa565b34610102576103ed6104353660046103f2565b91610899565b34610102576103ed61044e3660046103b1565b906108a4565b346101025761015e61014c61046a3660046103b1565b9061090b565b600091031261010257565b61012a61012a61012a9290565b61012a600061047b565b61012a610488565b34610102576104aa366004610470565b61015e6103a1610492565b34610102576103ed6104c83660046103f2565b91610a0f565b67ffffffffffffffff81116102265760208091020190565b909291926104f6610296826104ce565b938185526020808601920283019281841161010257915b83831061051a5750505050565b6020809161052884866101aa565b81520192019161050d565b9080601f830112156101025781602061012a933591016104e6565b91909160a081840312610102576105658382610197565b926105738160208401610197565b92604083013567ffffffffffffffff81116101025782610594918501610533565b92606081013567ffffffffffffffff811161010257836105b5918301610533565b92608082013567ffffffffffffffff81116101025761012a92016102b5565b346101025761015e61033f6105ea36600461054e565b93929092610a1a565b34610102576103ed6106063660046103b1565b90610a50565b91909160a081840312610102576106238382610197565b926106318160208401610197565b9261063f82604085016101aa565b926105b583606083016101aa565b346101025761015e61033f61066336600461060c565b93929092610a5a565b61012a90610a75565b61016261012a61012a9273ffffffffffffffffffffffffffffffffffffffff1690565b61012a90610675565b6106ba6106b461012a9263ffffffff1690565b60e01b90565b7fffffffff000000000000000000000000000000000000000000000000000000001690565b505050506106eb600090565b5061012a63150b7a026106a1565b905b600052602052604060002090565b61012a9081565b61012a9054610709565b600161073361012a9261072b600090565b5060006106f9565b01610710565b906101149161074f61074a8261071a565b610acf565b9061075991610b1c565b50565b9061011491610739565b61012a7faf290d8680820aad922855f39b306097b20e28774d6c1ad35a20325630c3a02c61047b565b9061011492916107a061074a610766565b610802565b61012a90610698565b73ffffffffffffffffffffffffffffffffffffffff91821681529116602082015261012a916080820191906107e4906040830152565b60608183039101526000815260200190565b6040513d6000823e3d90fd5b9190610810610815916107a5565b6107a5565b9061081f306107a5565b91803b156101025761086b936000809461083860405190565b968795869485937fb88d4fde000000000000000000000000000000000000000000000000000000008552600485016107ae565b03925af180156108945761087c5750565b61011490600061088c81836101e6565b810190610470565b6107f6565b90610114929161078f565b906108ae33610162565b73ffffffffffffffffffffffffffffffffffffffff8216036108d35761075991610ba1565b7f6697b23200000000000000000000000000000000000000000000000000000000600090815260045b036000fd5b906106fb906107a5565b61012a91600061092761092d93610920600090565b50826106f9565b01610901565b5460ff1690565b90610114929161094561074a610766565b6109a9565b61012d9061047b565b73ffffffffffffffffffffffffffffffffffffffff91821681529116602082015261012a9260a0820192610997919061098d906040850152565b606083019061094a565b60808183039101526000815260200190565b91906108106109b7916107a5565b906109c1306107a5565b91803b15610102576001936000809461086b6109dc60405190565b978896879586947ff242432a00000000000000000000000000000000000000000000000000000000865260048601610953565b906101149291610934565b5050505050610a27600090565b5061012a63bc197c816106a1565b9061011491610a4661074a8261071a565b9061075991610ba1565b9061011491610a35565b5050505050610a67600090565b5061012a63f23a6e616106a1565b7f4e2312e0000000000000000000000000000000000000000000000000000000007fffffffff00000000000000000000000000000000000000000000000000000000821614908115610ac5575090565b61012a9150610bfd565b610114903390610cc3565b90610aea61012a610b1892151590565b82547fffffffffffffffffffffffffffffffffffffffffffffffffffffffffffffff001660ff919091161790565b9055565b610b2d610b29838361090b565b1590565b15610b9a57610b4c6001610b4784600061092786826106f9565b610ada565b610b66610b60610b5a339390565b936107a5565b916107a5565b917f2f8788117e7eff1d82e926ec794901d17c78024a50270940304540a733656f0d610b9160405190565b600090a4600190565b5050600090565b610bab828261090b565b15610b9a57610bc46000610b47848261092786826106f9565b610bd2610b60610b5a339390565b917ff6391f5c32d9c69d2a47ea670b442974b53935d1edc7fd64eb21e047a839171b610b9160405190565b7f7965db0b000000000000000000000000000000000000000000000000000000007fffffffff00000000000000000000000000000000000000000000000000000000821614908115610c4d575090565b61012a91507fffffffff00000000000000000000000000000000000000000000000000000000167f01ffc9a7000000000000000000000000000000000000000000000000000000001490565b73ffffffffffffffffffffffffffffffffffffffff90911681526040810192916101149160200152565b90610cd1610b29828461090b565b610cd9575050565b7fe2517d3f000000000000000000000000000000000000000000000000000000006000908152916108fc916004610c9956fea264697066735822122049bce899cd9d2f1118d5550bdc9ca8a3de52431bb3df0b417cba092a6eb8830564736f6c634300081c0033",
  "linkReferences": {},
  "deployedLinkReferences": {}
}