{
  "_format": "hh-sol-artifact-1",
  "contractName": "Pvp",
  "sourceName": "contracts/game/Pvp.sol",
  "abi": [
    {
      "inputs": [
        {
          "internalType": "contract IERC20",
          "name": "_battingToken",
          "type": "address"
        },
        {
          "internalType": "address",
          "name": "_manager",
          "type": "address"
        },
        {
          "internalType": "address",
          "name": "_pvpVault",
          "type": "address"
        },
        {
          "internalType": "address",
          "name": "_teamVault",
          "type": "address"
        }
      ],
      "stateMutability": "nonpayable",
      "type": "constructor"
    },
    {
      "inputs": [],
      "name": "AccessControlBadConfirmation",
      "type": "error"
    },
    {
      "inputs": [
        {
          "internalType": "address",
          "name": "account",
          "type": "address"
        },
        {
          "internalType": "bytes32",
          "name": "neededRole",
          "type": "bytes32"
        }
      ],
      "name": "AccessControlUnauthorizedAccount",
      "type": "error"
    },
    {
      "inputs": [],
      "name": "AlreadyAnnounced",
      "type": "error"
    },
    {
      "inputs": [],
      "name": "AlreadyInvolvedInPVP",
      "type": "error"
    },
    {
      "inputs": [],
      "name": "CannotBeCreator",
      "type": "error"
    },
    {
      "inputs": [],
      "name": "InvalidWinner",
      "type": "error"
    },
    {
      "inputs": [],
      "name": "OnlyCreator",
      "type": "error"
    },
    {
      "inputs": [],
      "name": "ParticipantExists",
      "type": "error"
    },
    {
      "inputs": [],
      "name": "PvpNotFound",
      "type": "error"
    },
    {
      "anonymous": false,
      "inputs": [
        {
          "indexed": true,
          "internalType": "uint256",
          "name": "id",
          "type": "uint256"
        },
        {
          "indexed": true,
          "internalType": "address",
          "name": "winner",
          "type": "address"
        },
        {
          "indexed": false,
          "internalType": "uint256",
          "name": "totalPrize",
          "type": "uint256"
        }
      ],
      "name": "Announce",
      "type": "event"
    },
    {
      "anonymous": false,
      "inputs": [
        {
          "indexed": true,
          "internalType": "uint256",
          "name": "id",
          "type": "uint256"
        },
        {
          "indexed": true,
          "internalType": "address",
          "name": "creator",
          "type": "address"
        },
        {
          "indexed": false,
          "internalType": "uint256",
          "name": "battingAmount",
          "type": "uint256"
        }
      ],
      "name": "Create",
      "type": "event"
    },
    {
      "anonymous": false,
      "inputs": [
        {
          "indexed": true,
          "internalType": "uint256",
          "name": "id",
          "type": "uint256"
        },
        {
          "indexed": true,
          "internalType": "address",
          "name": "participant",
          "type": "address"
        },
        {
          "indexed": false,
          "internalType": "uint256",
          "name": "battingAmount",
          "type": "uint256"
        }
      ],
      "name": "Join",
      "type": "event"
    },
    {
      "anonymous": false,
      "inputs": [
        {
          "indexed": true,
          "internalType": "uint256",
          "name": "id",
          "type": "uint256"
        },
        {
          "indexed": true,
          "internalType": "address",
          "name": "participant",
          "type": "address"
        },
        {
          "indexed": false,
          "internalType": "uint256",
          "name": "battingAmount",
          "type": "uint256"
        }
      ],
      "name": "Remove",
      "type": "event"
    },
    {
      "anonymous": false,
      "inputs": [
        {
          "indexed": true,
          "internalType": "bytes32",
          "name": "role",
          "type": "bytes32"
        },
        {
          "indexed": true,
          "internalType": "bytes32",
          "name": "previousAdminRole",
          "type": "bytes32"
        },
        {
          "indexed": true,
          "internalType": "bytes32",
          "name": "newAdminRole",
          "type": "bytes32"
        }
      ],
      "name": "RoleAdminChanged",
      "type": "event"
    },
    {
      "anonymous": false,
      "inputs": [
        {
          "indexed": true,
          "internalType": "bytes32",
          "name": "role",
          "type": "bytes32"
        },
        {
          "indexed": true,
          "internalType": "address",
          "name": "account",
          "type": "address"
        },
        {
          "indexed": true,
          "internalType": "address",
          "name": "sender",
          "type": "address"
        }
      ],
      "name": "RoleGranted",
      "type": "event"
    },
    {
      "anonymous": false,
      "inputs": [
        {
          "indexed": true,
          "internalType": "bytes32",
          "name": "role",
          "type": "bytes32"
        },
        {
          "indexed": true,
          "internalType": "address",
          "name": "account",
          "type": "address"
        },
        {
          "indexed": true,
          "internalType": "address",
          "name": "sender",
          "type": "address"
        }
      ],
      "name": "RoleRevoked",
      "type": "event"
    },
    {
      "inputs": [],
      "name": "DEFAULT_ADMIN_ROLE",
      "outputs": [
        {
          "internalType": "bytes32",
          "name": "",
          "type": "bytes32"
        }
      ],
      "stateMutability": "view",
      "type": "function"
    },
    {
      "inputs": [
        {
          "internalType": "address",
          "name": "_winner",
          "type": "address"
        },
        {
          "internalType": "uint256",
          "name": "_id",
          "type": "uint256"
        }
      ],
      "name": "announce",
      "outputs": [],
      "stateMutability": "nonpayable",
      "type": "function"
    },
    {
      "inputs": [],
      "name": "battingToken",
      "outputs": [
        {
          "internalType": "contract IERC20",
          "name": "",
          "type": "address"
        }
      ],
      "stateMutability": "view",
      "type": "function"
    },
    {
      "inputs": [
        {
          "internalType": "uint256",
          "name": "_amount",
          "type": "uint256"
        }
      ],
      "name": "createPvp",
      "outputs": [],
      "stateMutability": "nonpayable",
      "type": "function"
    },
    {
      "inputs": [
        {
          "internalType": "bytes32",
          "name": "role",
          "type": "bytes32"
        }
      ],
      "name": "getRoleAdmin",
      "outputs": [
        {
          "internalType": "bytes32",
          "name": "",
          "type": "bytes32"
        }
      ],
      "stateMutability": "view",
      "type": "function"
    },
    {
      "inputs": [
        {
          "internalType": "bytes32",
          "name": "role",
          "type": "bytes32"
        },
        {
          "internalType": "address",
          "name": "account",
          "type": "address"
        }
      ],
      "name": "grantRole",
      "outputs": [],
      "stateMutability": "nonpayable",
      "type": "function"
    },
    {
      "inputs": [
        {
          "internalType": "bytes32",
          "name": "role",
          "type": "bytes32"
        },
        {
          "internalType": "address",
          "name": "account",
          "type": "address"
        }
      ],
      "name": "hasRole",
      "outputs": [
        {
          "internalType": "bool",
          "name": "",
          "type": "bool"
        }
      ],
      "stateMutability": "view",
      "type": "function"
    },
    {
      "inputs": [],
      "name": "id",
      "outputs": [
        {
          "internalType": "uint256",
          "name": "",
          "type": "uint256"
        }
      ],
      "stateMutability": "view",
      "type": "function"
    },
    {
      "inputs": [
        {
          "internalType": "uint256",
          "name": "_id",
          "type": "uint256"
        }
      ],
      "name": "joinPvp",
      "outputs": [],
      "stateMutability": "nonpayable",
      "type": "function"
    },
    {
      "inputs": [
        {
          "internalType": "address",
          "name": "",
          "type": "address"
        }
      ],
      "name": "pvpByUser",
      "outputs": [
        {
          "internalType": "uint256",
          "name": "",
          "type": "uint256"
        }
      ],
      "stateMutability": "view",
      "type": "function"
    },
    {
      "inputs": [
        {
          "internalType": "uint256",
          "name": "",
          "type": "uint256"
        }
      ],
      "name": "pvpIdIndex",
      "outputs": [
        {
          "internalType": "uint256",
          "name": "",
          "type": "uint256"
        }
      ],
      "stateMutability": "view",
      "type": "function"
    },
    {
      "inputs": [
        {
          "internalType": "uint256",
          "name": "_offset",
          "type": "uint256"
        },
        {
          "internalType": "uint256",
          "name": "_size",
          "type": "uint256"
        }
      ],
      "name": "pvpIdsList",
      "outputs": [
        {
          "internalType": "uint256[]",
          "name": "list",
          "type": "uint256[]"
        }
      ],
      "stateMutability": "view",
      "type": "function"
    },
    {
      "inputs": [
        {
          "internalType": "uint256",
          "name": "",
          "type": "uint256"
        }
      ],
      "name": "pvpInfoById",
      "outputs": [
        {
          "internalType": "address",
          "name": "creator",
          "type": "address"
        },
        {
          "internalType": "address",
          "name": "participant",
          "type": "address"
        },
        {
          "internalType": "address",
          "name": "winner",
          "type": "address"
        },
        {
          "internalType": "uint256",
          "name": "battingFee",
          "type": "uint256"
        },
        {
          "internalType": "uint256",
          "name": "totalPrize",
          "type": "uint256"
        },
        {
          "internalType": "bool",
          "name": "isWinnerAnnounced",
          "type": "bool"
        }
      ],
      "stateMutability": "view",
      "type": "function"
    },
    {
      "inputs": [],
      "name": "pvpVault",
      "outputs": [
        {
          "internalType": "address",
          "name": "",
          "type": "address"
        }
      ],
      "stateMutability": "view",
      "type": "function"
    },
    {
      "inputs": [
        {
          "internalType": "uint256",
          "name": "_id",
          "type": "uint256"
        }
      ],
      "name": "removePvp",
      "outputs": [],
      "stateMutability": "nonpayable",
      "type": "function"
    },
    {
      "inputs": [
        {
          "internalType": "bytes32",
          "name": "role",
          "type": "bytes32"
        },
        {
          "internalType": "address",
          "name": "callerConfirmation",
          "type": "address"
        }
      ],
      "name": "renounceRole",
      "outputs": [],
      "stateMutability": "nonpayable",
      "type": "function"
    },
    {
      "inputs": [
        {
          "internalType": "bytes32",
          "name": "role",
          "type": "bytes32"
        },
        {
          "internalType": "address",
          "name": "account",
          "type": "address"
        }
      ],
      "name": "revokeRole",
      "outputs": [],
      "stateMutability": "nonpayable",
      "type": "function"
    },
    {
      "inputs": [
        {
          "internalType": "contract IERC20",
          "name": "_battingToken",
          "type": "address"
        }
      ],
      "name": "setBattingToken",
      "outputs": [],
      "stateMutability": "nonpayable",
      "type": "function"
    },
    {
      "inputs": [
        {
          "internalType": "address",
          "name": "_pvpVault",
          "type": "address"
        }
      ],
      "name": "setPvpVault",
      "outputs": [],
      "stateMutability": "nonpayable",
      "type": "function"
    },
    {
      "inputs": [
        {
          "internalType": "uint16",
          "name": "_teamTax",
          "type": "uint16"
        }
      ],
      "name": "setTeamTax",
      "outputs": [],
      "stateMutability": "nonpayable",
      "type": "function"
    },
    {
      "inputs": [
        {
          "internalType": "address",
          "name": "_teamVault",
          "type": "address"
        }
      ],
      "name": "setTeamVault",
      "outputs": [],
      "stateMutability": "nonpayable",
      "type": "function"
    },
    {
      "inputs": [
        {
          "internalType": "bytes4",
          "name": "interfaceId",
          "type": "bytes4"
        }
      ],
      "name": "supportsInterface",
      "outputs": [
        {
          "internalType": "bool",
          "name": "",
          "type": "bool"
        }
      ],
      "stateMutability": "view",
      "type": "function"
    },
    {
      "inputs": [],
      "name": "teamTax",
      "outputs": [
        {
          "internalType": "uint16",
          "name": "",
          "type": "uint16"
        }
      ],
      "stateMutability": "view",
      "type": "function"
    },
    {
      "inputs": [],
      "name": "teamVault",
      "outputs": [
        {
          "internalType": "address",
          "name": "",
          "type": "address"
        }
      ],
      "stateMutability": "view",
      "type": "function"
    }
  ],
  "bytecode": "0x60806040523461002e5761001d61001461010b565b92919091610257565b604051611cbc6103a98239611cbc90f35b600080fd5b634e487b7160e01b600052604160045260246000fd5b90601f01601f191681019081106001600160401b0382111761006a57604052565b610033565b9061008361007c60405190565b9283610049565b565b6001600160a01b031690565b90565b6001600160a01b0381165b0361002e57565b9050519061008382610094565b6001600160a01b03811661009f565b90505190610083826100b3565b60808183031261002e576100e382826100a6565b926100916100f484602085016100c2565b93606061010482604087016100c2565b94016100c2565b6101296120658038038061011e8161006f565b9283398101906100cf565b90919293565b90600019905b9181191691161790565b6100916100916100919290565b9061015c6100916101639261013f565b825461012f565b9055565b6101746100916100919290565b61ffff1690565b9061ffff90610135565b6101746100916100919261ffff1690565b906101a661009161016392610185565b825461017b565b906001600160a01b0390610135565b61009190610085906001600160a01b031682565b610091906101bc565b610091906101d0565b906101f2610091610163926101d9565b82546101ad565b9062010000600160b01b039060101b610135565b9061021d610091610163926101d9565b82546101f9565b610091600061013f565b6100917faf290d8680820aad922855f39b306097b20e28774d6c1ad35a20325630c3a02c61013f565b9261029661029d929361028f6102bd966102736001600561014c565b6102886102816103e8610167565b6006610196565b60086101e2565b600661020d565b60076101e2565b6102af6102a8610224565b33906102fa565b506102b861022e565b6102fa565b50565b905b600052602052604060002090565b906102c2906101d9565b9060ff90610135565b906102f361009161016392151590565b82546102da565b61030b6103078383610385565b1590565b1561037e57610330600161032b84600061032586826102c0565b016102d0565b6102e3565b61034a61034461033e339390565b936101d9565b916101d9565b917f2f8788117e7eff1d82e926ec794901d17c78024a50270940304540a733656f0d61037560405190565b600090a4600190565b5050600090565b6100919160006103256103a19361039a600090565b50826102c0565b5460ff169056fe6080604052600436101561001257600080fd5b60003560e01c806301ffc9a7146101925780631516bbc41461018d578063156568a7146101885780631c7e710814610183578063230f53361461017e578063248a9ca31461017957806325f4c2991461017457806328217f681461016f5780632f2ff15d1461016a57806336568abe146101655780633c2e9e37146101605780634afb356e1461015b5780635ba5c77a14610156578063854e1b2f146101515780638ab5212b1461014c57806391d1485414610147578063932733c714610142578063a217fddf1461013d578063af640d0f14610138578063d547741f14610133578063d8c2515f1461012e578063ebf7f1fe14610129578063ed52b575146101245763fea3f4a8036101c2576108c6565b61089e565b61085c565b610841565b61081c565b610801565b6107da565b610798565b610755565b610713565b6106ee565b61069e565b610555565b6104e5565b610442565b610429565b6103ee565b6103d3565b61032f565b610317565b6102d4565b610295565b610278565b6101f1565b7fffffffff0000000000000000000000000000000000000000000000000000000081165b036101c257565b600080fd5b905035906101d482610197565b565b906020828203126101c2576101ea916101c7565b90565b9052565b346101c25761021e61020c6102073660046101d6565b6108e1565b60405191829182901515815260200190565b0390f35b73ffffffffffffffffffffffffffffffffffffffff1690565b73ffffffffffffffffffffffffffffffffffffffff81166101bb565b905035906101d48261023b565b906020828203126101c2576101ea91610257565b346101c25761029061028b366004610264565b610a07565b604051005b346101c2576102906102a8366004610264565b610a67565b806101bb565b905035906101d4826102ad565b906020828203126101c2576101ea916102b3565b346101c2576102906102e73660046102c0565b610bfc565b61ffff81166101bb565b905035906101d4826102ec565b906020828203126101c2576101ea916102f6565b346101c25761029061032a366004610303565b610e9e565b346101c25761021e61034a6103453660046102c0565b610ead565b6040515b9182918290815260200190565b6102226101ea6101ea9273ffffffffffffffffffffffffffffffffffffffff1690565b6101ea9061035b565b6101ea9061037e565b9061039a90610387565b600052602052604060002090565b6101ea916008021c81565b906101ea91546103a8565b60006103ce6101ea926001610390565b6103b3565b346101c25761021e61034a6103e9366004610264565b6103be565b346101c2576102906104013660046102c0565b610fcc565b91906040838203126101c2576101ea90602061042282866102b3565b9401610257565b346101c25761029061043c366004610406565b906111a5565b346101c257610290610455366004610406565b906111af565b91906040838203126101c2576101ea90602061047782866102b3565b94016102b3565b9061049e61049761048d845190565b8084529260200190565b9260200190565b9060005b8181106104af5750505090565b9091926104cc6104c56001928651815260200190565b9460200190565b9291016104a2565b60208082526101ea9291019061047e565b346101c25761021e6105016104fb36600461045b565b9061134a565b604051918291826104d4565b60009103126101c257565b6101ea916008021c610222565b906101ea9154610518565b6101ea60006008610525565b6101ed90610387565b6020810192916101d4919061053c565b346101c25761056536600461050d565b61021e610570610530565b60405191829182610545565b6101ea6101ea6101ea9290565b9061039a9061057c565b6101ea90610222565b6101ea9054610593565b6101ea9081565b6101ea90546105a6565b6105c2906002610589565b906105cc8261059c565b916105d96001820161059c565b916105e66002830161059c565b916105f3600382016105ad565b916101ea6005610605600485016105ad565b93015460ff1690565b919461068f6106969298979561068860a09661066b6101d49a61064e60c08a019e60008b019073ffffffffffffffffffffffffffffffffffffffff169052565b73ffffffffffffffffffffffffffffffffffffffff166020890152565b73ffffffffffffffffffffffffffffffffffffffff166040870152565b6060850152565b6080830152565b019015159052565b346101c25761021e6106b96106b43660046102c0565b6105b7565b926106c996949692919260405190565b9687968761060e565b91906040838203126101c2576101ea9060206104778286610257565b346101c2576102906107013660046106d2565b9061173c565b6101ea60006007610525565b346101c25761072336600461050d565b61021e61072e610707565b6040519182918273ffffffffffffffffffffffffffffffffffffffff909116815260200190565b346101c25761021e61020c61076b366004610406565b90611746565b6101ea916008021c5b61ffff1690565b906101ea9154610771565b6101ea60006006610781565b346101c2576107a836600461050d565b61021e6107b361078c565b6040519182918261ffff909116815260200190565b6101ea600061057c565b6101ea6107c8565b346101c2576107ea36600461050d565b61021e61034a6107d2565b6101ea600060056103b3565b346101c25761081136600461050d565b61021e61034a6107f5565b346101c25761029061082f366004610406565b9061178a565b6101ea60026006610525565b346101c25761085136600461050d565b61021e61072e610835565b346101c25761029061086f3660046102c0565b6118a1565b6101bb81610593565b905035906101d482610874565b906020828203126101c2576101ea9161087d565b346101c2576102906108b136600461088a565b611a6d565b60006103ce6101ea926003610589565b346101c25761021e61034a6108dc3660046102c0565b6108b6565b7f7965db0b000000000000000000000000000000000000000000000000000000007fffffffff00000000000000000000000000000000000000000000000000000000821614908115610931575090565b6101ea91507fffffffff00000000000000000000000000000000000000000000000000000000167f01ffc9a7000000000000000000000000000000000000000000000000000000001490565b6101ea7faf290d8680820aad922855f39b306097b20e28774d6c1ad35a20325630c3a02c61057c565b6101d4906109ba6109b561097d565b611a76565b6109fc565b9073ffffffffffffffffffffffffffffffffffffffff905b9181191691161790565b906109f16101ea6109f892610387565b82546109bf565b9055565b6101d49060076109e1565b6101d4906109a6565b6101d490610a1f6109b561097d565b610a5c565b9075ffffffffffffffffffffffffffffffffffffffff00009060101b6109d7565b90610a556101ea6109f892610387565b8254610a24565b6101d4906006610a45565b6101d490610a10565b6102226101ea6101ea9290565b6101ea90610a70565b907fffffffffffffffffffffffffffffffffffffffffffffffffffffffffffffffff906109d7565b90610abe6101ea6109f89261057c565b8254610a86565b6101ea9060101c610222565b6101ea9054610ac5565b7f4e487b7100000000000000000000000000000000000000000000000000000000600052604160045260246000fd5b90601f017fffffffffffffffffffffffffffffffffffffffffffffffffffffffffffffffe016810190811067ffffffffffffffff821117610b4a57604052565b610adb565b8015156101bb565b905051906101d482610b4f565b906020828203126101c2576101ea91610b57565b73ffffffffffffffffffffffffffffffffffffffff9182168152911660208201526060810192916101d49160400152565b6040513d6000823e3d90fd5b7f4e487b7100000000000000000000000000000000000000000000000000000000600052601160045260246000fd5b81810292918115918404141715610bf757565b610bb5565b610c0a6101ea826002610589565b90610c148261059c565b91600092610c2184610a7d565b90610c5773ffffffffffffffffffffffffffffffffffffffff83165b9173ffffffffffffffffffffffffffffffffffffffff1690565b14610e2557610c6784830161059c565b610c7033610c3d565b14610dfd57610ca1610c3d610c876001850161059c565b9273ffffffffffffffffffffffffffffffffffffffff1690565b03610dd55790610d1691610cbf82610cba336001610390565b610aae565b6020610ccd600383016105ad565b8095610ce1610cdc600861059c565b610387565b90610cec6006610ad1565b90610cf660405190565b809881958294610d0a6323b872dd60e01b90565b84523360048501610b78565b03925af1908115610dd057610d6793610d6292610da3575b50610d3c33600183016109e1565b610d5c6004610d4b600261057c565b920191610d57836105ad565b610be4565b90610aae565b61057c565b7fb3e822478fa19cb993157f15b49a00501cc8d45226c1e7233aef1e281dc567f9610d9e610d9433610387565b9361034e60405190565b0390a3565b610dc49060203d602011610dc9575b610dbc8183610b0a565b810190610b64565b610d2e565b503d610db2565b610ba9565b7fe3e1e170000000000000000000000000000000000000000000000000000000008352600483fd5b7f0183b6e0000000000000000000000000000000000000000000000000000000008452600484fd5b7fe39a2105000000000000000000000000000000000000000000000000000000008452600484fd5b6101d490610e5c6109b561097d565b610e93565b9061ffff906109d7565b61077a6101ea6101ea9261ffff1690565b90610e8c6101ea6109f892610e6b565b8254610e61565b6101d4906006610e7c565b6101d490610e4d565b9061039a565b6001610ec66101ea92610ebe600090565b506000610ea7565b016105ad565b919060086109d7910291610eff7fffffffffffffffffffffffffffffffffffffffffffffffffffffffffffffffff841b90565b921b90565b9190610f156101ea6109f89361057c565b908354610ecc565b6101d491600091610f04565b60056000918280820155826001820155826002820155610f4c8360038301610f1d565b610f598360048301610f1d565b0155565b7f4e487b7100000000000000000000000000000000000000000000000000000000600052600060045260246000fd5b90600003610f9d576101d490610f29565b610f5d565b73ffffffffffffffffffffffffffffffffffffffff90911681526040810192916101d49160200152565b610fda6101ea826002610589565b610fe38161059c565b610fec33610c3d565b0361115957610ffd6001820161059c565b90600091611010610c3d61022285610a7d565b0361113057600361102191016105ad565b9161102b81611af6565b61103f8261103a336001610390565b610f1d565b61104e8261103a836003610589565b6110628261105d836002610589565b610f8c565b611072610cdc610cdc6006610ad1565b91823b156101c2578061108460405190565b9384907ff4c68cdb0000000000000000000000000000000000000000000000000000000082528183816110bb8a3360048401610fa2565b03925af1928315610dd0576110d693611103575b505061057c565b7f291963023f7aed6081c982f1926ffb53b3d1fe5bd927ea5687c1a290da850eb5610d9e610d9433610387565b8161112292903d10611129575b61111a8183610b0a565b81019061050d565b38806110cf565b503d611110565b507fe3e1e170000000000000000000000000000000000000000000000000000000008152600490fd5b7f47bc7cc800000000000000000000000000000000000000000000000000000000600090815260045b036000fd5b906101d4916111986109b582610ead565b906111a291611b63565b50565b906101d491611187565b906111b933610222565b73ffffffffffffffffffffffffffffffffffffffff8216036111de576111a291611be2565b7f6697b232000000000000000000000000000000000000000000000000000000006000908152600490fd5b91908201809211610bf757565b91908203918211610bf757565b906101d461123060405190565b9283610b0a565b67ffffffffffffffff8111610b4a5760208091020190565b9061126161125c83611237565b611223565b918252565b369037565b906101d461128161127b8461124f565b93611237565b7fffffffffffffffffffffffffffffffffffffffffffffffffffffffffffffffe00160208401611266565b7fffffffffffffffffffffffffffffffffffffffffffffffffffffffffffffffff8114610bf75760010190565b7f4e487b7100000000000000000000000000000000000000000000000000000000600052603260045260246000fd5b805482101561132b57611322600191600052602060002090565b91020190600090565b6112d9565b90611339825190565b81101561132b576020809102010190565b60049181611356845490565b6113636101ea8385611209565b8111156113cf575050915b6113778361126b565b93849060005b855b8110156113c6576113bf61137f916113b96113ac6113a661139f8a6112ac565b9989611308565b906103b3565b6113b6838c611330565b52565b60010190565b905061137d565b50935093505050565b6113d99250611216565b9161136e565b906101d4916113ef6109b561097d565b61148c565b6101ea9061077a565b6101ea90546113f4565b6101ea6101ea6101ea9261ffff1690565b6101ea61271061057c565b7f4e487b7100000000000000000000000000000000000000000000000000000000600052601260045260246000fd5b9061145c565b9190565b908115611467570490565b611423565b9060ff906109d7565b906114856101ea6109f892151590565b825461146c565b61149a6101ea836002610589565b60058101926114aa845460ff1690565b6117115760008201936114bf6102228661059c565b73ffffffffffffffffffffffffffffffffffffffff85161415806116e3575b6116b857600483019461151c61150e6114f6886105ad565b61150861150360066113fd565b611407565b90610be4565b611516611418565b90611452565b926115396115328561152d8a6105ad565b611216565b8098610aae565b61154686600287016109e1565b61155260018094611475565b611562610cdc610cdc6006610ad1565b9363f4c68cdb94611573600761059c565b813b156101c25760009161159b83896115a661158e60405190565b9788968795869460e01b90565b845260048401610fa2565b03925af18015610dd0576116a2575b506115c6610cdc610cdc6006610ad1565b803b156101c2576115e6946000916115dd60405190565b96879260e01b90565b82528183816115f98d8d60048401610fa2565b03925af1938415610dd057600061103a8561166a610d94977f3a773c2c97504e93f9cec7b24645de47ee1d1256f7957c2b310095286c12d18e9a6116648661103a61165e6116809c610d9e9f9b6116709c611686575b506116598d611af6565b61059c565b85610390565b0161059c565b90610390565b610d62600061103a836003610589565b93610387565b61169c90853d87116111295761111a8183610b0a565b3861164f565b6116b290600061111a8183610b0a565b386115b5565b7f93a5f3c7000000000000000000000000000000000000000000000000000000006000908152600490fd5b506116f36102226001850161059c565b73ffffffffffffffffffffffffffffffffffffffff851614156114de565b7fa6751d61000000000000000000000000000000000000000000000000000000006000908152600490fd5b906101d4916113df565b6101ea9160006117626117689361175b600090565b5082610ea7565b01610390565b5460ff1690565b906101d4916117806109b582610ead565b906111a291611be2565b906101d49161176f565b9081549168010000000000000000831015610b4a57826117bc9160016101d495018155611308565b90610f04565b6101ea60c0611223565b600561189060a06101d4946118016117fb600083015173ffffffffffffffffffffffffffffffffffffffff1690565b866109e1565b61182e611825602083015173ffffffffffffffffffffffffffffffffffffffff1690565b600187016109e1565b61185b611852604083015173ffffffffffffffffffffffffffffffffffffffff1690565b600287016109e1565b611872611869606083015190565b60038701610aae565b611889611880608083015190565b60048701610aae565b0151151590565b9101611475565b906101d4916117cc565b6118b46118af336001610390565b6105ad565b6000906118c36114588361057c565b03611a2b57611904906020836118dc610cdc600861059c565b6118e66006610ad1565b846118f060405190565b809781958294610d0a6323b872dd60e01b90565b03925af1918215610dd0576119c192611a0e575b506119bc61192660056105ad565b61193d61193260045490565b610cba836003610589565b61194c81610cba336001610390565b611957816004611794565b6119b561196384610a7d565b9361199661196f6117c2565b33838201529573ffffffffffffffffffffffffffffffffffffffff8116602088015261066b565b6119a1876060870152565b6119ac876080870152565b151560a0850152565b6002610589565b611897565b6119e16119ce60056105ad565b610d626119da826112ac565b6005610aae565b7f31f8c9fbec10851a702ff510b56d7682e7846371b2a9515a234e844d9ba8547e610d9e610d9433610387565b611a269060203d602011610dc957610dbc8183610b0a565b611918565b7ffa328e4e000000000000000000000000000000000000000000000000000000008152600490fd5b6101d490611a626109b561097d565b6101d49060086109e1565b6101d490611a53565b6101d4903390611c3e565b7f4e487b7100000000000000000000000000000000000000000000000000000000600052603160045260246000fd5b80548015611af1577fffffffffffffffffffffffffffffffffffffffffffffffffffffffffffffffff0190611aee611ae88383611308565b90610f1d565b55565b611a81565b6101d490611b0a6118af6004926003610589565b611b25611b15835490565b611b1f600161057c565b90611216565b90818103611b35575b5050611ab0565b6117bc611b486113a6611b5c9486611308565b611b56816117bc8588611308565b84611308565b3880611b2e565b611b74611b708383611746565b1590565b15611bdb57611b936001611b8e8460006117628682610ea7565b611475565b611ba7611ba1611680339390565b91610387565b917f2f8788117e7eff1d82e926ec794901d17c78024a50270940304540a733656f0d611bd260405190565b600090a4600190565b5050600090565b611bec8282611746565b15611bdb57611c056000611b8e84826117628682610ea7565b611c13611ba1611680339390565b917ff6391f5c32d9c69d2a47ea670b442974b53935d1edc7fd64eb21e047a839171b611bd260405190565b90611c4c611b708284611746565b611c54575050565b7fe2517d3f00000000000000000000000000000000000000000000000000000000600090815291611182916004610fa256fea2646970667358221220782aec5397a7adefa2d944ee86e768fe90bbb10c2f3d7d9647513a142db66c7164736f6c634300081c0033",
  "linkReferences": {},
  "deployedLinkReferences": {}
}