{
  "_format": "hh-sol-artifact-1",
  "contractName": "Bridge",
  "sourceName": "contracts/bridge/bridge.sol",
  "abi": [
    {
      "inputs": [
        {
          "internalType": "contract IBridgeVault",
          "name": "_bridgeVault",
          "type": "address"
        }
      ],
      "stateMutability": "nonpayable",
      "type": "constructor"
    },
    {
      "inputs": [],
      "name": "AccessControlBadConfirmation",
      "type": "error"
    },
    {
      "inputs": [
        {
          "internalType": "address",
          "name": "account",
          "type": "address"
        },
        {
          "internalType": "bytes32",
          "name": "neededRole",
          "type": "bytes32"
        }
      ],
      "name": "AccessControlUnauthorizedAccount",
      "type": "error"
    },
    {
      "inputs": [],
      "name": "InvalidItemType",
      "type": "error"
    },
    {
      "inputs": [],
      "name": "MultipleItemsNotAllowed",
      "type": "error"
    },
    {
      "inputs": [],
      "name": "NonExistentItem",
      "type": "error"
    },
    {
      "anonymous": false,
      "inputs": [
        {
          "indexed": true,
          "internalType": "address",
          "name": "user",
          "type": "address"
        },
        {
          "indexed": true,
          "internalType": "address",
          "name": "item",
          "type": "address"
        },
        {
          "indexed": true,
          "internalType": "uint256",
          "name": "tokenId",
          "type": "uint256"
        }
      ],
      "name": "Export",
      "type": "event"
    },
    {
      "anonymous": false,
      "inputs": [
        {
          "indexed": true,
          "internalType": "address",
          "name": "user",
          "type": "address"
        },
        {
          "indexed": true,
          "internalType": "address",
          "name": "item",
          "type": "address"
        },
        {
          "indexed": true,
          "internalType": "uint256",
          "name": "tokenId",
          "type": "uint256"
        }
      ],
      "name": "Import",
      "type": "event"
    },
    {
      "anonymous": false,
      "inputs": [
        {
          "indexed": true,
          "internalType": "bytes32",
          "name": "role",
          "type": "bytes32"
        },
        {
          "indexed": true,
          "internalType": "bytes32",
          "name": "previousAdminRole",
          "type": "bytes32"
        },
        {
          "indexed": true,
          "internalType": "bytes32",
          "name": "newAdminRole",
          "type": "bytes32"
        }
      ],
      "name": "RoleAdminChanged",
      "type": "event"
    },
    {
      "anonymous": false,
      "inputs": [
        {
          "indexed": true,
          "internalType": "bytes32",
          "name": "role",
          "type": "bytes32"
        },
        {
          "indexed": true,
          "internalType": "address",
          "name": "account",
          "type": "address"
        },
        {
          "indexed": true,
          "internalType": "address",
          "name": "sender",
          "type": "address"
        }
      ],
      "name": "RoleGranted",
      "type": "event"
    },
    {
      "anonymous": false,
      "inputs": [
        {
          "indexed": true,
          "internalType": "bytes32",
          "name": "role",
          "type": "bytes32"
        },
        {
          "indexed": true,
          "internalType": "address",
          "name": "account",
          "type": "address"
        },
        {
          "indexed": true,
          "internalType": "address",
          "name": "sender",
          "type": "address"
        }
      ],
      "name": "RoleRevoked",
      "type": "event"
    },
    {
      "inputs": [],
      "name": "DEFAULT_ADMIN_ROLE",
      "outputs": [
        {
          "internalType": "bytes32",
          "name": "",
          "type": "bytes32"
        }
      ],
      "stateMutability": "view",
      "type": "function"
    },
    {
      "inputs": [],
      "name": "bridgeVault",
      "outputs": [
        {
          "internalType": "contract IBridgeVault",
          "name": "",
          "type": "address"
        }
      ],
      "stateMutability": "view",
      "type": "function"
    },
    {
      "inputs": [
        {
          "internalType": "address",
          "name": "_item",
          "type": "address"
        },
        {
          "internalType": "uint256",
          "name": "_tokenId",
          "type": "uint256"
        }
      ],
      "name": "exportItem",
      "outputs": [],
      "stateMutability": "nonpayable",
      "type": "function"
    },
    {
      "inputs": [
        {
          "internalType": "address[]",
          "name": "_items",
          "type": "address[]"
        },
        {
          "internalType": "uint256[]",
          "name": "_tokenIds",
          "type": "uint256[]"
        }
      ],
      "name": "exportItems",
      "outputs": [],
      "stateMutability": "nonpayable",
      "type": "function"
    },
    {
      "inputs": [
        {
          "internalType": "bytes32",
          "name": "role",
          "type": "bytes32"
        }
      ],
      "name": "getRoleAdmin",
      "outputs": [
        {
          "internalType": "bytes32",
          "name": "",
          "type": "bytes32"
        }
      ],
      "stateMutability": "view",
      "type": "function"
    },
    {
      "inputs": [
        {
          "internalType": "bytes32",
          "name": "role",
          "type": "bytes32"
        },
        {
          "internalType": "address",
          "name": "account",
          "type": "address"
        }
      ],
      "name": "grantRole",
      "outputs": [],
      "stateMutability": "nonpayable",
      "type": "function"
    },
    {
      "inputs": [
        {
          "internalType": "bytes32",
          "name": "role",
          "type": "bytes32"
        },
        {
          "internalType": "address",
          "name": "account",
          "type": "address"
        }
      ],
      "name": "hasRole",
      "outputs": [
        {
          "internalType": "bool",
          "name": "",
          "type": "bool"
        }
      ],
      "stateMutability": "view",
      "type": "function"
    },
    {
      "inputs": [
        {
          "internalType": "address",
          "name": "_item",
          "type": "address"
        },
        {
          "internalType": "uint256",
          "name": "_tokenId",
          "type": "uint256"
        }
      ],
      "name": "importItem",
      "outputs": [],
      "stateMutability": "nonpayable",
      "type": "function"
    },
    {
      "inputs": [
        {
          "internalType": "address[]",
          "name": "_items",
          "type": "address[]"
        },
        {
          "internalType": "uint256[]",
          "name": "_tokenIds",
          "type": "uint256[]"
        }
      ],
      "name": "importItems",
      "outputs": [],
      "stateMutability": "nonpayable",
      "type": "function"
    },
    {
      "inputs": [
        {
          "internalType": "address",
          "name": "_user",
          "type": "address"
        },
        {
          "internalType": "uint256",
          "name": "_offset",
          "type": "uint256"
        },
        {
          "internalType": "uint256",
          "name": "_size",
          "type": "uint256"
        }
      ],
      "name": "importedUserItemAddress",
      "outputs": [
        {
          "internalType": "address[]",
          "name": "list",
          "type": "address[]"
        }
      ],
      "stateMutability": "view",
      "type": "function"
    },
    {
      "inputs": [
        {
          "internalType": "address",
          "name": "_user",
          "type": "address"
        },
        {
          "internalType": "address",
          "name": "_item",
          "type": "address"
        },
        {
          "internalType": "uint256",
          "name": "_offset",
          "type": "uint256"
        },
        {
          "internalType": "uint256",
          "name": "_size",
          "type": "uint256"
        }
      ],
      "name": "importedUserItemList",
      "outputs": [
        {
          "internalType": "uint256[]",
          "name": "list",
          "type": "uint256[]"
        }
      ],
      "stateMutability": "view",
      "type": "function"
    },
    {
      "inputs": [
        {
          "internalType": "address",
          "name": "",
          "type": "address"
        },
        {
          "internalType": "address",
          "name": "",
          "type": "address"
        },
        {
          "internalType": "uint256",
          "name": "",
          "type": "uint256"
        }
      ],
      "name": "isItemImported",
      "outputs": [
        {
          "internalType": "bool",
          "name": "",
          "type": "bool"
        }
      ],
      "stateMutability": "view",
      "type": "function"
    },
    {
      "inputs": [
        {
          "internalType": "bytes32",
          "name": "role",
          "type": "bytes32"
        },
        {
          "internalType": "address",
          "name": "callerConfirmation",
          "type": "address"
        }
      ],
      "name": "renounceRole",
      "outputs": [],
      "stateMutability": "nonpayable",
      "type": "function"
    },
    {
      "inputs": [
        {
          "internalType": "bytes32",
          "name": "role",
          "type": "bytes32"
        },
        {
          "internalType": "address",
          "name": "account",
          "type": "address"
        }
      ],
      "name": "revokeRole",
      "outputs": [],
      "stateMutability": "nonpayable",
      "type": "function"
    },
    {
      "inputs": [
        {
          "internalType": "contract IBridgeVault",
          "name": "_bridgeVault",
          "type": "address"
        }
      ],
      "name": "setBridgeVault",
      "outputs": [],
      "stateMutability": "nonpayable",
      "type": "function"
    },
    {
      "inputs": [
        {
          "internalType": "bytes4",
          "name": "interfaceId",
          "type": "bytes4"
        }
      ],
      "name": "supportsInterface",
      "outputs": [
        {
          "internalType": "bool",
          "name": "",
          "type": "bool"
        }
      ],
      "stateMutability": "view",
      "type": "function"
    },
    {
      "inputs": [
        {
          "internalType": "address",
          "name": "_user",
          "type": "address"
        },
        {
          "internalType": "address",
          "name": "_item",
          "type": "address"
        }
      ],
      "name": "totalImportedUserItem",
      "outputs": [
        {
          "internalType": "uint256",
          "name": "",
          "type": "uint256"
        }
      ],
      "stateMutability": "view",
      "type": "function"
    },
    {
      "inputs": [
        {
          "internalType": "address",
          "name": "_user",
          "type": "address"
        }
      ],
      "name": "totalImportedUserItemAddress",
      "outputs": [
        {
          "internalType": "uint256",
          "name": "",
          "type": "uint256"
        }
      ],
      "stateMutability": "view",
      "type": "function"
    },
    {
      "inputs": [
        {
          "internalType": "address",
          "name": "_user",
          "type": "address"
        },
        {
          "internalType": "address",
          "name": "_item",
          "type": "address"
        }
      ],
      "name": "userHasItem",
      "outputs": [
        {
          "internalType": "bool",
          "name": "",
          "type": "bool"
        }
      ],
      "stateMutability": "view",
      "type": "function"
    }
  ],
  "bytecode": "0x60806040523461002a576100196100146100c2565b610176565b604051611d216102898239611d2190f35b600080fd5b634e487b7160e01b600052604160045260246000fd5b90601f01601f191681019081106001600160401b0382111761006657604052565b61002f565b9061007f61007860405190565b9283610045565b565b6001600160a01b031690565b90565b6001600160a01b0381160361002a57565b9050519061007f82610090565b9060208282031261002a5761008d916100a1565b61008d611faa803803806100d58161006b565b9283398101906100ae565b61008d61008d61008d9290565b61008d60006100e0565b61008d7faf290d8680820aad922855f39b306097b20e28774d6c1ad35a20325630c3a02c6100e0565b906001600160a01b03905b9181191691161790565b61008d90610081906001600160a01b031682565b61008d90610135565b61008d90610149565b9061016b61008d61017292610152565b8254610120565b9055565b61007f9061018c6101856100ed565b33906101da565b506101986101856100f7565b50600661015b565b905b600052602052604060002090565b906101a290610152565b9060ff9061012b565b906101d361008d61017292151590565b82546101ba565b6101eb6101e78383610265565b1590565b1561025e57610210600161020b84600061020586826101a0565b016101b0565b6101c3565b61022a61022461021e339390565b93610152565b91610152565b917f2f8788117e7eff1d82e926ec794901d17c78024a50270940304540a733656f0d61025560405190565b600090a4600190565b5050600090565b61008d9160006102056102819361027a600090565b50826101a0565b5460ff169056fe6080604052600436101561001257600080fd5b60003560e01c806301ffc9a714610142578063055cf9481461013d5780631b1bba9514610138578063248a9ca3146101335780632aaf09dd1461012e5780632f2ff15d1461012957806336568abe1461012457806355a540471461011f5780636cc3cd001461011a578063703465991461011557806387a885c41461011057806391d148541461010b578063928abce614610106578063a217fddf14610101578063ac03e9f0146100fc578063af493928146100f7578063cf91a396146100f2578063d547741f146100ed5763ebcb0b7a0361017257610941565b610928565b610900565b610856565b61082f565b6107d7565b6107a1565b610785565b61076c565b610734565b61069a565b6105b3565b6103dc565b6103be565b610386565b610348565b610309565b6102ca565b6101a1565b7fffffffff0000000000000000000000000000000000000000000000000000000081165b0361017257565b600080fd5b9050359061018482610147565b565b906020828203126101725761019a91610177565b90565b9052565b34610172576101ce6101bc6101b7366004610186565b610959565b60405191829182901515815260200190565b0390f35b73ffffffffffffffffffffffffffffffffffffffff1690565b73ffffffffffffffffffffffffffffffffffffffff811661016b565b90503590610184826101eb565b8061016b565b9050359061018482610214565b6080818303126101725761023b8282610207565b9261019a61024c8460208501610207565b93606061025c826040870161021a565b940161021a565b9061028361027c610272845190565b8084529260200190565b9260200190565b9060005b8181106102945750505090565b9091926102b16102aa6001928651815260200190565b9460200190565b929101610287565b602080825261019a92910190610263565b34610172576101ce6102e96102e0366004610227565b92919091610b4f565b604051918291826102b9565b906020828203126101725761019a91610207565b34610172576101ce61032461031f3660046102f5565b610bfd565b6040519182918290815260200190565b906020828203126101725761019a9161021a565b34610172576101ce61032461035e366004610334565b610c2f565b91906040838203126101725761019a90602061037f8286610207565b9401610207565b34610172576101ce6101bc61039c366004610363565b90610c4e565b91906040838203126101725761019a90602061037f828661021a565b34610172576103d76103d13660046103a2565b90610c99565b604051005b34610172576103d76103ef3660046103a2565b90610ca3565b7f4e487b7100000000000000000000000000000000000000000000000000000000600052604160045260246000fd5b90601f017fffffffffffffffffffffffffffffffffffffffffffffffffffffffffffffffe016810190811067ffffffffffffffff82111761046457604052565b6103f5565b9061018461047660405190565b9283610424565b67ffffffffffffffff81116104645760208091020190565b909291926104aa6104a58261047d565b610469565b938185526020808601920283019281841161017257915b8383106104ce5750505050565b602080916104dc8486610207565b8152019201916104c1565b9080601f830112156101725781602061019a93359101610495565b909291926105126104a58261047d565b938185526020808601920283019281841161017257915b8383106105365750505050565b60208091610544848661021a565b815201920191610529565b9080601f830112156101725781602061019a93359101610502565b91909160408184031261017257803567ffffffffffffffff811161017257836105949183016104e7565b92602082013567ffffffffffffffff81116101725761019a920161054f565b34610172576103d76105c636600461056a565b90610d00565b90916060828403126101725761019a6105e58484610207565b93604061025c8260208701610207565b6101d261019a61019a9273ffffffffffffffffffffffffffffffffffffffff1690565b61019a906105f5565b61019a90610618565b9061063490610621565b600052602052604060002090565b61019a61019a61019a9290565b9061063490610642565b61019a916008021c5b60ff1690565b9061019a9154610659565b61019a9261069060009361068b61069594600561062a565b61062a565b61064f565b610668565b34610172576101ce6101bc6106b03660046105cc565b91610673565b909182601f830112156101725781359167ffffffffffffffff831161017257602001926020830284011161017257565b909160408284031261017257813567ffffffffffffffff8111610172578361070f9184016106b6565b929093602082013567ffffffffffffffff81116101725761073092016106b6565b9091565b34610172576103d76107473660046106e6565b92919091610d8a565b91906040838203126101725761019a90602061025c8286610207565b34610172576103d761077f366004610750565b90610de3565b34610172576101ce6101bc61079b3660046103a2565b90610e00565b34610172576103d76107b4366004610750565b90610e27565b600091031261017257565b61019a6000610642565b61019a6107c5565b34610172576107e73660046107ba565b6101ce6103246107cf565b61019a916008021c6101d2565b9061019a91546107f2565b61019a600060066107ff565b61019d90610621565b6020810192916101849190610816565b346101725761083f3660046107ba565b6101ce61084a61080a565b6040519182918261081f565b34610172576101ce61032461086c366004610363565b90610e31565b90916060828403126101725761019a61088b8484610207565b93604061025c826020870161021a565b906108aa61027c610272845190565b9060005b8181106108bb5750505090565b9091926108e76102aa600192865173ffffffffffffffffffffffffffffffffffffffff16815260200190565b9291016108ae565b602080825261019a9291019061089b565b34610172576101ce61091c610916366004610872565b91610e44565b604051918291826108ef565b34610172576103d761093b3660046103a2565b90610f24565b34610172576103d76109543660046102f5565b610fb3565b7f7965db0b000000000000000000000000000000000000000000000000000000007fffffffff000000000000000000000000000000000000000000000000000000008216149081156109a9575090565b61019a91507fffffffff00000000000000000000000000000000000000000000000000000000167f01ffc9a7000000000000000000000000000000000000000000000000000000001490565b7f4e487b7100000000000000000000000000000000000000000000000000000000600052601160045260246000fd5b91908201809211610a3157565b6109f5565b91908203918211610a3157565b90610a506104a58361047d565b918252565b369037565b90610184610a70610a6a84610a43565b9361047d565b7fffffffffffffffffffffffffffffffffffffffffffffffffffffffffffffffe00160208401610a55565b7fffffffffffffffffffffffffffffffffffffffffffffffffffffffffffffffff8114610a315760010190565b7f4e487b7100000000000000000000000000000000000000000000000000000000600052603260045260246000fd5b8054821015610b1a57610b11600191600052602060002090565b91020190600090565b610ac8565b61019a916008021c81565b9061019a9154610b1f565b90610b3e825190565b811015610b1a576020809102010190565b610b6a9161068b61019a92610b62606090565b50600361062a565b9181610b74845490565b610b8161019a8385610a24565b811115610bed575050915b610b9583610a5a565b93849060005b855b811015610be457610bdd610b9d91610bd7610bca610bc4610bbd8a610a9b565b9989610af7565b90610b2a565b610bd4838c610b35565b52565b60010190565b9050610b9b565b50935093505050565b610bf79250610a36565b91610b8c565b610c1461019a91610c0c600090565b50600161062a565b5490565b90610634565b61019a9081565b61019a9054610c1e565b6001610c4861019a92610c40600090565b506000610c18565b01610c25565b610c619161068b610c1492610b62600090565b610c72610c6e6000610642565b9190565b1190565b9061018491610c8c610c8782610c2f565b610fbc565b90610c9691610fe7565b50565b9061018491610c76565b90610cad336101d2565b73ffffffffffffffffffffffffffffffffffffffff821603610cd257610c969161106c565b7f6697b23200000000000000000000000000000000000000000000000000000000600090815260045b036000fd5b8051919260005b835b811015610d5f57610d5881610bd7610d41610d27610d099588610b35565b5173ffffffffffffffffffffffffffffffffffffffff1690565b610d52610d4e848b610b35565b5190565b906112ef565b9050610d07565b5092505050565b9190811015610b1a576020020190565b3561019a816101eb565b3561019a81610214565b91939291819360005b855b811015610dda57610dd381610bd789610dcd610dc8848b610dc2610dbd610d959a8e8e610d66565b610d76565b94610d66565b610d80565b906116e7565b9050610d93565b50945050505050565b90610184916112ef565b61019a90610662565b61019a9054610ded565b61019a916000610e1c610e2293610e15600090565b5082610c18565b0161062a565b610df6565b90610184916116e7565b61019a9161068b610c1492610b62600090565b90929190610e5861019a600192600161062a565b9184610e62845490565b610e6f61019a8385610a24565b811115610ef9575050935b610e8385610a5a565b92839583610e8f600090565b905b610e9e575b505050505050565b81811015610ef457610eee90610bd7610ec9610ec3610ebc88610a9b565b9787610af7565b906107ff565b610ed3838a610b35565b9073ffffffffffffffffffffffffffffffffffffffff169052565b84610e91565b610e96565b610f039250610a36565b93610e7a565b9061018491610f1a610c8782610c2f565b90610c969161106c565b9061018491610f09565b61019a7faf290d8680820aad922855f39b306097b20e28774d6c1ad35a20325630c3a02c610642565b61018490610f66610c87610f2e565b610fa8565b9073ffffffffffffffffffffffffffffffffffffffff905b9181191691161790565b90610f9d61019a610fa492610621565b8254610f6b565b9055565b610184906006610f8d565b61018490610f57565b610184903390611aa3565b9060ff90610f83565b90610fe061019a610fa492151590565b8254610fc7565b610ff8610ff48383610e00565b1590565b15611065576110176001611012846000610e1c8682610c18565b610fd0565b61103161102b611025339390565b93610621565b91610621565b917f2f8788117e7eff1d82e926ec794901d17c78024a50270940304540a733656f0d61105c60405190565b600090a4600190565b5050600090565b6110768282610e00565b156110655761108f60006110128482610e1c8682610c18565b61109d61102b611025339390565b917ff6391f5c32d9c69d2a47ea670b442974b53935d1edc7fd64eb21e047a839171b61105c60405190565b7f4e487b7100000000000000000000000000000000000000000000000000000000600052602160045260246000fd5b6003111561110157565b6110c8565b90610184826110f7565b61019d90610642565b73ffffffffffffffffffffffffffffffffffffffff91821681529116602082015261019a9260a082019261115d9190611153906040850152565b6060830190611110565b60808183039101526000815260200190565b6040513d6000823e3d90fd5b73ffffffffffffffffffffffffffffffffffffffff91821681529116602082015261019a916080820191906111b1906040830152565b60608183039101526000815260200190565b907fffffffffffffffffffffffffffffffffffffffffffffffffffffffffffffffff90610f83565b906111fb61019a610fa492610642565b82546111c3565b91906008610f8391029161122973ffffffffffffffffffffffffffffffffffffffff841b90565b921b90565b919061123f61019a610fa493610621565b908354611202565b9081549168010000000000000000831015610464578261126f91600161018495018155610af7565b9061122e565b91906008610f839102916112297fffffffffffffffffffffffffffffffffffffffffffffffffffffffffffffffff841b90565b91906112b961019a610fa493610642565b908354611275565b908154916801000000000000000083101561046457826112e991600161018495018155610af7565b906112a8565b906112f982611b7b565b60019061130e61130883611106565b91611106565b036114b05761132461131f84610621565b610621565b9061134761131f60065473ffffffffffffffffffffffffffffffffffffffff1690565b91803b156101725783600091611381948361136160405190565b80978195829461137563b88d4fde60e01b90565b8452336004850161117b565b03925af19081156114ab57611405928492611485575b505b6114006113ae61019a8761068b33600361062a565b916113b7835490565b6113c4610c6e6000610642565b1461144b575b6113ed6113d5845490565b6113e8866106908b61068b33600461062a565b6111eb565b611012846106908961068b33600561062a565b6112c1565b61141a61141461102533610621565b91610642565b917fa7e04113a5d0356a684538f5e0c9f61b855b4957f3fc1b033819063884aecb7f61144560405190565b600090a4565b61146a61145b610c14338461062a565b6113e88961068b33600261062a565b6114808761147b61019a338561062a565b611247565b6113ca565b61149e9060005b6114968183610424565b8101906107ba565b38611397565b503d61148c565b61116f565b6114b983611b7b565b6114c66113086002611106565b036115c0576114e1610e22836106908661068b33600561062a565b611595576114f161131f84610621565b9061151461131f60065473ffffffffffffffffffffffffffffffffffffffff1690565b91803b15610172578160009185836115639661152f60405190565b978895869485937ff242432a0000000000000000000000000000000000000000000000000000000085523360048601611119565b03925af19081156114ab5761140592849261157f575b50611399565b61158f9060006114968183610424565b38611579565b7f3654d087000000000000000000000000000000000000000000000000000000006000908152600490fd5b7f7932f1fc000000000000000000000000000000000000000000000000000000006000908152600490fd5b7f4e487b7100000000000000000000000000000000000000000000000000000000600052603160045260246000fd5b610184916000916112a8565b80548015611667577fffffffffffffffffffffffffffffffffffffffffffffffffffffffffffffffff019061166461165e8383610af7565b9061161a565b55565b6115eb565b6101849160009161122e565b80548015611667577fffffffffffffffffffffffffffffffffffffffffffffffffffffffffffffffff01906116646116b08383610af7565b9061166c565b73ffffffffffffffffffffffffffffffffffffffff9182168152911660208201526060810192916101849160400152565b906116fa61019a8361068b33600361062a565b60049061170b8461068b338561062a565b90611714815490565b91611727611722868361064f565b610c25565b831115611a4f5790610c1460006117728785611749611722836117779961064f565b61175e6001996117588b610642565b90610a36565b90818103611a21575b505061069086611626565b61161a565b90600091611787610c6e84610642565b1461197a575b6117a261130861179c87611b7b565b92611106565b03611895576117c961131f60065473ffffffffffffffffffffffffffffffffffffffff1690565b803b15610172578382918683611816966117e260405190565b978895869485937f308de502000000000000000000000000000000000000000000000000000000005b8552339085016116b6565b03925af19182156114ab5761183f92611879575b505b611012836106908661068b33600561062a565b61184e61141461102533610621565b917ffef04c7d4eedb6834985177719348986da71cc6db0472e30186496b17a52e71d61144560405190565b61188f90823d84116114a4576114968183610424565b3861182a565b61189e84611b7b565b6118ab6113086002611106565b0361194e576118d261131f60065473ffffffffffffffffffffffffffffffffffffffff1690565b803b15610172578382918683611918966118eb60405190565b978895869485937fac679d270000000000000000000000000000000000000000000000000000000061180b565b03925af19182156114ab5761183f92611932575b5061182c565b61194890823d84116114a4576114968183610424565b3861192c565b7f7932f1fc00000000000000000000000000000000000000000000000000000000815290819081010390fd5b6119d9826117728761068b6002866119996117228561068b338661062a565b6119b26119a9610c14338561062a565b61175884610642565b8082036119de575b5050506119d26119cd61019a338a61062a565b611678565b339061062a565b61178d565b611a00611a0f611a199461126f85611a05610ec36113e897611a00338761062a565b610af7565b948593339061062a565b61068b338661062a565b8638806119ba565b6113e8611a34610bc4611a48948b610af7565b611a42816112e9858d610af7565b8461064f565b3880611767565b7ff2d28f240000000000000000000000000000000000000000000000000000000060009081528490fd5b73ffffffffffffffffffffffffffffffffffffffff90911681526040810192916101849160200152565b90611ab1610ff48284610e00565b611ab9575050565b7fe2517d3f00000000000000000000000000000000000000000000000000000000600090815291610cfb916004611a79565b6101d261019a61019a9290565b61019a90611aeb565b80151561016b565b9050519061018482611b01565b906020828203126101725761019a91611b09565b611b3d611b3761019a9290565b60e01b90565b7fffffffff000000000000000000000000000000000000000000000000000000001690565b61019d90611b2a565b6020810192916101849190611b62565b611b886101d26000611af8565b73ffffffffffffffffffffffffffffffffffffffff8216148015611ccb575b611cc557611bb761131f82610621565b906301ffc9a7916020611bc960405190565b8092611bd58660e01b90565b82528180611bea63d9b67a2660048301611b6b565b03915afa60009181611ca4575b50611c875750611c1b91611c0f61131f602093610621565b60405193849260e01b90565b82528180611c306380ac58cd60048301611b6b565b03915afa60009181611c56575b50611c485750600090565b611c5157600090565b600190565b611c7991925060203d602011611c80575b611c718183610424565b810190611b16565b9038611c3d565b503d611c67565b611c9d57611c1b91611c0f61131f602093610621565b5050600290565b611cbe91925060203d602011611c8057611c718183610424565b9038611bf7565b50600090565b50611cd8610ff482611cdd565b611ba7565b3b610c72610c6e600061064256fea264697066735822122048a9440aefcd7726359ca0c4360f207ae14cdd32e8604e346ff702e9bdeade0f64736f6c634300081c0033",
  "linkReferences": {},
  "deployedLinkReferences": {}
}