{
  "_format": "hh-sol-artifact-1",
  "contractName": "PvpVault",
  "sourceName": "contracts/vaults/PvpVault.sol",
  "abi": [
    {
      "inputs": [
        {
          "internalType": "contract IERC20",
          "name": "_battingToken",
          "type": "address"
        },
        {
          "internalType": "address",
          "name": "_manager",
          "type": "address"
        }
      ],
      "stateMutability": "nonpayable",
      "type": "constructor"
    },
    {
      "inputs": [],
      "name": "AccessControlBadConfirmation",
      "type": "error"
    },
    {
      "inputs": [
        {
          "internalType": "address",
          "name": "account",
          "type": "address"
        },
        {
          "internalType": "bytes32",
          "name": "neededRole",
          "type": "bytes32"
        }
      ],
      "name": "AccessControlUnauthorizedAccount",
      "type": "error"
    },
    {
      "anonymous": false,
      "inputs": [
        {
          "indexed": true,
          "internalType": "address",
          "name": "receiver",
          "type": "address"
        },
        {
          "indexed": false,
          "internalType": "uint256",
          "name": "amount",
          "type": "uint256"
        }
      ],
      "name": "MoveToken",
      "type": "event"
    },
    {
      "anonymous": false,
      "inputs": [
        {
          "indexed": true,
          "internalType": "bytes32",
          "name": "role",
          "type": "bytes32"
        },
        {
          "indexed": true,
          "internalType": "bytes32",
          "name": "previousAdminRole",
          "type": "bytes32"
        },
        {
          "indexed": true,
          "internalType": "bytes32",
          "name": "newAdminRole",
          "type": "bytes32"
        }
      ],
      "name": "RoleAdminChanged",
      "type": "event"
    },
    {
      "anonymous": false,
      "inputs": [
        {
          "indexed": true,
          "internalType": "bytes32",
          "name": "role",
          "type": "bytes32"
        },
        {
          "indexed": true,
          "internalType": "address",
          "name": "account",
          "type": "address"
        },
        {
          "indexed": true,
          "internalType": "address",
          "name": "sender",
          "type": "address"
        }
      ],
      "name": "RoleGranted",
      "type": "event"
    },
    {
      "anonymous": false,
      "inputs": [
        {
          "indexed": true,
          "internalType": "bytes32",
          "name": "role",
          "type": "bytes32"
        },
        {
          "indexed": true,
          "internalType": "address",
          "name": "account",
          "type": "address"
        },
        {
          "indexed": true,
          "internalType": "address",
          "name": "sender",
          "type": "address"
        }
      ],
      "name": "RoleRevoked",
      "type": "event"
    },
    {
      "inputs": [],
      "name": "DEFAULT_ADMIN_ROLE",
      "outputs": [
        {
          "internalType": "bytes32",
          "name": "",
          "type": "bytes32"
        }
      ],
      "stateMutability": "view",
      "type": "function"
    },
    {
      "inputs": [],
      "name": "battingToken",
      "outputs": [
        {
          "internalType": "contract IERC20",
          "name": "",
          "type": "address"
        }
      ],
      "stateMutability": "view",
      "type": "function"
    },
    {
      "inputs": [
        {
          "internalType": "bytes32",
          "name": "role",
          "type": "bytes32"
        }
      ],
      "name": "getRoleAdmin",
      "outputs": [
        {
          "internalType": "bytes32",
          "name": "",
          "type": "bytes32"
        }
      ],
      "stateMutability": "view",
      "type": "function"
    },
    {
      "inputs": [
        {
          "internalType": "bytes32",
          "name": "role",
          "type": "bytes32"
        },
        {
          "internalType": "address",
          "name": "account",
          "type": "address"
        }
      ],
      "name": "grantRole",
      "outputs": [],
      "stateMutability": "nonpayable",
      "type": "function"
    },
    {
      "inputs": [
        {
          "internalType": "bytes32",
          "name": "role",
          "type": "bytes32"
        },
        {
          "internalType": "address",
          "name": "account",
          "type": "address"
        }
      ],
      "name": "hasRole",
      "outputs": [
        {
          "internalType": "bool",
          "name": "",
          "type": "bool"
        }
      ],
      "stateMutability": "view",
      "type": "function"
    },
    {
      "inputs": [
        {
          "internalType": "address",
          "name": "_receiver",
          "type": "address"
        },
        {
          "internalType": "uint256",
          "name": "_amount",
          "type": "uint256"
        }
      ],
      "name": "moveToken",
      "outputs": [],
      "stateMutability": "nonpayable",
      "type": "function"
    },
    {
      "inputs": [
        {
          "internalType": "bytes32",
          "name": "role",
          "type": "bytes32"
        },
        {
          "internalType": "address",
          "name": "callerConfirmation",
          "type": "address"
        }
      ],
      "name": "renounceRole",
      "outputs": [],
      "stateMutability": "nonpayable",
      "type": "function"
    },
    {
      "inputs": [
        {
          "internalType": "bytes32",
          "name": "role",
          "type": "bytes32"
        },
        {
          "internalType": "address",
          "name": "account",
          "type": "address"
        }
      ],
      "name": "revokeRole",
      "outputs": [],
      "stateMutability": "nonpayable",
      "type": "function"
    },
    {
      "inputs": [
        {
          "internalType": "contract IERC20",
          "name": "_battingToken",
          "type": "address"
        }
      ],
      "name": "setBattingToken",
      "outputs": [],
      "stateMutability": "nonpayable",
      "type": "function"
    },
    {
      "inputs": [
        {
          "internalType": "bytes4",
          "name": "interfaceId",
          "type": "bytes4"
        }
      ],
      "name": "supportsInterface",
      "outputs": [
        {
          "internalType": "bool",
          "name": "",
          "type": "bool"
        }
      ],
      "stateMutability": "view",
      "type": "function"
    }
  ],
  "bytecode": "0x60806040523461002b5761001a6100146100ef565b906101a7565b60405161099b6102c2823961099b90f35b600080fd5b634e487b7160e01b600052604160045260246000fd5b90601f01601f191681019081106001600160401b0382111761006757604052565b610030565b9061008061007960405190565b9283610046565b565b6001600160a01b031690565b90565b6001600160a01b0381165b0361002b57565b9050519061008082610091565b6001600160a01b03811661009c565b90505190610080826100b0565b919060408382031261002b5761008e9060206100e882866100a3565b94016100bf565b61010d610c5d803803806101028161006c565b9283398101906100cc565b9091565b906001600160a01b03905b9181191691161790565b61008e90610082906001600160a01b031682565b61008e90610126565b61008e9061013a565b9061015c61008e61016392610143565b8254610111565b9055565b61008e61008e61008e9290565b61008e6000610167565b61008e7faf290d8680820aad922855f39b306097b20e28774d6c1ad35a20325630c3a02c610167565b906101b66101d692600161014c565b6101c86101c1610174565b3390610213565b506101d161017e565b610213565b50565b905b600052602052604060002090565b906101db90610143565b9060ff9061011c565b9061020c61008e61016392151590565b82546101f3565b610224610220838361029e565b1590565b1561029757610249600161024484600061023e86826101d9565b016101e9565b6101fc565b61026361025d610257339390565b93610143565b91610143565b917f2f8788117e7eff1d82e926ec794901d17c78024a50270940304540a733656f0d61028e60405190565b600090a4600190565b5050600090565b61008e91600061023e6102ba936102b3600090565b50826101d9565b5460ff169056fe6080604052600436101561001257600080fd5b60003560e01c806301ffc9a7146100b2578063248a9ca3146100ad5780632f2ff15d146100a857806336568abe146100a35780634afb356e1461009e57806391d1485414610099578063a217fddf14610094578063d547741f1461008f578063ed52b5751461008a5763f4c68cdb036100e2576103a7565b61036c565b61033f565b610324565b6102e9565b6102c2565b610218565b6101fa565b610169565b610111565b7fffffffff0000000000000000000000000000000000000000000000000000000081165b036100e257565b600080fd5b905035906100f4826100b7565b565b906020828203126100e25761010a916100e7565b90565b9052565b346100e25761013e61012c6101273660046100f6565b6103c0565b60405191829182901515815260200190565b0390f35b806100db565b905035906100f482610142565b906020828203126100e25761010a91610148565b346100e25761013e61018461017f366004610155565b61047d565b6040515b9182918290815260200190565b73ffffffffffffffffffffffffffffffffffffffff1690565b73ffffffffffffffffffffffffffffffffffffffff81166100db565b905035906100f4826101ae565b91906040838203126100e25761010a9060206101f38286610148565b94016101ca565b346100e25761021361020d3660046101d7565b906104bf565b604051005b346100e25761021361022b3660046101d7565b906104c9565b60009103126100e257565b61010a916008021c73ffffffffffffffffffffffffffffffffffffffff1690565b9061010a915461023c565b61010a6000600161025d565b61019561010a61010a9273ffffffffffffffffffffffffffffffffffffffff1690565b61010a90610274565b61010a90610297565b61010d906102a0565b6020810192916100f491906102a9565b346100e2576102d2366004610231565b61013e6102dd610268565b604051918291826102b2565b346100e25761013e61012c6102ff3660046101d7565b90610530565b61010a61010a61010a9290565b61010a6000610305565b61010a610312565b346100e257610334366004610231565b61013e61018461031c565b346100e2576102136103523660046101d7565b90610574565b906020828203126100e25761010a916101ca565b346100e25761021361037f366004610358565b610603565b91906040838203126100e25761010a9060206103a082866101ca565b9401610148565b346100e2576102136103ba366004610384565b90610807565b7f7965db0b000000000000000000000000000000000000000000000000000000007fffffffff00000000000000000000000000000000000000000000000000000000821614908115610410575090565b61010a91507fffffffff00000000000000000000000000000000000000000000000000000000167f01ffc9a7000000000000000000000000000000000000000000000000000000001490565b905b600052602052604060002090565b61010a9081565b61010a905461046c565b600161049661010a9261048e600090565b50600061045c565b01610473565b906100f4916104b26104ad8261047d565b610811565b906104bc9161083c565b50565b906100f49161049c565b906104d333610195565b73ffffffffffffffffffffffffffffffffffffffff8216036104f8576104bc916108c1565b7f6697b23200000000000000000000000000000000000000000000000000000000600090815260045b036000fd5b9061045e906102a0565b61010a91600061054c61055293610545600090565b508261045c565b01610526565b5460ff1690565b906100f49161056a6104ad8261047d565b906104bc916108c1565b906100f491610559565b61010a7faf290d8680820aad922855f39b306097b20e28774d6c1ad35a20325630c3a02c610305565b6100f4906105b66104ad61057e565b6105f8565b9073ffffffffffffffffffffffffffffffffffffffff905b9181191691161790565b906105ed61010a6105f4926102a0565b82546105bb565b9055565b6100f49060016105dd565b6100f4906105a7565b61010a7f85faced7bde13e1a7dad704b895f006e704f207617d68166b31ba2d79624862d610305565b906100f4916106456104ad61060c565b61071d565b7f4e487b7100000000000000000000000000000000000000000000000000000000600052604160045260246000fd5b90601f017fffffffffffffffffffffffffffffffffffffffffffffffffffffffffffffffe016810190811067ffffffffffffffff8211176106b957604052565b61064a565b8015156100db565b905051906100f4826106be565b906020828203126100e25761010a916106c6565b73ffffffffffffffffffffffffffffffffffffffff90911681526040810192916100f49160200152565b6040513d6000823e3d90fd5b61074461073f60015473ffffffffffffffffffffffffffffffffffffffff1690565b6102a0565b602061074f60405190565b9182907fa9059cbb000000000000000000000000000000000000000000000000000000008252816000816107878989600484016106e7565b03925af18015610802577fe0a819ae3141e02e79f16872d96f2a5224f511b183d3b9acbcb25bfc61102691926107d0926107c6926107d5575b506102a0565b9261018860405190565b0390a2565b6107f69060203d6020116107fb575b6107ee8183610679565b8101906106d3565b6107c0565b503d6107e4565b610711565b906100f491610635565b6100f490339061091d565b9060ff906105d3565b9061083561010a6105f492151590565b825461081c565b61084d6108498383610530565b1590565b156108ba5761086c600161086784600061054c868261045c565b610825565b61088661088061087a339390565b936102a0565b916102a0565b917f2f8788117e7eff1d82e926ec794901d17c78024a50270940304540a733656f0d6108b160405190565b600090a4600190565b5050600090565b6108cb8282610530565b156108ba576108e46000610867848261054c868261045c565b6108f261088061087a339390565b917ff6391f5c32d9c69d2a47ea670b442974b53935d1edc7fd64eb21e047a839171b6108b160405190565b9061092b6108498284610530565b610933575050565b7fe2517d3f000000000000000000000000000000000000000000000000000000006000908152916105219160046106e756fea26469706673582212206f00c12d9c029cf65c8d982edf417d1d7d4fab9d4439abb6ae4591c83082545b64736f6c634300081c0033",
  "linkReferences": {},
  "deployedLinkReferences": {}
}