{
  "contracts/tokenMarket/TokenMarket.sol": {
    "TokenMarket": {
      "abi": [
        {
          "inputs": [
            {
              "internalType": "contract ILatch",
              "name": "_saleToken",
              "type": "address"
            }
          ],
          "stateMutability": "nonpayable",
          "type": "constructor"
        },
        {
          "inputs": [],
          "name": "AccessControlBadConfirmation",
          "type": "error"
        },
        {
          "inputs": [
            {
              "internalType": "address",
              "name": "account",
              "type": "address"
            },
            {
              "internalType": "bytes32",
              "name": "neededRole",
              "type": "bytes32"
            }
          ],
          "name": "AccessControlUnauthorizedAccount",
          "type": "error"
        },
        {
          "inputs": [],
          "name": "ReentrancyGuardReentrantCall",
          "type": "error"
        },
        {
          "inputs": [],
          "name": "insufficientAmount",
          "type": "error"
        },
        {
          "inputs": [],
          "name": "tooSmallAmount",
          "type": "error"
        },
        {
          "inputs": [],
          "name": "transactionFailed",
          "type": "error"
        },
        {
          "anonymous": false,
          "inputs": [
            {
              "indexed": true,
              "internalType": "address",
              "name": "buyer",
              "type": "address"
            },
            {
              "indexed": false,
              "internalType": "uint256",
              "name": "tokenAmount",
              "type": "uint256"
            }
          ],
          "name": "Buy",
          "type": "event"
        },
        {
          "anonymous": false,
          "inputs": [
            {
              "indexed": true,
              "internalType": "bytes32",
              "name": "role",
              "type": "bytes32"
            },
            {
              "indexed": true,
              "internalType": "bytes32",
              "name": "previousAdminRole",
              "type": "bytes32"
            },
            {
              "indexed": true,
              "internalType": "bytes32",
              "name": "newAdminRole",
              "type": "bytes32"
            }
          ],
          "name": "RoleAdminChanged",
          "type": "event"
        },
        {
          "anonymous": false,
          "inputs": [
            {
              "indexed": true,
              "internalType": "bytes32",
              "name": "role",
              "type": "bytes32"
            },
            {
              "indexed": true,
              "internalType": "address",
              "name": "account",
              "type": "address"
            },
            {
              "indexed": true,
              "internalType": "address",
              "name": "sender",
              "type": "address"
            }
          ],
          "name": "RoleGranted",
          "type": "event"
        },
        {
          "anonymous": false,
          "inputs": [
            {
              "indexed": true,
              "internalType": "bytes32",
              "name": "role",
              "type": "bytes32"
            },
            {
              "indexed": true,
              "internalType": "address",
              "name": "account",
              "type": "address"
            },
            {
              "indexed": true,
              "internalType": "address",
              "name": "sender",
              "type": "address"
            }
          ],
          "name": "RoleRevoked",
          "type": "event"
        },
        {
          "anonymous": false,
          "inputs": [
            {
              "indexed": true,
              "internalType": "address",
              "name": "seller",
              "type": "address"
            },
            {
              "indexed": false,
              "internalType": "uint256",
              "name": "ethAmount",
              "type": "uint256"
            }
          ],
          "name": "Sell",
          "type": "event"
        },
        {
          "inputs": [],
          "name": "DEFAULT_ADMIN_ROLE",
          "outputs": [
            {
              "internalType": "bytes32",
              "name": "",
              "type": "bytes32"
            }
          ],
          "stateMutability": "view",
          "type": "function"
        },
        {
          "inputs": [],
          "name": "SALE_TOKEN",
          "outputs": [
            {
              "internalType": "contract ILatch",
              "name": "",
              "type": "address"
            }
          ],
          "stateMutability": "view",
          "type": "function"
        },
        {
          "inputs": [
            {
              "internalType": "uint256",
              "name": "_amount",
              "type": "uint256"
            }
          ],
          "name": "buyToken",
          "outputs": [],
          "stateMutability": "payable",
          "type": "function"
        },
        {
          "inputs": [
            {
              "internalType": "bytes32",
              "name": "role",
              "type": "bytes32"
            }
          ],
          "name": "getRoleAdmin",
          "outputs": [
            {
              "internalType": "bytes32",
              "name": "",
              "type": "bytes32"
            }
          ],
          "stateMutability": "view",
          "type": "function"
        },
        {
          "inputs": [
            {
              "internalType": "bytes32",
              "name": "role",
              "type": "bytes32"
            },
            {
              "internalType": "address",
              "name": "account",
              "type": "address"
            }
          ],
          "name": "grantRole",
          "outputs": [],
          "stateMutability": "nonpayable",
          "type": "function"
        },
        {
          "inputs": [
            {
              "internalType": "bytes32",
              "name": "role",
              "type": "bytes32"
            },
            {
              "internalType": "address",
              "name": "account",
              "type": "address"
            }
          ],
          "name": "hasRole",
          "outputs": [
            {
              "internalType": "bool",
              "name": "",
              "type": "bool"
            }
          ],
          "stateMutability": "view",
          "type": "function"
        },
        {
          "inputs": [],
          "name": "pricePerToken",
          "outputs": [
            {
              "internalType": "uint256",
              "name": "",
              "type": "uint256"
            }
          ],
          "stateMutability": "view",
          "type": "function"
        },
        {
          "inputs": [
            {
              "internalType": "bytes32",
              "name": "role",
              "type": "bytes32"
            },
            {
              "internalType": "address",
              "name": "callerConfirmation",
              "type": "address"
            }
          ],
          "name": "renounceRole",
          "outputs": [],
          "stateMutability": "nonpayable",
          "type": "function"
        },
        {
          "inputs": [
            {
              "internalType": "bytes32",
              "name": "role",
              "type": "bytes32"
            },
            {
              "internalType": "address",
              "name": "account",
              "type": "address"
            }
          ],
          "name": "revokeRole",
          "outputs": [],
          "stateMutability": "nonpayable",
          "type": "function"
        },
        {
          "inputs": [
            {
              "internalType": "uint256",
              "name": "_amount",
              "type": "uint256"
            }
          ],
          "name": "sellToken",
          "outputs": [],
          "stateMutability": "nonpayable",
          "type": "function"
        },
        {
          "inputs": [
            {
              "internalType": "uint256",
              "name": "_pricePerToken",
              "type": "uint256"
            }
          ],
          "name": "setPricePerToken",
          "outputs": [],
          "stateMutability": "nonpayable",
          "type": "function"
        },
        {
          "inputs": [
            {
              "internalType": "bytes4",
              "name": "interfaceId",
              "type": "bytes4"
            }
          ],
          "name": "supportsInterface",
          "outputs": [
            {
              "internalType": "bool",
              "name": "",
              "type": "bool"
            }
          ],
          "stateMutability": "view",
          "type": "function"
        }
      ],
      "evm": {
        "bytecode": {
          "linkReferences": {},
          "object": "60a060405234610041576100196100146100d9565b610162565b604051610e4a6102df82396080518181816103990152818161064c015261093f0152610e4a90f35b600080fd5b634e487b7160e01b600052604160045260246000fd5b90601f01601f191681019081106001600160401b0382111761007d57604052565b610046565b9061009661008f60405190565b928361005c565b565b6001600160a01b031690565b90565b6001600160a01b0381160361004157565b90505190610096826100a7565b90602082820312610041576100a4916100b8565b6100a4611129803803806100ec81610082565b9283398101906100c5565b90600019905b9181191691161790565b6100a46100a46100a49290565b906101246100a461012b92610107565b82546100f7565b9055565b6100a46000610107565b6100a47faf290d8680820aad922855f39b306097b20e28774d6c1ad35a20325630c3a02c610107565b61016a61019e565b61017a6402540be4006002610114565b60805261018f61018861012f565b339061022e565b5061019b610188610139565b50565b6100966100966100966100966100966101bc565b6100a46001610107565b6100966101c76101b2565b6000610114565b905b600052602052604060002090565b6100a490610098906001600160a01b031682565b6100a4906101de565b6100a4906101f2565b906101d0906101fb565b9060ff906100fd565b906102276100a461012b92151590565b825461020e565b9061024061023c82846102ba565b1590565b156102b3576001916102678361026284600061025c86856101ce565b01610204565b610217565b61028161027b610275339390565b936101fb565b916101fb565b917f2f8788117e7eff1d82e926ec794901d17c78024a50270940304540a733656f0d6102ac60405190565b600090a490565b5050600090565b6100a491600061025c6102d7936102cf600090565b5060016101ce565b5460ff169056fe6080604052600436101561001257600080fd5b60003560e01c806301ffc9a7146100d25780632397e4d7146100cd578063248a9ca3146100c85780632bf2762f146100c35780632d296bf1146100be5780632f2ff15d146100b957806336568abe146100b45780637b1b1de6146100af57806391d14854146100aa578063a217fddf146100a5578063b8ac77a4146100a05763d547741f03610102576103be565b610380565b610317565b6102dc565b6102c1565b61027b565b610262565b6101ea565b6101d2565b6101a6565b610189565b610131565b7fffffffff0000000000000000000000000000000000000000000000000000000081165b0361010257565b600080fd5b90503590610114826100d7565b565b906020828203126101025761012a91610107565b90565b9052565b346101025761015e61014c610147366004610116565b6103d7565b60405191829182901515815260200190565b0390f35b806100fb565b9050359061011482610162565b906020828203126101025761012a91610168565b34610102576101a161019c366004610175565b6107f4565b604051005b346101025761015e6101c16101bc366004610175565b61080d565b6040515b9182918290815260200190565b34610102576101a16101e5366004610175565b6108c1565b6101a16101f8366004610175565b610a80565b73ffffffffffffffffffffffffffffffffffffffff1690565b73ffffffffffffffffffffffffffffffffffffffff81166100fb565b9050359061011482610216565b91906040838203126101025761012a90602061025b8286610168565b9401610232565b34610102576101a161027536600461023f565b90610aa7565b34610102576101a161028e36600461023f565b90610ab1565b600091031261010257565b61012a916008021c81565b9061012a915461029f565b61012a600060026102aa565b34610102576102d1366004610294565b61015e6101c16102b5565b346101025761015e61014c6102f236600461023f565b90610b18565b61012a61012a61012a9290565b61012a60006102f8565b61012a610305565b3461010257610327366004610294565b61015e6101c161030f565b6101fd61012a61012a9273ffffffffffffffffffffffffffffffffffffffff1690565b61012a90610332565b61012a90610355565b61012d9061035e565b6020810192916101149190610367565b3461010257610390366004610294565b6040518061015e7f000000000000000000000000000000000000000000000000000000000000000082610370565b34610102576101a16103d136600461023f565b90610b5d565b7f7965db0b000000000000000000000000000000000000000000000000000000007fffffffff00000000000000000000000000000000000000000000000000000000821614908115610427575090565b61012a91507fffffffff00000000000000000000000000000000000000000000000000000000167f01ffc9a7000000000000000000000000000000000000000000000000000000001490565b6104849061047f610b71565b610607565b610114610bca565b61012a9081565b61012a905461048c565b7f4e487b7100000000000000000000000000000000000000000000000000000000600052601160045260246000fd5b818102929181159184041417156104df57565b61049d565b7f4e487b7100000000000000000000000000000000000000000000000000000000600052601260045260246000fd5b9061051d565b9190565b908115610528570490565b6104e4565b7f4e487b7100000000000000000000000000000000000000000000000000000000600052604160045260246000fd5b90601f017fffffffffffffffffffffffffffffffffffffffffffffffffffffffffffffffe016810190811067ffffffffffffffff82111761059c57604052565b61052d565b8015156100fb565b90505190610114826105a1565b906020828203126101025761012a916105a9565b73ffffffffffffffffffffffffffffffffffffffff9182168152911660208201526060810192916101149160400152565b6040513d6000823e3d90fd5b61063461061d6106176002610493565b836104cc565b61062e670de0b6b3a76400006102f8565b90610513565b90600090610641826102f8565b83146107cb576106707f000000000000000000000000000000000000000000000000000000000000000061035e565b6106b460208361067f3061035e565b60405193849283927f23b872dd00000000000000000000000000000000000000000000000000000000845233600485016105ca565b038187865af180156107995761079e575b50803b156101025761071683929183926106de60405190565b94859384928391907f42966c680000000000000000000000000000000000000000000000000000000083526004830190815260200190565b03925af180156107995761076c575b505061073081610c61565b7f5e5e995ce3133561afceaa51a9a154d5db228cd7525d34df5185582c18d3df0961076761075d3361035e565b926101c560405190565b0390a2565b8161078b92903d10610792575b610783818361055c565b810190610294565b3880610725565b503d610779565b6105fb565b6107bf9060203d6020116107c4575b6107b7818361055c565b8101906105b6565b6106c5565b503d6107ad565b507fd84739b1000000000000000000000000000000000000000000000000000000008152600490fd5b61011490610473565b905b600052602052604060002090565b600161082561012a9261081e600090565b50826107fd565b01610493565b61012a7faf290d8680820aad922855f39b306097b20e28774d6c1ad35a20325630c3a02c6102f8565b6101149061086861086361082b565b610cb5565b6108b6565b907fffffffffffffffffffffffffffffffffffffffffffffffffffffffffffffffff905b9181191691161790565b906108ab61012a6108b2926102f8565b825461086d565b9055565b61011490600261089b565b61011490610854565b610484906108d6610b71565b610912565b73ffffffffffffffffffffffffffffffffffffffff90911681526040810192916101149160200152565b919082039182116104df57565b61092261061d6106176002610493565b600061092d816102f8565b8214610a5857813410610a30576109637f000000000000000000000000000000000000000000000000000000000000000061035e565b803b15610102578161097460405190565b9182907f40c10f190000000000000000000000000000000000000000000000000000000082528183816109ab8a33600484016108db565b03925af1801561079957610a14575b506109d16105196109cb8434610905565b926102f8565b11610a05575b507fe3d4187f6ca4248660cc0ac8b8056515bac4a8132be2eca31d6d0cc170722a7e61076761075d3361035e565b610a0e90610c61565b386109d7565b610a2a90823d841161079257610783818361055c565b386109ba565b7f59c4221c000000000000000000000000000000000000000000000000000000008152600490fd5b7fd84739b1000000000000000000000000000000000000000000000000000000008152600490fd5b610114906108ca565b9061011491610a9a6108638261080d565b90610aa491610ce0565b50565b9061011491610a89565b90610abb336101fd565b73ffffffffffffffffffffffffffffffffffffffff821603610ae057610aa491610d66565b7f6697b23200000000000000000000000000000000000000000000000000000000600090815260045b036000fd5b906107ff9061035e565b61012a916000610b35610b3b93610b2d600090565b5060016107fd565b01610b0e565b5460ff1690565b9061011491610b536108638261080d565b90610aa491610d66565b9061011491610b42565b61012a60026102f8565b610b7b6000610493565b610b83610b67565b908114610b955761011490600061089b565b7f3ee5aeb5000000000000000000000000000000000000000000000000000000006000908152600490fd5b61012a60016102f8565b610114610bd5610bc0565b600061089b565b90610114610be960405190565b928361055c565b67ffffffffffffffff811161059c57602090601f017fffffffffffffffffffffffffffffffffffffffffffffffffffffffffffffffe0160190565b90610c3d610c3883610bf0565b610bdc565b918252565b3d15610c5c57610c513d610c2b565b903d6000602084013e565b606090565b600080610c8492610c7160405190565b600091335af1610c7f610c42565b501590565b610c8a57565b7fdccf81a9000000000000000000000000000000000000000000000000000000006000908152600490fd5b610114903390610dcc565b9060ff90610891565b90610cd961012a6108b292151590565b8254610cc0565b90610cf2610cee8284610b18565b1590565b15610d5f57600191610d1383610d0e846000610b3586856107fd565b610cc9565b610d2d610d27610d21339390565b9361035e565b9161035e565b917f2f8788117e7eff1d82e926ec794901d17c78024a50270940304540a733656f0d610d5860405190565b600090a490565b5050600090565b610d708282610b18565b15610d5f57610d8a6000610d0e8482610b358660016107fd565b610d98610d27610d21339390565b917ff6391f5c32d9c69d2a47ea670b442974b53935d1edc7fd64eb21e047a839171b610dc360405190565b600090a4600190565b90610dda610cee8284610b18565b610de2575050565b7fe2517d3f00000000000000000000000000000000000000000000000000000000600090815291610b099160046108db56fea26469706673582212207595aa925a1d4066bb64d4feaba16efa4b9b774020e4e137fd87c91c594ec02764736f6c634300081c0033",
          "opcodes": "PUSH1 0xA0 PUSH1 0x40 MSTORE CALLVALUE PUSH2 0x41 JUMPI PUSH2 0x19 PUSH2 0x14 PUSH2 0xD9 JUMP JUMPDEST PUSH2 0x162 JUMP JUMPDEST PUSH1 0x40 MLOAD PUSH2 0xE4A PUSH2 0x2DF DUP3 CODECOPY PUSH1 0x80 MLOAD DUP2 DUP2 DUP2 PUSH2 0x399 ADD MSTORE DUP2 DUP2 PUSH2 0x64C ADD MSTORE PUSH2 0x93F ADD MSTORE PUSH2 0xE4A SWAP1 RETURN JUMPDEST PUSH1 0x0 DUP1 REVERT JUMPDEST PUSH4 0x4E487B71 PUSH1 0xE0 SHL PUSH1 0x0 MSTORE PUSH1 0x41 PUSH1 0x4 MSTORE PUSH1 0x24 PUSH1 0x0 REVERT JUMPDEST SWAP1 PUSH1 0x1F ADD PUSH1 0x1F NOT AND DUP2 ADD SWAP1 DUP2 LT PUSH1 0x1 PUSH1 0x1 PUSH1 0x40 SHL SUB DUP3 GT OR PUSH2 0x7D JUMPI PUSH1 0x40 MSTORE JUMP JUMPDEST PUSH2 0x46 JUMP JUMPDEST SWAP1 PUSH2 0x96 PUSH2 0x8F PUSH1 0x40 MLOAD SWAP1 JUMP JUMPDEST SWAP3 DUP4 PUSH2 0x5C JUMP JUMPDEST JUMP JUMPDEST PUSH1 0x1 PUSH1 0x1 PUSH1 0xA0 SHL SUB AND SWAP1 JUMP JUMPDEST SWAP1 JUMP JUMPDEST PUSH1 0x1 PUSH1 0x1 PUSH1 0xA0 SHL SUB DUP2 AND SUB PUSH2 0x41 JUMPI JUMP JUMPDEST SWAP1 POP MLOAD SWAP1 PUSH2 0x96 DUP3 PUSH2 0xA7 JUMP JUMPDEST SWAP1 PUSH1 0x20 DUP3 DUP3 SUB SLT PUSH2 0x41 JUMPI PUSH2 0xA4 SWAP2 PUSH2 0xB8 JUMP JUMPDEST PUSH2 0xA4 PUSH2 0x1129 DUP1 CODESIZE SUB DUP1 PUSH2 0xEC DUP2 PUSH2 0x82 JUMP JUMPDEST SWAP3 DUP4 CODECOPY DUP2 ADD SWAP1 PUSH2 0xC5 JUMP JUMPDEST SWAP1 PUSH1 0x0 NOT SWAP1 JUMPDEST SWAP2 DUP2 NOT AND SWAP2 AND OR SWAP1 JUMP JUMPDEST PUSH2 0xA4 PUSH2 0xA4 PUSH2 0xA4 SWAP3 SWAP1 JUMP JUMPDEST SWAP1 PUSH2 0x124 PUSH2 0xA4 PUSH2 0x12B SWAP3 PUSH2 0x107 JUMP JUMPDEST DUP3 SLOAD PUSH2 0xF7 JUMP JUMPDEST SWAP1 SSTORE JUMP JUMPDEST PUSH2 0xA4 PUSH1 0x0 PUSH2 0x107 JUMP JUMPDEST PUSH2 0xA4 PUSH32 0xAF290D8680820AAD922855F39B306097B20E28774D6C1AD35A20325630C3A02C PUSH2 0x107 JUMP JUMPDEST PUSH2 0x16A PUSH2 0x19E JUMP JUMPDEST PUSH2 0x17A PUSH5 0x2540BE400 PUSH1 0x2 PUSH2 0x114 JUMP JUMPDEST PUSH1 0x80 MSTORE PUSH2 0x18F PUSH2 0x188 PUSH2 0x12F JUMP JUMPDEST CALLER SWAP1 PUSH2 0x22E JUMP JUMPDEST POP PUSH2 0x19B PUSH2 0x188 PUSH2 0x139 JUMP JUMPDEST POP JUMP JUMPDEST PUSH2 0x96 PUSH2 0x96 PUSH2 0x96 PUSH2 0x96 PUSH2 0x96 PUSH2 0x1BC JUMP JUMPDEST PUSH2 0xA4 PUSH1 0x1 PUSH2 0x107 JUMP JUMPDEST PUSH2 0x96 PUSH2 0x1C7 PUSH2 0x1B2 JUMP JUMPDEST PUSH1 0x0 PUSH2 0x114 JUMP JUMPDEST SWAP1 JUMPDEST PUSH1 0x0 MSTORE PUSH1 0x20 MSTORE PUSH1 0x40 PUSH1 0x0 KECCAK256 SWAP1 JUMP JUMPDEST PUSH2 0xA4 SWAP1 PUSH2 0x98 SWAP1 PUSH1 0x1 PUSH1 0x1 PUSH1 0xA0 SHL SUB AND DUP3 JUMP JUMPDEST PUSH2 0xA4 SWAP1 PUSH2 0x1DE JUMP JUMPDEST PUSH2 0xA4 SWAP1 PUSH2 0x1F2 JUMP JUMPDEST SWAP1 PUSH2 0x1D0 SWAP1 PUSH2 0x1FB JUMP JUMPDEST SWAP1 PUSH1 0xFF SWAP1 PUSH2 0xFD JUMP JUMPDEST SWAP1 PUSH2 0x227 PUSH2 0xA4 PUSH2 0x12B SWAP3 ISZERO ISZERO SWAP1 JUMP JUMPDEST DUP3 SLOAD PUSH2 0x20E JUMP JUMPDEST SWAP1 PUSH2 0x240 PUSH2 0x23C DUP3 DUP5 PUSH2 0x2BA JUMP JUMPDEST ISZERO SWAP1 JUMP JUMPDEST ISZERO PUSH2 0x2B3 JUMPI PUSH1 0x1 SWAP2 PUSH2 0x267 DUP4 PUSH2 0x262 DUP5 PUSH1 0x0 PUSH2 0x25C DUP7 DUP6 PUSH2 0x1CE JUMP JUMPDEST ADD PUSH2 0x204 JUMP JUMPDEST PUSH2 0x217 JUMP JUMPDEST PUSH2 0x281 PUSH2 0x27B PUSH2 0x275 CALLER SWAP4 SWAP1 JUMP JUMPDEST SWAP4 PUSH2 0x1FB JUMP JUMPDEST SWAP2 PUSH2 0x1FB JUMP JUMPDEST SWAP2 PUSH32 0x2F8788117E7EFF1D82E926EC794901D17C78024A50270940304540A733656F0D PUSH2 0x2AC PUSH1 0x40 MLOAD SWAP1 JUMP JUMPDEST PUSH1 0x0 SWAP1 LOG4 SWAP1 JUMP JUMPDEST POP POP PUSH1 0x0 SWAP1 JUMP JUMPDEST PUSH2 0xA4 SWAP2 PUSH1 0x0 PUSH2 0x25C PUSH2 0x2D7 SWAP4 PUSH2 0x2CF PUSH1 0x0 SWAP1 JUMP JUMPDEST POP PUSH1 0x1 PUSH2 0x1CE JUMP JUMPDEST SLOAD PUSH1 0xFF AND SWAP1 JUMP INVALID PUSH1 0x80 PUSH1 0x40 MSTORE PUSH1 0x4 CALLDATASIZE LT ISZERO PUSH2 0x12 JUMPI PUSH1 0x0 DUP1 REVERT JUMPDEST PUSH1 0x0 CALLDATALOAD PUSH1 0xE0 SHR DUP1 PUSH4 0x1FFC9A7 EQ PUSH2 0xD2 JUMPI DUP1 PUSH4 0x2397E4D7 EQ PUSH2 0xCD JUMPI DUP1 PUSH4 0x248A9CA3 EQ PUSH2 0xC8 JUMPI DUP1 PUSH4 0x2BF2762F EQ PUSH2 0xC3 JUMPI DUP1 PUSH4 0x2D296BF1 EQ PUSH2 0xBE JUMPI DUP1 PUSH4 0x2F2FF15D EQ PUSH2 0xB9 JUMPI DUP1 PUSH4 0x36568ABE EQ PUSH2 0xB4 JUMPI DUP1 PUSH4 0x7B1B1DE6 EQ PUSH2 0xAF JUMPI DUP1 PUSH4 0x91D14854 EQ PUSH2 0xAA JUMPI DUP1 PUSH4 0xA217FDDF EQ PUSH2 0xA5 JUMPI DUP1 PUSH4 0xB8AC77A4 EQ PUSH2 0xA0 JUMPI PUSH4 0xD547741F SUB PUSH2 0x102 JUMPI PUSH2 0x3BE JUMP JUMPDEST PUSH2 0x380 JUMP JUMPDEST PUSH2 0x317 JUMP JUMPDEST PUSH2 0x2DC JUMP JUMPDEST PUSH2 0x2C1 JUMP JUMPDEST PUSH2 0x27B JUMP JUMPDEST PUSH2 0x262 JUMP JUMPDEST PUSH2 0x1EA JUMP JUMPDEST PUSH2 0x1D2 JUMP JUMPDEST PUSH2 0x1A6 JUMP JUMPDEST PUSH2 0x189 JUMP JUMPDEST PUSH2 0x131 JUMP JUMPDEST PUSH32 0xFFFFFFFF00000000000000000000000000000000000000000000000000000000 DUP2 AND JUMPDEST SUB PUSH2 0x102 JUMPI JUMP JUMPDEST PUSH1 0x0 DUP1 REVERT JUMPDEST SWAP1 POP CALLDATALOAD SWAP1 PUSH2 0x114 DUP3 PUSH2 0xD7 JUMP JUMPDEST JUMP JUMPDEST SWAP1 PUSH1 0x20 DUP3 DUP3 SUB SLT PUSH2 0x102 JUMPI PUSH2 0x12A SWAP2 PUSH2 0x107 JUMP JUMPDEST SWAP1 JUMP JUMPDEST SWAP1 MSTORE JUMP JUMPDEST CALLVALUE PUSH2 0x102 JUMPI PUSH2 0x15E PUSH2 0x14C PUSH2 0x147 CALLDATASIZE PUSH1 0x4 PUSH2 0x116 JUMP JUMPDEST PUSH2 0x3D7 JUMP JUMPDEST PUSH1 0x40 MLOAD SWAP2 DUP3 SWAP2 DUP3 SWAP1 ISZERO ISZERO DUP2 MSTORE PUSH1 0x20 ADD SWAP1 JUMP JUMPDEST SUB SWAP1 RETURN JUMPDEST DUP1 PUSH2 0xFB JUMP JUMPDEST SWAP1 POP CALLDATALOAD SWAP1 PUSH2 0x114 DUP3 PUSH2 0x162 JUMP JUMPDEST SWAP1 PUSH1 0x20 DUP3 DUP3 SUB SLT PUSH2 0x102 JUMPI PUSH2 0x12A SWAP2 PUSH2 0x168 JUMP JUMPDEST CALLVALUE PUSH2 0x102 JUMPI PUSH2 0x1A1 PUSH2 0x19C CALLDATASIZE PUSH1 0x4 PUSH2 0x175 JUMP JUMPDEST PUSH2 0x7F4 JUMP JUMPDEST PUSH1 0x40 MLOAD STOP JUMPDEST CALLVALUE PUSH2 0x102 JUMPI PUSH2 0x15E PUSH2 0x1C1 PUSH2 0x1BC CALLDATASIZE PUSH1 0x4 PUSH2 0x175 JUMP JUMPDEST PUSH2 0x80D JUMP JUMPDEST PUSH1 0x40 MLOAD JUMPDEST SWAP2 DUP3 SWAP2 DUP3 SWAP1 DUP2 MSTORE PUSH1 0x20 ADD SWAP1 JUMP JUMPDEST CALLVALUE PUSH2 0x102 JUMPI PUSH2 0x1A1 PUSH2 0x1E5 CALLDATASIZE PUSH1 0x4 PUSH2 0x175 JUMP JUMPDEST PUSH2 0x8C1 JUMP JUMPDEST PUSH2 0x1A1 PUSH2 0x1F8 CALLDATASIZE PUSH1 0x4 PUSH2 0x175 JUMP JUMPDEST PUSH2 0xA80 JUMP JUMPDEST PUSH20 0xFFFFFFFFFFFFFFFFFFFFFFFFFFFFFFFFFFFFFFFF AND SWAP1 JUMP JUMPDEST PUSH20 0xFFFFFFFFFFFFFFFFFFFFFFFFFFFFFFFFFFFFFFFF DUP2 AND PUSH2 0xFB JUMP JUMPDEST SWAP1 POP CALLDATALOAD SWAP1 PUSH2 0x114 DUP3 PUSH2 0x216 JUMP JUMPDEST SWAP2 SWAP1 PUSH1 0x40 DUP4 DUP3 SUB SLT PUSH2 0x102 JUMPI PUSH2 0x12A SWAP1 PUSH1 0x20 PUSH2 0x25B DUP3 DUP7 PUSH2 0x168 JUMP JUMPDEST SWAP5 ADD PUSH2 0x232 JUMP JUMPDEST CALLVALUE PUSH2 0x102 JUMPI PUSH2 0x1A1 PUSH2 0x275 CALLDATASIZE PUSH1 0x4 PUSH2 0x23F JUMP JUMPDEST SWAP1 PUSH2 0xAA7 JUMP JUMPDEST CALLVALUE PUSH2 0x102 JUMPI PUSH2 0x1A1 PUSH2 0x28E CALLDATASIZE PUSH1 0x4 PUSH2 0x23F JUMP JUMPDEST SWAP1 PUSH2 0xAB1 JUMP JUMPDEST PUSH1 0x0 SWAP2 SUB SLT PUSH2 0x102 JUMPI JUMP JUMPDEST PUSH2 0x12A SWAP2 PUSH1 0x8 MUL SHR DUP2 JUMP JUMPDEST SWAP1 PUSH2 0x12A SWAP2 SLOAD PUSH2 0x29F JUMP JUMPDEST PUSH2 0x12A PUSH1 0x0 PUSH1 0x2 PUSH2 0x2AA JUMP JUMPDEST CALLVALUE PUSH2 0x102 JUMPI PUSH2 0x2D1 CALLDATASIZE PUSH1 0x4 PUSH2 0x294 JUMP JUMPDEST PUSH2 0x15E PUSH2 0x1C1 PUSH2 0x2B5 JUMP JUMPDEST CALLVALUE PUSH2 0x102 JUMPI PUSH2 0x15E PUSH2 0x14C PUSH2 0x2F2 CALLDATASIZE PUSH1 0x4 PUSH2 0x23F JUMP JUMPDEST SWAP1 PUSH2 0xB18 JUMP JUMPDEST PUSH2 0x12A PUSH2 0x12A PUSH2 0x12A SWAP3 SWAP1 JUMP JUMPDEST PUSH2 0x12A PUSH1 0x0 PUSH2 0x2F8 JUMP JUMPDEST PUSH2 0x12A PUSH2 0x305 JUMP JUMPDEST CALLVALUE PUSH2 0x102 JUMPI PUSH2 0x327 CALLDATASIZE PUSH1 0x4 PUSH2 0x294 JUMP JUMPDEST PUSH2 0x15E PUSH2 0x1C1 PUSH2 0x30F JUMP JUMPDEST PUSH2 0x1FD PUSH2 0x12A PUSH2 0x12A SWAP3 PUSH20 0xFFFFFFFFFFFFFFFFFFFFFFFFFFFFFFFFFFFFFFFF AND SWAP1 JUMP JUMPDEST PUSH2 0x12A SWAP1 PUSH2 0x332 JUMP JUMPDEST PUSH2 0x12A SWAP1 PUSH2 0x355 JUMP JUMPDEST PUSH2 0x12D SWAP1 PUSH2 0x35E JUMP JUMPDEST PUSH1 0x20 DUP2 ADD SWAP3 SWAP2 PUSH2 0x114 SWAP2 SWAP1 PUSH2 0x367 JUMP JUMPDEST CALLVALUE PUSH2 0x102 JUMPI PUSH2 0x390 CALLDATASIZE PUSH1 0x4 PUSH2 0x294 JUMP JUMPDEST PUSH1 0x40 MLOAD DUP1 PUSH2 0x15E PUSH32 0x0 DUP3 PUSH2 0x370 JUMP JUMPDEST CALLVALUE PUSH2 0x102 JUMPI PUSH2 0x1A1 PUSH2 0x3D1 CALLDATASIZE PUSH1 0x4 PUSH2 0x23F JUMP JUMPDEST SWAP1 PUSH2 0xB5D JUMP JUMPDEST PUSH32 0x7965DB0B00000000000000000000000000000000000000000000000000000000 PUSH32 0xFFFFFFFF00000000000000000000000000000000000000000000000000000000 DUP3 AND EQ SWAP1 DUP2 ISZERO PUSH2 0x427 JUMPI POP SWAP1 JUMP JUMPDEST PUSH2 0x12A SWAP2 POP PUSH32 0xFFFFFFFF00000000000000000000000000000000000000000000000000000000 AND PUSH32 0x1FFC9A700000000000000000000000000000000000000000000000000000000 EQ SWAP1 JUMP JUMPDEST PUSH2 0x484 SWAP1 PUSH2 0x47F PUSH2 0xB71 JUMP JUMPDEST PUSH2 0x607 JUMP JUMPDEST PUSH2 0x114 PUSH2 0xBCA JUMP JUMPDEST PUSH2 0x12A SWAP1 DUP2 JUMP JUMPDEST PUSH2 0x12A SWAP1 SLOAD PUSH2 0x48C JUMP JUMPDEST PUSH32 0x4E487B7100000000000000000000000000000000000000000000000000000000 PUSH1 0x0 MSTORE PUSH1 0x11 PUSH1 0x4 MSTORE PUSH1 0x24 PUSH1 0x0 REVERT JUMPDEST DUP2 DUP2 MUL SWAP3 SWAP2 DUP2 ISZERO SWAP2 DUP5 DIV EQ OR ISZERO PUSH2 0x4DF JUMPI JUMP JUMPDEST PUSH2 0x49D JUMP JUMPDEST PUSH32 0x4E487B7100000000000000000000000000000000000000000000000000000000 PUSH1 0x0 MSTORE PUSH1 0x12 PUSH1 0x4 MSTORE PUSH1 0x24 PUSH1 0x0 REVERT JUMPDEST SWAP1 PUSH2 0x51D JUMP JUMPDEST SWAP2 SWAP1 JUMP JUMPDEST SWAP1 DUP2 ISZERO PUSH2 0x528 JUMPI DIV SWAP1 JUMP JUMPDEST PUSH2 0x4E4 JUMP JUMPDEST PUSH32 0x4E487B7100000000000000000000000000000000000000000000000000000000 PUSH1 0x0 MSTORE PUSH1 0x41 PUSH1 0x4 MSTORE PUSH1 0x24 PUSH1 0x0 REVERT JUMPDEST SWAP1 PUSH1 0x1F ADD PUSH32 0xFFFFFFFFFFFFFFFFFFFFFFFFFFFFFFFFFFFFFFFFFFFFFFFFFFFFFFFFFFFFFFE0 AND DUP2 ADD SWAP1 DUP2 LT PUSH8 0xFFFFFFFFFFFFFFFF DUP3 GT OR PUSH2 0x59C JUMPI PUSH1 0x40 MSTORE JUMP JUMPDEST PUSH2 0x52D JUMP JUMPDEST DUP1 ISZERO ISZERO PUSH2 0xFB JUMP JUMPDEST SWAP1 POP MLOAD SWAP1 PUSH2 0x114 DUP3 PUSH2 0x5A1 JUMP JUMPDEST SWAP1 PUSH1 0x20 DUP3 DUP3 SUB SLT PUSH2 0x102 JUMPI PUSH2 0x12A SWAP2 PUSH2 0x5A9 JUMP JUMPDEST PUSH20 0xFFFFFFFFFFFFFFFFFFFFFFFFFFFFFFFFFFFFFFFF SWAP2 DUP3 AND DUP2 MSTORE SWAP2 AND PUSH1 0x20 DUP3 ADD MSTORE PUSH1 0x60 DUP2 ADD SWAP3 SWAP2 PUSH2 0x114 SWAP2 PUSH1 0x40 ADD MSTORE JUMP JUMPDEST PUSH1 0x40 MLOAD RETURNDATASIZE PUSH1 0x0 DUP3 RETURNDATACOPY RETURNDATASIZE SWAP1 REVERT JUMPDEST PUSH2 0x634 PUSH2 0x61D PUSH2 0x617 PUSH1 0x2 PUSH2 0x493 JUMP JUMPDEST DUP4 PUSH2 0x4CC JUMP JUMPDEST PUSH2 0x62E PUSH8 0xDE0B6B3A7640000 PUSH2 0x2F8 JUMP JUMPDEST SWAP1 PUSH2 0x513 JUMP JUMPDEST SWAP1 PUSH1 0x0 SWAP1 PUSH2 0x641 DUP3 PUSH2 0x2F8 JUMP JUMPDEST DUP4 EQ PUSH2 0x7CB JUMPI PUSH2 0x670 PUSH32 0x0 PUSH2 0x35E JUMP JUMPDEST PUSH2 0x6B4 PUSH1 0x20 DUP4 PUSH2 0x67F ADDRESS PUSH2 0x35E JUMP JUMPDEST PUSH1 0x40 MLOAD SWAP4 DUP5 SWAP3 DUP4 SWAP3 PUSH32 0x23B872DD00000000000000000000000000000000000000000000000000000000 DUP5 MSTORE CALLER PUSH1 0x4 DUP6 ADD PUSH2 0x5CA JUMP JUMPDEST SUB DUP2 DUP8 DUP7 GAS CALL DUP1 ISZERO PUSH2 0x799 JUMPI PUSH2 0x79E JUMPI JUMPDEST POP DUP1 EXTCODESIZE ISZERO PUSH2 0x102 JUMPI PUSH2 0x716 DUP4 SWAP3 SWAP2 DUP4 SWAP3 PUSH2 0x6DE PUSH1 0x40 MLOAD SWAP1 JUMP JUMPDEST SWAP5 DUP6 SWAP4 DUP5 SWAP3 DUP4 SWAP2 SWAP1 PUSH32 0x42966C6800000000000000000000000000000000000000000000000000000000 DUP4 MSTORE PUSH1 0x4 DUP4 ADD SWAP1 DUP2 MSTORE PUSH1 0x20 ADD SWAP1 JUMP JUMPDEST SUB SWAP3 GAS CALL DUP1 ISZERO PUSH2 0x799 JUMPI PUSH2 0x76C JUMPI JUMPDEST POP POP PUSH2 0x730 DUP2 PUSH2 0xC61 JUMP JUMPDEST PUSH32 0x5E5E995CE3133561AFCEAA51A9A154D5DB228CD7525D34DF5185582C18D3DF09 PUSH2 0x767 PUSH2 0x75D CALLER PUSH2 0x35E JUMP JUMPDEST SWAP3 PUSH2 0x1C5 PUSH1 0x40 MLOAD SWAP1 JUMP JUMPDEST SUB SWAP1 LOG2 JUMP JUMPDEST DUP2 PUSH2 0x78B SWAP3 SWAP1 RETURNDATASIZE LT PUSH2 0x792 JUMPI JUMPDEST PUSH2 0x783 DUP2 DUP4 PUSH2 0x55C JUMP JUMPDEST DUP2 ADD SWAP1 PUSH2 0x294 JUMP JUMPDEST CODESIZE DUP1 PUSH2 0x725 JUMP JUMPDEST POP RETURNDATASIZE PUSH2 0x779 JUMP JUMPDEST PUSH2 0x5FB JUMP JUMPDEST PUSH2 0x7BF SWAP1 PUSH1 0x20 RETURNDATASIZE PUSH1 0x20 GT PUSH2 0x7C4 JUMPI JUMPDEST PUSH2 0x7B7 DUP2 DUP4 PUSH2 0x55C JUMP JUMPDEST DUP2 ADD SWAP1 PUSH2 0x5B6 JUMP JUMPDEST PUSH2 0x6C5 JUMP JUMPDEST POP RETURNDATASIZE PUSH2 0x7AD JUMP JUMPDEST POP PUSH32 0xD84739B100000000000000000000000000000000000000000000000000000000 DUP2 MSTORE PUSH1 0x4 SWAP1 REVERT JUMPDEST PUSH2 0x114 SWAP1 PUSH2 0x473 JUMP JUMPDEST SWAP1 JUMPDEST PUSH1 0x0 MSTORE PUSH1 0x20 MSTORE PUSH1 0x40 PUSH1 0x0 KECCAK256 SWAP1 JUMP JUMPDEST PUSH1 0x1 PUSH2 0x825 PUSH2 0x12A SWAP3 PUSH2 0x81E PUSH1 0x0 SWAP1 JUMP JUMPDEST POP DUP3 PUSH2 0x7FD JUMP JUMPDEST ADD PUSH2 0x493 JUMP JUMPDEST PUSH2 0x12A PUSH32 0xAF290D8680820AAD922855F39B306097B20E28774D6C1AD35A20325630C3A02C PUSH2 0x2F8 JUMP JUMPDEST PUSH2 0x114 SWAP1 PUSH2 0x868 PUSH2 0x863 PUSH2 0x82B JUMP JUMPDEST PUSH2 0xCB5 JUMP JUMPDEST PUSH2 0x8B6 JUMP JUMPDEST SWAP1 PUSH32 0xFFFFFFFFFFFFFFFFFFFFFFFFFFFFFFFFFFFFFFFFFFFFFFFFFFFFFFFFFFFFFFFF SWAP1 JUMPDEST SWAP2 DUP2 NOT AND SWAP2 AND OR SWAP1 JUMP JUMPDEST SWAP1 PUSH2 0x8AB PUSH2 0x12A PUSH2 0x8B2 SWAP3 PUSH2 0x2F8 JUMP JUMPDEST DUP3 SLOAD PUSH2 0x86D JUMP JUMPDEST SWAP1 SSTORE JUMP JUMPDEST PUSH2 0x114 SWAP1 PUSH1 0x2 PUSH2 0x89B JUMP JUMPDEST PUSH2 0x114 SWAP1 PUSH2 0x854 JUMP JUMPDEST PUSH2 0x484 SWAP1 PUSH2 0x8D6 PUSH2 0xB71 JUMP JUMPDEST PUSH2 0x912 JUMP JUMPDEST PUSH20 0xFFFFFFFFFFFFFFFFFFFFFFFFFFFFFFFFFFFFFFFF SWAP1 SWAP2 AND DUP2 MSTORE PUSH1 0x40 DUP2 ADD SWAP3 SWAP2 PUSH2 0x114 SWAP2 PUSH1 0x20 ADD MSTORE JUMP JUMPDEST SWAP2 SWAP1 DUP3 SUB SWAP2 DUP3 GT PUSH2 0x4DF JUMPI JUMP JUMPDEST PUSH2 0x922 PUSH2 0x61D PUSH2 0x617 PUSH1 0x2 PUSH2 0x493 JUMP JUMPDEST PUSH1 0x0 PUSH2 0x92D DUP2 PUSH2 0x2F8 JUMP JUMPDEST DUP3 EQ PUSH2 0xA58 JUMPI DUP2 CALLVALUE LT PUSH2 0xA30 JUMPI PUSH2 0x963 PUSH32 0x0 PUSH2 0x35E JUMP JUMPDEST DUP1 EXTCODESIZE ISZERO PUSH2 0x102 JUMPI DUP2 PUSH2 0x974 PUSH1 0x40 MLOAD SWAP1 JUMP JUMPDEST SWAP2 DUP3 SWAP1 PUSH32 0x40C10F1900000000000000000000000000000000000000000000000000000000 DUP3 MSTORE DUP2 DUP4 DUP2 PUSH2 0x9AB DUP11 CALLER PUSH1 0x4 DUP5 ADD PUSH2 0x8DB JUMP JUMPDEST SUB SWAP3 GAS CALL DUP1 ISZERO PUSH2 0x799 JUMPI PUSH2 0xA14 JUMPI JUMPDEST POP PUSH2 0x9D1 PUSH2 0x519 PUSH2 0x9CB DUP5 CALLVALUE PUSH2 0x905 JUMP JUMPDEST SWAP3 PUSH2 0x2F8 JUMP JUMPDEST GT PUSH2 0xA05 JUMPI JUMPDEST POP PUSH32 0xE3D4187F6CA4248660CC0AC8B8056515BAC4A8132BE2ECA31D6D0CC170722A7E PUSH2 0x767 PUSH2 0x75D CALLER PUSH2 0x35E JUMP JUMPDEST PUSH2 0xA0E SWAP1 PUSH2 0xC61 JUMP JUMPDEST CODESIZE PUSH2 0x9D7 JUMP JUMPDEST PUSH2 0xA2A SWAP1 DUP3 RETURNDATASIZE DUP5 GT PUSH2 0x792 JUMPI PUSH2 0x783 DUP2 DUP4 PUSH2 0x55C JUMP JUMPDEST CODESIZE PUSH2 0x9BA JUMP JUMPDEST PUSH32 0x59C4221C00000000000000000000000000000000000000000000000000000000 DUP2 MSTORE PUSH1 0x4 SWAP1 REVERT JUMPDEST PUSH32 0xD84739B100000000000000000000000000000000000000000000000000000000 DUP2 MSTORE PUSH1 0x4 SWAP1 REVERT JUMPDEST PUSH2 0x114 SWAP1 PUSH2 0x8CA JUMP JUMPDEST SWAP1 PUSH2 0x114 SWAP2 PUSH2 0xA9A PUSH2 0x863 DUP3 PUSH2 0x80D JUMP JUMPDEST SWAP1 PUSH2 0xAA4 SWAP2 PUSH2 0xCE0 JUMP JUMPDEST POP JUMP JUMPDEST SWAP1 PUSH2 0x114 SWAP2 PUSH2 0xA89 JUMP JUMPDEST SWAP1 PUSH2 0xABB CALLER PUSH2 0x1FD JUMP JUMPDEST PUSH20 0xFFFFFFFFFFFFFFFFFFFFFFFFFFFFFFFFFFFFFFFF DUP3 AND SUB PUSH2 0xAE0 JUMPI PUSH2 0xAA4 SWAP2 PUSH2 0xD66 JUMP JUMPDEST PUSH32 0x6697B23200000000000000000000000000000000000000000000000000000000 PUSH1 0x0 SWAP1 DUP2 MSTORE PUSH1 0x4 JUMPDEST SUB PUSH1 0x0 REVERT JUMPDEST SWAP1 PUSH2 0x7FF SWAP1 PUSH2 0x35E JUMP JUMPDEST PUSH2 0x12A SWAP2 PUSH1 0x0 PUSH2 0xB35 PUSH2 0xB3B SWAP4 PUSH2 0xB2D PUSH1 0x0 SWAP1 JUMP JUMPDEST POP PUSH1 0x1 PUSH2 0x7FD JUMP JUMPDEST ADD PUSH2 0xB0E JUMP JUMPDEST SLOAD PUSH1 0xFF AND SWAP1 JUMP JUMPDEST SWAP1 PUSH2 0x114 SWAP2 PUSH2 0xB53 PUSH2 0x863 DUP3 PUSH2 0x80D JUMP JUMPDEST SWAP1 PUSH2 0xAA4 SWAP2 PUSH2 0xD66 JUMP JUMPDEST SWAP1 PUSH2 0x114 SWAP2 PUSH2 0xB42 JUMP JUMPDEST PUSH2 0x12A PUSH1 0x2 PUSH2 0x2F8 JUMP JUMPDEST PUSH2 0xB7B PUSH1 0x0 PUSH2 0x493 JUMP JUMPDEST PUSH2 0xB83 PUSH2 0xB67 JUMP JUMPDEST SWAP1 DUP2 EQ PUSH2 0xB95 JUMPI PUSH2 0x114 SWAP1 PUSH1 0x0 PUSH2 0x89B JUMP JUMPDEST PUSH32 0x3EE5AEB500000000000000000000000000000000000000000000000000000000 PUSH1 0x0 SWAP1 DUP2 MSTORE PUSH1 0x4 SWAP1 REVERT JUMPDEST PUSH2 0x12A PUSH1 0x1 PUSH2 0x2F8 JUMP JUMPDEST PUSH2 0x114 PUSH2 0xBD5 PUSH2 0xBC0 JUMP JUMPDEST PUSH1 0x0 PUSH2 0x89B JUMP JUMPDEST SWAP1 PUSH2 0x114 PUSH2 0xBE9 PUSH1 0x40 MLOAD SWAP1 JUMP JUMPDEST SWAP3 DUP4 PUSH2 0x55C JUMP JUMPDEST PUSH8 0xFFFFFFFFFFFFFFFF DUP2 GT PUSH2 0x59C JUMPI PUSH1 0x20 SWAP1 PUSH1 0x1F ADD PUSH32 0xFFFFFFFFFFFFFFFFFFFFFFFFFFFFFFFFFFFFFFFFFFFFFFFFFFFFFFFFFFFFFFE0 AND ADD SWAP1 JUMP JUMPDEST SWAP1 PUSH2 0xC3D PUSH2 0xC38 DUP4 PUSH2 0xBF0 JUMP JUMPDEST PUSH2 0xBDC JUMP JUMPDEST SWAP2 DUP3 MSTORE JUMP JUMPDEST RETURNDATASIZE ISZERO PUSH2 0xC5C JUMPI PUSH2 0xC51 RETURNDATASIZE PUSH2 0xC2B JUMP JUMPDEST SWAP1 RETURNDATASIZE PUSH1 0x0 PUSH1 0x20 DUP5 ADD RETURNDATACOPY JUMP JUMPDEST PUSH1 0x60 SWAP1 JUMP JUMPDEST PUSH1 0x0 DUP1 PUSH2 0xC84 SWAP3 PUSH2 0xC71 PUSH1 0x40 MLOAD SWAP1 JUMP JUMPDEST PUSH1 0x0 SWAP2 CALLER GAS CALL PUSH2 0xC7F PUSH2 0xC42 JUMP JUMPDEST POP ISZERO SWAP1 JUMP JUMPDEST PUSH2 0xC8A JUMPI JUMP JUMPDEST PUSH32 0xDCCF81A900000000000000000000000000000000000000000000000000000000 PUSH1 0x0 SWAP1 DUP2 MSTORE PUSH1 0x4 SWAP1 REVERT JUMPDEST PUSH2 0x114 SWAP1 CALLER SWAP1 PUSH2 0xDCC JUMP JUMPDEST SWAP1 PUSH1 0xFF SWAP1 PUSH2 0x891 JUMP JUMPDEST SWAP1 PUSH2 0xCD9 PUSH2 0x12A PUSH2 0x8B2 SWAP3 ISZERO ISZERO SWAP1 JUMP JUMPDEST DUP3 SLOAD PUSH2 0xCC0 JUMP JUMPDEST SWAP1 PUSH2 0xCF2 PUSH2 0xCEE DUP3 DUP5 PUSH2 0xB18 JUMP JUMPDEST ISZERO SWAP1 JUMP JUMPDEST ISZERO PUSH2 0xD5F JUMPI PUSH1 0x1 SWAP2 PUSH2 0xD13 DUP4 PUSH2 0xD0E DUP5 PUSH1 0x0 PUSH2 0xB35 DUP7 DUP6 PUSH2 0x7FD JUMP JUMPDEST PUSH2 0xCC9 JUMP JUMPDEST PUSH2 0xD2D PUSH2 0xD27 PUSH2 0xD21 CALLER SWAP4 SWAP1 JUMP JUMPDEST SWAP4 PUSH2 0x35E JUMP JUMPDEST SWAP2 PUSH2 0x35E JUMP JUMPDEST SWAP2 PUSH32 0x2F8788117E7EFF1D82E926EC794901D17C78024A50270940304540A733656F0D PUSH2 0xD58 PUSH1 0x40 MLOAD SWAP1 JUMP JUMPDEST PUSH1 0x0 SWAP1 LOG4 SWAP1 JUMP JUMPDEST POP POP PUSH1 0x0 SWAP1 JUMP JUMPDEST PUSH2 0xD70 DUP3 DUP3 PUSH2 0xB18 JUMP JUMPDEST ISZERO PUSH2 0xD5F JUMPI PUSH2 0xD8A PUSH1 0x0 PUSH2 0xD0E DUP5 DUP3 PUSH2 0xB35 DUP7 PUSH1 0x1 PUSH2 0x7FD JUMP JUMPDEST PUSH2 0xD98 PUSH2 0xD27 PUSH2 0xD21 CALLER SWAP4 SWAP1 JUMP JUMPDEST SWAP2 PUSH32 0xF6391F5C32D9C69D2A47EA670B442974B53935D1EDC7FD64EB21E047A839171B PUSH2 0xDC3 PUSH1 0x40 MLOAD SWAP1 JUMP JUMPDEST PUSH1 0x0 SWAP1 LOG4 PUSH1 0x1 SWAP1 JUMP JUMPDEST SWAP1 PUSH2 0xDDA PUSH2 0xCEE DUP3 DUP5 PUSH2 0xB18 JUMP JUMPDEST PUSH2 0xDE2 JUMPI POP POP JUMP JUMPDEST PUSH32 0xE2517D3F00000000000000000000000000000000000000000000000000000000 PUSH1 0x0 SWAP1 DUP2 MSTORE SWAP2 PUSH2 0xB09 SWAP2 PUSH1 0x4 PUSH2 0x8DB JUMP INVALID LOG2 PUSH5 0x6970667358 0x22 SLT KECCAK256 PUSH22 0x95AA925A1D4066BB64D4FEABA16EFA4B9B774020E4E1 CALLDATACOPY REVERT DUP8 0xC9 SHR MSIZE 0x4E 0xC0 0x27 PUSH5 0x736F6C6343 STOP ADDMOD SHR STOP CALLER "
        },
        "methodIdentifiers": {
          "DEFAULT_ADMIN_ROLE()": "a217fddf",
          "SALE_TOKEN()": "b8ac77a4",
          "buyToken(uint256)": "2d296bf1",
          "getRoleAdmin(bytes32)": "248a9ca3",
          "grantRole(bytes32,address)": "2f2ff15d",
          "hasRole(bytes32,address)": "91d14854",
          "pricePerToken()": "7b1b1de6",
          "renounceRole(bytes32,address)": "36568abe",
          "revokeRole(bytes32,address)": "d547741f",
          "sellToken(uint256)": "2397e4d7",
          "setPricePerToken(uint256)": "2bf2762f",
          "supportsInterface(bytes4)": "01ffc9a7"
        }
      }
    }
  }
}